:060000000A128A110C280F
:10000800FE00030EF1000A08F2000A128A117E2B84
:100018000A128A110F28F901FA0183010A128A11BA
:10002800DB2B8312031331088039BB003108B2007F
:100038003207C200B01F2128222823284214420870
:100048000319272828283828420A031D2C282D2878
:1000580035280030B1000030B0000030AF0000306B
:10006800AE00B017B10140280030B1000030B00038
:100078000030AF000030AE002D088039B2003208E1
:10008800BB062D08B2003207C300AC1F4C284D2810
:100098004E28431443080319522853286328430A57
:1000A800031D5728582860280030AD000030AC00E8
:1000B8000030AB000030AA00AC17AD016B2800304F
:1000C800AD000030AC000030AB000030AA002D08B5
:1000D8002C042B042A04031D722873288C28003052
:1000E800B1000030B0000030AF000030AE0080300A
:1000F800B0047F30B1043B08B2003208B1043108C3
:10010800AD003008AC002F08AB002E08AA00E72984
:100118004208031D902891289A280030AD0000302D
:10012800AC000030AB000030AA00E7294208B2005A
:10013800B3013308B50043083202B400031CB50309
:1001480034087F3EBC0035080318013E003EBD0060
:100158003108BA003008B9002F08B8002E08B700D7
:100168000030B1000030B0000030AF000030AE0009
:100178000030C1000030C0000030BF000030BE00B9
:10018800C301102943080319CA28CB28EB280130DA
:10019800B2000310B70DB80DB90DBA0DB20BCD28CA
:1001A8000130B2000310AE0DAF0DB00DB10DB20BA2
:1001B800D628C11FE028E128E2282E140130B20019
:1001C8000310BE0DBF0DC00DC10DB20BE4282D08E4
:1001D8003A02031DF9282C083902031DF9282B08B7
:1001E8003802031DF9282A083702031CFC28FD28B9
:1001F8000C2941172A08B7022B08031C2B0FB80239
:100208002C08031C2C0FB9022D08031C2D0FBA0251
:100218000130B2003208C3071A304302031C152903
:100228001629C6283A0839043804370403191D2941
:100238001E293D293E143D290130B2000310AE0DA0
:10024800AF0DB00DB10DB20B2229C11F2C292D29DC
:100258002E292E140130B2000310BE0DBF0DC00DA3
:10026800C10DB20B3029FF30BC070318BD0AFF309F
:10027800BD07B01F402941292029C301C11F4529B5
:1002880046296229FF303E05B200FF303F05B30022
:10029800FF304005B4007F304105B500350834040F
:1002A80033043204031959295A295D29C301C30AA1
:1002B80062292E1C6029612962295A2943080319D9
:1002C8006629672998290130AE07003003180130E4
:1002D800AF07003003180130B007003003180130B1
:1002E800B107311C7829792998292E08B2002F08DE
:1002F800B3003008B4003108B5000130B600350D40
:10030800B50CB40CB30CB20CB60B83293508B1008C
:100318003408B0003308AF003208AE000130BC0723
:100328000318BD0A0030BD073D08803AFF00803041
:100338007F02031DA129FF303C02031CA429A52923
:10034800B329FF3083120313BC000030BD00003016
:10035800B1000030B0000030AF000030AE008312B2
:1003680003133D08803AFF0080307F02031DBE2939
:1003780001303C020318C129C229CF298312031373
:10038800BC01BD010030B1000030B0000030AF004A
:100398000030AE00BB01831203133C08C200421CAC
:1003A800D629D729D929B017DD297F30B2003208DC
:1003B800B0054208B2000310320CB1003B08B2008D
:1003C8003208B1048328080083120313A400240808
:1003D8000319EF29F029042AF61FF329F429042A1E
:1003E8007309A6007409A7007509A8007609A90071
:1003F800A60A0319A70A0319A80A0319A90A0C2AA5
:100408007608A9007508A8007408A7007308A60054
:100418007608750474047304031D132A142A1D2A0C
:100428000030F6000030F5000030F4000030F30032
:10043800A12A9630A5002D2A0130A0002008A50782
:1004480001300310A90CA80CA70CA60CFF3E031D35
:10045800252AFE302905031D322A332A202A4F2A4D
:100468000130A0002008A5070130A60700300318B6
:100478000130A707003003180130A807003003181F
:100488000130A90701300310A90CA80CA70CA60C71
:10049800FF3E031D472AFF302905031D542A552A0C
:1004A800342A612A0130A5020130A0000310A60DEC
:1004B800A70DA80DA90DA00B5A2AA81B642A652A06
:1004C8006B2A0230250203186A2A6B2A562A251835
:1004D8006E2A6F2A772AFF30A605FF30A7057F30DE
:1004E800A805FF30A9050310A50C2508A000A10147
:1004F800A201A30118300310A00DA10DA20DA30D98
:10050800FF3E031D7F2A2008A6042108A70422080D
:10051800A8042308A90424080319932A942A992AC9
:10052800F61F972A982A992AA9172908F600280851
:10053800F5002708F4002608F30008000310750DDD
:10054800760DF8007808031DAA2AAB2AB42A0030D1
:10055800F6000030F5000030F4000030F300192BED
:10056800730883120313A0007408A1007508A20081
:100578007608A3001F300310A30CA20CA10CA00C3A
:10058800FF3E031DBF2A2008F700F517FF30F305CB
:10059800FF30F405FF30F5050030F6059630F80217
:1005A800F81FD72AD82AF22A7808803A973E0318E3
:1005B800DE2ADF2AE02AAB2A01300310F60CF50CFC
:1005C800F40CF30CFF3E031DE12A0130A0002008C3
:1005D800F807031DF02AF12AE02A092B20307802B7
:1005E800031CF72AF82A042BAB2A0130A0000310B9
:1005F800F30DF40DF50DF60DA00BFB2A0130F802F2
:100608007808031D082B092BF92A770803190D2BE5
:100618000E2B192BF309F409F509F609F30A031946
:10062800F40A0319F50A0319F60A080083160313D6
:10063800051085140A128A1133240A128A118312AA
:10064800031305140630F700F70B282B000083125C
:1006580003130510851C312B322B2E2B8E018F0195
:1006680010148518382B392B352B10100F08F8006B
:100678000E08F7000310F70DF80D0310F70DF80D2D
:100688007708CC007808CD004230AD006830AC0067
:100698000030AB000030AA004C08F3004D08F4000D
:1006A800F501F60100300A128A11E8210A128A11AE
:1006B800760883120313B1007508B0007408AF0000
:1006C8007308AE000A128A1115200A128A118312C1
:1006D80003132D08CB002C08CA002B08C9002A08D0
:1006E800C8004B08C7004A08C6004908C5004808A2
:1006F800C4000800831203138C1D832B842BD42B76
:100708001412141B882B892B8D2B941F8C2B8D2B4B
:10071800922B1308FA001413941314168316031358
:10072800941A972B982BB22B14199B2B9C2BB22B1A
:10073800831203131308FA008C111416831603137B
:10074800141CA72BA82BA22B8312031313088800B1
:10075800A630F000F00BAE2B0000D12B941AB52B6D
:10076800B62BD12B141DB92BBA2BD12B8312031303
:100778001308FA00831603131410831203130608D0
:1007880093001416A630F000F00BC82B0000831657
:1007980003131418D02BD12BCB2B831203138C11DA
:1007A80072088A00710E8300FE0E7E0E09000A127E
:1007B8008A111E240A128A110A128A111A230A128D
:1007C8008A11831203134708D1004608D000450850
:1007D800CF004408CE005108F6005008F5004F0835
:1007E800F4004E08F3000A128A11A2220A128A1192
:1007F8007308831203138600E02B0A128A110C284F
:10080800F30073088316031393003630831203131F
:1008180094008030831603139400013091008715EB
:1008280007168B170B17831203138C1183160313E8
:100838008C15080083160317880189018316031392
:1008480085018601880183120313850186018801C9
:1008580010300A128A1104240A128A11080083121D
:0E08680003139010303090041015101008008B
:08400000FF3FFF3FFF3FFF3FC0
:04400E00D420FF3F7C
:00000001FF
