:060000000A128A110C280F
:10000800FE00030EF7000A08F8000A128A11832876
:100018000A128A110F28F001F101F201F301F4012B
:10002800F50183010A128A1119280A128A11FC2083
:100038000A128A1183160313880183120313050811
:100048000139A100A2012108F9002208FA00050CD3
:100058000139A100A2012108A3002208A4007908FF
:100068007A04031D382839283D280130F200003071
:10007800F30079037A04031D422843284528F20136
:10008800F30123082404031D4A284B284F28013074
:10009800F0000030F10023032404031D54285528E0
:1000A8005728F001F10172037304031D5C285D28D1
:1000B8005F28F501F50A70037104031D642865289B
:1000C80067280230F50072087304031D6C286D2838
:1000D800742870087104031D722873287428F501A8
:1000E8001A3083120313A200F730A100A10B7A285B
:1000F800A20B7A287F2821280A128A110C28831239
:1001080003138C1D88288928D9281412141B8D28BC
:100118008E289228941F9128922897281308F40073
:1001280014139413141683160313941A9C289D28E9
:10013800B7281419A028A128B72883120313130875
:10014800F4008C11141683160313141CAC28AD2864
:10015800A7288312031313088800A630F600F60BAD
:10016800B3280000D628941ABA28BB28D628141D0C
:10017800BE28BF28D628831203131308F400831659
:100188000313141075088312031393001416A63072
:10019800F600F60BCD280000831603131418D52893
:1001A800D628D028831203138C1178088A00770E7A
:1001B8008300FE0E7E0E090083120313A0002008A0
:1001C8008316031393003630831203139400803090
:1001D80083160313940001309100871507168B17B7
:1001E8000B17831203138C11831603138C15080045
:1001F80083160317880189010330831603138500CA
:100208008801831203138801850170308316031354
:100218008F040F1420300A128A11E0200A128A1162
:020228000800CC
:08400000FF3FFF3FFF3FFF3FC0
:04400E00D420FF3F7C
:00000001FF
