:060000000A128A110C280F
:10000800FE00030EF7000A08F8000A128A118A286F
:100018000A128A110F28F001F101F201F301F4012B
:10002800F50183010A128A1119280A128A1103217B
:100038000A128A1183160313880183120313050811
:100048000139A100A2012108F9002208FA00050CD3
:100058000139A100A2012108A3002208A4007908FF
:100068007A04031D382839283E280130F200003070
:10007800F3007B2879037A04031D43284428472882
:10008800F201F3017B2823082404031D4C284D2882
:1000980052280130F0000030F1007B2823032404AB
:1000A800031D572858285B28F001F1017B287203AB
:1000B8007304031D602861286428F501F50A7B286C
:1000C80070037104031D69286A286D280230F50041
:1000D8007B2872087304031D722873287B28700814
:1000E8007104031D782879287B28F5017B281A30AC
:1000F80083120313A200F730A100A10B8128A20BE1
:100108008128862821280A128A110C2883120313B1
:100118008C1D8F289028E0281412141B94289528E9
:100128009928941F982899289E281308F4001413D6
:100138009413141683160313941AA328A428BE280C
:100148001419A728A828BE28831203131308F4003B
:100158008C11141683160313141CB328B428AE2864
:100168008312031313088800A630F600F60BBA288A
:100178000000DD28941AC128C228DD28141DC528CE
:10018800C628DD28831203131308F400831603130B
:10019800141075088312031393001416A630F60082
:1001A800F60BD4280000831603131418DC28DD2866
:1001B800D728831203138C1178088A00770E8300DE
:1001C800FE0E7E0E090083120313A000200883167A
:1001D8000313930036308312031394008030831680
:1001E8000313940001309100871507168B170B171E
:1001F800831203138C11831603138C1508008316BE
:1002080003178801890103308316031385008801C9
:1002180083120313880185017030831603138F043A
:100228000F1420300A128A11E7200A128A110800D6
:08400000FF3FFF3FFF3FFF3FC0
:04400E00D420FF3F7C
:00000001FF
