:060000000A128A110C280F
:10000800FE00030EF7000A08F8000A128A118D286C
:100018000A128A110F28F001F101F201F301F4012B
:10002800F50183010A128A1119280A128A11062178
:100038000A128A11831603138801831205080139ED
:10004800A100A2012108F9002208FA00050C0139D3
:10005800A100A2012108A3002208A40079087A04BB
:10006800031D372838283D280130F2000030F300FE
:100078007A2879037A04031D422843284628F20186
:10008800F3017A2823082404031D4B284C285128FF
:100098000130F0000030F1007A2823032404031D06
:1000A800562857285A28F001F1017A287203730458
:1000B800031D5F2860286328F501F50A7A28700374
:1000C8007104031D682869286C280230F5007A2815
:1000D80072087304031D712872287A287008710445
:1000E800031D772878287A28F5017A281A30831290
:1000F8000313A200F730A100A10B8028A20B8028CF
:100108008528750883120313860021280A128A118C
:100118000C28831203138C1D92289328E3281412A9
:10012800141B972898289C28941F9B289C28A12852
:100138001308F40014139413141683160313941A53
:10014800A628A728C1281419AA28AB28C1288312D1
:1001580003131308F4008C11141683160313141CCC
:10016800B628B728B1288312031313088800A630CD
:10017800F600F60BBD280000E028941AC428C5280C
:10018800E028141DC828C928E0288312031313087F
:10019800F400831603131410831203130608930044
:1001A8001416A630F600F60BD728000083160313A2
:1001B8001418DF28E028DA28831203138C11780832
:1001C8008A00770E8300FE0E7E0E09008312031349
:1001D800A0002008831603139300363083120313FC
:1001E8009400803083160313940001309100871522
:1001F80007168B170B17831203138C11831603131F
:100208008C150800831603178801890103308316AB
:100218000313850088018312031388018501703058
:10022800831603138F040F1420300A128A11EA2050
:060238000A128A11080001
:08400000FF3FFF3FFF3FFF3FC0
:04400E00D420FF3F7C
:00000001FF
