:100000000A128A11F42F00308A000408840A820739
:10001000003445344E34433445344E34443449344A
:1000200044344F3400344134503441344734413443
:1000300044344F340034453453345434413444341C
:040040004F34003405
:100C520000300A128A1149260A128A1101300A1238
:100C62008A1149260A128A1108008316031788017D
:100C7200890103308316031386008801831203134C
:100C8200880186017030831603138F040F14080045
:100C9200F30083120313081173080A128A116326E0
:100CA2000A128A118312031388150B30F200623084
:100CB200F100F10B5A2EF20B5A2E0000831203138D
:100CC20088110800F000701C672E682E6C2E8312AB
:100CD200031308166F2E831203130812F01C722ED0
:100CE200732E752E8816762E8812701D792E7A2E06
:100CF2007C2E08177D2E0813F01D802E812E832E48
:100D02008817842E88130800F700F501F6019C2E3F
:100D12007508770784000A128A1103200A128A11C1
:100D22000A128A11AA260A128A110130F50703183B
:100D3200F60A0030F6077508770784000A128A114E
:100D420003200A128A11003A031DA82EA92E892E09
:100D52000800F40074080F39F2007408F039F30047
:100D62008312031308157308F10004300310F10C09
:100D7200FF3E031DB72E71080A128A1163260A125A
:100D82008A118312031388151A30F100F10BC72E52
:100D9200000083120313881172080A128A11632653
:100DA2000A128A118312031388151A30F100F10B0B
:100DB200D82E00008312031388110800F600760370
:100DC200031DE42EE52E022F74087F3EF9007908F8
:100DD200F50004300310F50CFF3E031DEB2E7508E1
:100DE200F70079080F39F80077080A128A114926A4
:100DF2000A128A1178080A128A1149260A128A11DD
:100E0200242F02307606031D072F082F242F740883
:100E1200BF3EF9007908F50004300310F50CFF3EDF
:100E2200031D0E2F7508F70079080F39F8007708AF
:100E32000A128A1149260A128A1178080A128A119C
:100E420049260A128A11080000300A128A11632602
:100E52000A128A113430F500F130F400F40B2F2F0E
:100E6200F50B2F2F342F03300A128A1149260A124A
:100E72008A110D30F500FB30F400F40B3E2FF50B18
:100E82003E2F432F03300A128A1149260A128A1171
:100E92001D30F5009130F400F40B4D2FF50B4D2F62
:100EA20003300A128A1149260A128A1102300A12E2
:100EB2008A1149260A128A1102300A128A11492617
:100EC2000A128A1108300A128A1149260A128A1154
:100ED20000300A128A1149260A128A110C300A12AB
:100EE2008A1149260A128A1100300A128A114926E9
:100EF2000A128A1106300A128A1149260A128A1126
:100F020008000A128A1136260A128A11831603135E
:100F120088010A128A1125270A128A110A128A11D5
:100F220029260A128A11F401F40A01300A128A11DE
:100F3200DF260A128A1113300A128A1185260A1232
:100F42008A118312031306080139FA00FB017A0899
:100F5200A2007B08A300060C0139FA00FB017A0803
:100F6200A0007B08A10022082304031DB92FBA2F79
:100F7200CD2F0130A4000030A500F401F40A0230A4
:100F82000A128A11DF260A128A1101300A128A1104
:100F920085260A128A11E32F22032304031DD22F6E
:100FA200D32FE32FA401A501F401F40A02300A129F
:100FB2008A11DF260A128A110B300A128A1185263B
:100FC2000A128A110630FC001330FB00AD30FA0021
:100FD200FA0BE92FFB0BE92FFC0BE92FF02F8F2FD8
:100FE2000A128A11002883120313A001A101A2018F
:0E0FF200A301A401A50183010A128A11822F16
:08400000FF3FFF3FFF3FFF3FC0
:04400E00D420FF3F7C
:00000001FF
