:060000000A128A11F32F21
:1000080083120313230822042104200403190D2852
:100018000E285128A901A90A1E280130A80003109A
:10002800A00DA10DA20DA30DA80B13280130A80047
:100038002808A907A31F21282228112823082702F6
:10004800031D302822082602031D30282108250216
:10005800031D302820082402031C33283428422892
:100068002008A4022108031C210FA5022208031C52
:10007800220FA6022308031C230FA7020130031036
:10008800A30CA20CA10CA00CFF3E031D43280130B9
:10009800A902031D5028512822282708A300260852
:1000A800A2002508A1002408A00008008312031359
:1000B80008148814133083120313C800C80B62286D
:1000C80083120313851869286A286428851C6D28FB
:1000D8006E286A288E018F011014851874287528D7
:1000E800712810100E08C9000F08CA00CB01CC01F6
:1000F8008E018F014C08F3004B08F2004A08F1000A
:100108004908F00000300A128A11FE210A128A11E9
:10011800730883120313A7007208A6007108A500CC
:100128007008A4003F30A3008030A2000030A10076
:100138000030A0000A128A11AE240A128A11831212
:1001480003132308BD002208BC002108BB002008B7
:10015800BA000A128A1186210A128A11831203131D
:100168003D08C7003C08C6003B08C5003A08C40063
:100178000800831203130810881013308312031326
:10018800C800C80BC528831203138518CC28CD28AE
:10019800C728851CD028D128CD288E018F0110149E
:1001A8008518D728D828D42810100E08C9000F0899
:1001B800CA00CB01CC018E018F014C08F3004B081B
:1001C800F2004A08F1004908F00000300A128A11CA
:1001D800FE210A128A11730883120313A7007208FA
:1001E800A6007108A5007008A4003F30A300803065
:1001F800A2000030A1000030A0000A128A11AE242B
:100208000A128A11831203132308BD002208BC00B6
:100218002108BB002008BA000A128A1186210A1296
:100228008A11831203133D08C7003C08C6003B0827
:10023800C5003A08C40008000030FC000030FB008C
:100248000030FA000030F900730872047104700479
:1002580003192F2930297D29FD01FD0A4029013084
:10026800F8000310F00DF10DF20DF30DF80B352920
:100278000130F8007808FD07F31F43294429332982
:100288000130F8000310F90DFA0DFB0DFC0DF80B09
:10029800462973087702031D5B2972087602031D3D
:1002A8005B2971087502031D5B2970087402031C21
:1002B8005E295F296E297008F4027108031C710F0A
:1002C800F5027208031C720FF6027308031C730F01
:1002D800F702791401300310F30CF20CF10CF00C56
:1002E800FF3E031D6F290130FD02031D7C297D2976
:1002F80044297C08F3007B08F2007A08F1007908A9
:10030800F00008000310831203133C0D3D0DC300D9
:100318004308031D902991299A290030BD00003017
:10032800BC000030BB000030BA00FD293A08BE000E
:100338003B08BF003C08C0003D08C1001F30031047
:10034800C10CC00CBF0CBE0CFF3E031DA3293E0808
:10035800C200BC17FF30BA05FF30BB05FF30BC0533
:100368000030BD059630C302C31FBB29BC29D6295E
:100378004308803A973E0318C229C329C429912902
:1003880001300310BD0CBC0CBB0CBA0CFF3E031DA6
:10039800C5290130BE003E08C307031DD429D5294D
:1003A800C429ED2920304302031CDB29DC29E82974
:1003B80091290130BE000310BA0DBB0DBC0DBD0D57
:1003C800BE0BDF290130C3024308031DEC29ED29C8
:1003D800DD2942080319F129F229FD29BA09BB09C7
:1003E800BC09BD09BA0A0319BB0A0319BC0A0319D7
:1003F800BD0A0800F80078080319032A042A182AF5
:10040800F31F072A082A182A7009FA007109FB0045
:100418007209FC007309FD00FA0A0319FB0A0319A3
:10042800FC0A0319FD0A202A7308FD007208FC0063
:100438007108FB007008FA007308720471047004F4
:10044800031D272A282A312A0030F3000030F20041
:100458000030F1000030F000B52A9630F900412A4A
:100468000130F4007408F90701300310FD0CFC0C8E
:10047800FB0CFA0CFF3E031D392AFE307D05031DD7
:10048800462A472A342A632A0130F4007408F907F7
:100498000130FA07003003180130FB070030031859
:1004A8000130FC07003003180130FD07013003104C
:1004B800FD0CFC0CFB0CFA0CFF3E031D5B2AFF3005
:1004C8007D05031D682A692A482A752A0130F90220
:1004D8000130F4000310FA0DFB0DFC0DFD0DF40BBB
:1004E8006E2AFC1B782A792A7F2A0230790203189F
:1004F8007E2A7F2A6A2A7918822A832A8B2AFF3041
:10050800FA05FF30FB057F30FC05FF30FD050310C1
:10051800F90C7908F400F501F601F7011830031019
:10052800F40DF50DF60DF70DFF3E031D932A740823
:10053800FA047508FB047608FC047708FD047808BB
:100548000319A72AA82AAD2AF31FAB2AAC2AAD2A79
:10055800FD177D08F3007C08F2007B08F1007A089B
:10056800F00008000A128A150E260A128A1183164C
:10057800031388010A128A1540270A128A110A12DF
:100588008A15F7250A128A110A128A1501260A12F3
:100598008A11F401F40A01300A128A15FA260A129D
:1005A8008A112930F5008030F6000A128A15B8261B
:1005B8000A128A110A128A11BD200A128A1183129C
:1005C80003134708DB004608DA004508D900440849
:1005D800D8000A128A115A200A128A1183120313A8
:1005E8004708D3004608D2004508D1004408D00087
:1005F8000A128A159D270A128A11831203134708C3
:10060800D7004608D6004508D5004408D40039303C
:10061800AA005B08AE005A08AD005908AC0058089B
:10062800AB0069300A128A1185230A128A113930FF
:1006380083120313AA005708AE005608AD005508E8
:10064800AC005408AB0065300A128A1185230A12DF
:100658008A11393083120313AA005308AE005208D6
:10066800AD005108AC005008AB0061300A128A1185
:1006780085230A128A11F401F40A02300A128A1533
:10068800FA260A128A116930F5000030F6000A12BB
:100698008A15B8260A128A110630F40002300A12A6
:1006A8008A15FA260A128A116130F5000030F60020
:1006B8000A128A15B8260A128A110C30F400023080
:1006C8000A128A15FA260A128A116530F5000030D6
:1006D800F6000A128A15B8260A128A1109308312FE
:1006E8000313CF001E30CE00E330CD00CD0B7A2BA4
:1006F800CE0B7A2BCF0B7A2B812BC82A0A128A11A0
:10070800002883120313BC002B30BB00992C253022
:100718003D060319902B912B9B2B3C0884003D0828
:10072800831380000130AF002F08BC07992CB40157
:10073800A42B3416A42BC030AF002F08B404C12B4F
:100748000130AA07FF302A0784000A128A150A20F6
:100758000A128A11BD00AF00B0013008003A03192F
:10076800B62B992C2F08003A0319A92C6C3A0319B7
:100778009D2B193A03199F2B992C341EC42BC52B7A
:10078800D82B3B08840083130008B700840A0008AC
:10079800B800840A0008B900840A0008BA000430C6
:1007A800AF002F08BB07EA2B3B088400831300081F
:1007B800AF00840A0008B0002F08B7003008B8005E
:1007C800B901BA010230AF002F08BB07BD01BD0A4D
:1007D8003D08AF0001300310AF0DFF3E031DEF2BA6
:1007E80003102F0D013E84000A128A150A200A12EE
:1007F8008A11B0000A128A150A200A128A11B10059
:100808000A128A150A200A128A11B2000A128A15D7
:100818000A200A128A11B30033083A02031D1E2C5B
:1008280032083902031D1E2C31083802031D1E2C04
:10083800300837020318212C222C232C2D2C0130B0
:10084800AF002F08BD070A303D06031D2C2C2D2CA8
:10085800EC2B3D08AF00B0012F08B5003008B600FA
:100868008B2C0030A3000030A2000030A1000A3019
:10087800A0003508AF0001300310AF0DFF3E031D87
:10088800402C03102F0D013E84000A128A150A20FD
:100898000A128A11F0000A128A150A200A128A110D
:1008A800F1000A128A150A200A128A11F2000A12A5
:1008B8008A150A200A128A11F3003A08F700390843
:1008C800F6003808F5003708F4000A128A112021CA
:1008D8000A128A11730883120313A7007208A6006C
:1008E8007108A5007008A4000A128A1104200A12CF
:1008F8008A11831203132008303EBD003C0884008F
:100908003D08831380000130AF002F08BC07FF307B
:10091800B5070318B60AFF30B607350A031D982C29
:10092800360A031D982C992C352C0130AA07FF3064
:100938002A0784000A128A150A200A128A11BD00A1
:100948003D08031DA82CA92C8B2B3C08840083137D
:10095800800108008312031323088039AD0023089F
:10096800A8002807B300A21FBA2CBB2CBC2C331438
:1009780033080319C02CC12CD02C330A031DC52CF5
:10098800C62CCE2C0030A3000030A2000030A100FD
:100998000030A000A217D82C0030A3000030A2001D
:1009A8000030A1000030A00027088039A8002808DE
:1009B800AD062708A8002807B200A61FE42CE52CDE
:1009C800E62C321432080319EA2CEB2CFA2C320AE2
:1009D800031DEF2CF02CF82C0030A7000030A600E7
:1009E8000030A5000030A400A617022D0030A70093
:1009F8000030A6000030A5000030A400320803191A
:100A0800062D072D0C2D3308031D0B2D0C2D152D30
:100A18000030A3000030A2000030A1000030A00088
:100A2800F22F2008F00026080A128A155C260A12FE
:100A38008A11710883120313B9007008B8003808C6
:100A4800A800A901AA01AB012B08B1002A08B0002F
:100A58002908AF002808AE003908A800A901AA0192
:100A6800AB012B08B7002A08B6002908B5002808EA
:100A7800B4002108F00025080A128A155C260A121B
:100A88008A11710883120313B9007008B800380876
:100A9800A800A901AA01AB012808AE07290803117B
:100AA8000318013E0319592DAF072A08031103182B
:100AB800013E0319602DB0072B0803110318013EEE
:100AC8000319672DB1073908A800A901AA01AB01CC
:100AD8002808B407290803110318013E0319752DC6
:100AE800B5072A0803110318013E03197C2DB60720
:100AF8002B0803110318013E0319832DB707220899
:100B0800F00024080A128A155C260A128A11710854
:100B180083120313B9007008B8003808A800A901A7
:100B2800AA01AB012808AE07290803110318013EE2
:100B380003199F2DAF072A0803110318013E031953
:100B4800A62DB0072B0803110318013E0319AD2D7C
:100B5800B1073908A800A901AA01AB012808B40700
:100B6800290803110318013E0319BB2DB5072A08EC
:100B780003110318013E0319C22DB6072B080311F0
:100B88000318013E0319C92DB7070830A800031040
:100B9800AE0DAF0DB00DB10DA80BCB2D2108F00097
:100BA80024080A128A155C260A128A11710883120F
:100BB8000313B9007008B8003808A8003908A9005C
:100BC800AA01AB012808AE07290803110318013E42
:100BD8000319EF2DAF072A0803110318013E031963
:100BE800F62DB0072B0803110318013E0319FD2D3C
:100BF800B1072008F00025080A128A155C260A1297
:100C08008A11710883120313B9007008B8003808F4
:100C1800A8003908A900AA01AB012808AE072908CD
:100C280003110318013E03191A2EAF072A080311EE
:100C38000318013E0319212EB0072B0803110318CE
:100C4800013E0319282EB1070830A8000310AE0D85
:100C5800AF0DB00DB10DA80B2A2E2008F000240806
:100C68000A128A155C260A128A1171088312031364
:100C7800B9007008B8003808A8003908A900AA0106
:100C8800AB012808AE07290803110318013E031910
:100C98004E2EAF072A0803110318013E0319552EDB
:100CA800B0072B0803110318013E03195C2EB10786
:100CB8002108F00026080A128A155C260A128A11F1
:100CC800710883120313B9007008B8003808A80027
:100CD8003908A900AA01AB012808B407290803119B
:100CE8000318013E0319792EB5072A0803110318C2
:100CF800013E0319802EB6072B0803110318013E85
:100D08000319872EB7072208F00025080A128A154A
:100D18005C260A128A11710883120313B90070083D
:100D2800B8003808A8003908A900AA01AB012808AA
:100D3800B407290803110318013E0319A42EB507A7
:100D48002A0803110318013E0319AB2EB6072B0816
:100D580003110318013E0319B22EB7072208F00049
:100D680026080A128A155C260A128A11710883124B
:100D78000313B9007008B8003808A8003908A9009A
:100D8800AA01AB0108300310A80DA90DAA0DAB0DDF
:100D9800FF3E031DC72E2808B407290803110318AE
:100DA800013E0319D82EB5072A0803110318013E7E
:100DB8000319DF2EB6072B0803110318013E031988
:100DC800E62EB7072E08A8002F08A9003008AA00A9
:100DD8003108AB0018300310AB0CAA0CA90CA80CF6
:100DE800FF3E031DEF2E2808B40729080311031836
:100DF800013E0319002FB5072A0803110318013E05
:100E08000319072FB6072B0803110318013E03190E
:100E18000E2FB7070830A8000310AE0DAF0DB00DA8
:100E2800B10DA80B102F33083207A800A901A90D8E
:100E38002808823EB80029080318013EFF3EB90081
:100E4800422F0130A8000310B40DB50DB60DB70D33
:100E5800A80B272FB11F312F322F332F3414013015
:100E6800A8000310AE0DAF0DB00DB10DA80B352FB6
:100E7800FF30B8070318B90AFF30B907B61F452F66
:100E8800462F252FB201B11F4A2F4B2F672FFF3056
:100E98002E05A800FF302F05A900FF303005AA0055
:100EA8007F303105AB002B082A04290428040319D4
:100EB8005E2F5F2F622FB201B20A672F341C652F95
:100EC800662F672F5F2F320803196B2F6C2F9D2F0A
:100ED8000130B407003003180130B507003003189B
:100EE8000130B607003003180130B707371C7D2FD3
:100EF8007E2F9D2F3408A8003508A9003608AA00BF
:100F08003708AB000130AC002B0DAB0CAA0CA90CB8
:100F1800A80CAC0B882F2B08B7002A08B6002908A4
:100F2800B5002808B4000130B8070318B90A003022
:100F3800B9073908803AFF0080307F02031DA62FC9
:100F4800FF303802031CA92FAA2FB52F7F30831238
:100F58000313B7008030B6000030B5000030B4008D
:100F6800E62F831203133908803AFF0080307F028E
:100F7800031DC02F013038020318C32FC42FD02FF0
:100F8800003083120313B7000030B6000030B500FC
:100F98000030B400AD01E62F831203133808B30004
:100FA800FF30B405FF30B5057F30B6050030B70512
:100FB800331CDF2FE02FE12FB6173308A8000310EA
:100FC800280CB7002D08A8002808B7043708A30084
:100FD8003608A2003508A1003408A00008008313D1
:100FE800503084006D300A128A15EF250A128A11D2
:100FF80083010A128A11B62AFF1B0A2883137F1855
:1010080083170008840A0319FF0A080008308A00B9
:101018000408840A820700340134003400340034A0
:101028000A340034003400346434003400340034AA
:10103800E8340334003400341034273400340034E6
:10104800A034863401340034403442340F34003440
:1010580080349634983400340034E134F53405345F
:101068000034CA349A343B3452344F344A344F34FF
:1010780020345634453452344434453420344134D1
:101088005A3455344C34003425346C3475340034B7
:101BDE0064008001840A0406031900340406F02D03
:101BEE008312031390101008CF391038900010157F
:101BFE001010080000300A128A1520260A128A15C3
:101C0E0001300A128A1520260A128A150800831638
:101C1E00031788018901023083160313850088019A
:101C2E008312031388017030831603138F040F146D
:101C3E000800F30083120313081173080A128A15A1
:101C4E003A260A128A158312031388150B30F200F6
:101C5E006230F100F10B312EF20B312E00008312A7
:101C6E00031388110800F000701C3E2E3F2E432EE9
:101C7E00831203130816462E831203130812F01C48
:101C8E00492E4A2E4C2E88164D2E8812701D502E1F
:101C9E00512E532E0817542E0813F01D572E582E62
:101CAE005A2E88175B2E88130800F800F401F501F0
:101CBE007008F200F3017208F6007308F700781C42
:101CCE00692E6A2E702E7608F4070318F50A770827
:101CDE00F50701300310F60DF70DFF3E031D712EB3
:101CEE000310F80C7808031D7D2E7E2E662E7508C7
:101CFE00F1007408F0000800F40074080F39F200C7
:101D0E007408F039F3008312031308157308F100F9
:101D1E0004300310F10CFF3E031D902E71080A12C1
:101D2E008A153A260A128A158312031388151A3059
:101D3E00F100F10BA02E000083120313881172081C
:101D4E000A128A153A260A128A1583120313881567
:101D5E001A30F100F10BB12E00008312031388111B
:101D6E000800FA01FB01DD2E7A087507F8007608E7
:101D7E00F7000318F70AFA1FC52EF7037708F900C4
:101D8E00790883120313FF00780884000A128A155B
:101D9E0000200A128A150A128A1583260A128A153B
:101DAE000130FA070318FB0A0030FB077A087507A3
:101DBE00F8007608F7000318F70AFA1FE72EF70364
:101DCE007708F900790883120313FF00780884005E
:101DDE000A128A1500200A128A15003A031DF82EDF
:101DEE00F92EBB2E0800F6007603031DFF2E002FE2
:101DFE001D2F74087F3EF9007908F500043003109A
:101E0E00F50CFF3E031D062F7508F70079080F39F4
:101E1E00F80077080A128A1520260A128A15780801
:101E2E000A128A1520260A128A153F2F02307606CC
:101E3E00031D222F232F3F2F7408BF3EF900790870
:101E4E00F50004300310F50CFF3E031D292F750815
:101E5E00F70079080F39F80077080A128A1520263C
:101E6E000A128A1578080A128A1520260A128A156D
:101E7E00080000300A128A153A260A128A153430E2
:101E8E00F500F130F400F40B4A2FF50B4A2F4F2FCB
:101E9E0003300A128A1520260A128A150D30F50013
:101EAE00FB30F400F40B592FF50B592F5E2F033036
:101EBE000A128A1520260A128A151D30F500913055
:101ECE00F400F40B682FF50B682F03300A128A15F5
:101EDE0020260A128A1502300A128A1520260A12A4
:101EEE008A1502300A128A1520260A128A1508301F
:101EFE000A128A1520260A128A1500300A128A152D
:101F0E0020260A128A150C300A128A1520260A1269
:101F1E008A1500300A128A1520260A128A150630F2
:101F2E000A128A1520260A128A1508008312031334
:101F3E0008108814133083120313C800C80BA52F82
:101F4E00831203138518AC2FAD2FA72F851CB02F2E
:101F5E00B12FAD2F8E018F0110148518B72FB82F0A
:101F6E00B42F0E08C9000F08CA00CB01CC01101007
:101F7E008E018F014C08F3004B08F2004A08F10065
:101F8E004908F00000300A128A11FE210A128A1541
:101F9E00730883120313A7007208A6007108A50028
:101FAE007008A4003F30A3008030A2000030A100D2
:101FBE000030A0000A128A11AE240A128A1583126A
:101FCE0003132308BD002208BC002108BB00200813
:101FDE00BA000A128A1186210A128A158312031375
:101FEE003D08C7003C08C6003B08C5003A08C400BF
:021FFE000800D9
:08400000FF3FFF3FFF3FFF3FC0
:04400E00D420FF3F7C
:00000001FF
