:060000000A128A110C280F
:10000800FE00030EF1000A08F2000A128A11792F85
:100018000A128A110F28FA0183120313E301E4017B
:10002800E501E601E701E801E901EA01EB01EC017C
:10003800ED01EE0183160313A001A101A201A301A2
:1000480083010A128A116D2B831203132D0880393C
:10005800B7002D08B2003207BD00AC1F3428352880
:1000680036283D143D0803193A283B284A283D0AFA
:10007800031D3F28402848280030AD000030AC0060
:100088000030AB000030AA00AC1752280030AD0099
:100098000030AC000030AB000030AA0031088039D5
:1000A800B2003208B7063108B2003207BC00B01FF0
:1000B8005E285F2860283C143C08031964286528DA
:1000C80074283C0A031D69286A2872280030B10088
:1000D8000030B0000030AF000030AE00B0177C2810
:1000E8000030B1000030B0000030AF000030AE008A
:1000F8003C0803198028812886283D08031D852887
:1001080086288F280030AD000030AC000030AB00EE
:100118000030AA006C2B2A08F30030080A128A1152
:10012800D6270A128A11740883120313C3007308AE
:10013800C2004208B200B301B401B5013508BB00E2
:100148003408BA003308B9003208B8004308B200CE
:10015800B301B401B5013508C1003408C000330843
:10016800BF003208BE002B08F3002F080A128A11BC
:10017800D6270A128A11740883120313C30073085E
:10018800C2004208B200B301B401B5013208B80791
:10019800330803110318013E0319D328B90734089B
:1001A80003110318013E0319DA28BA0735080311A9
:1001B8000318013E0319E128BB074308B200B30145
:1001C800B401B5013208BE07330803110318013E14
:1001D8000319EF28BF07340803110318013E031958
:1001E800F628C007350803110318013E0319FD2836
:1001F800C1072C08F3002E080A128A11D6270A1202
:100208008A11740883120313C3007308C2004208DA
:10021800B200B301B401B5013208B80733080311BD
:100228000318013E03191929B907340803110318E3
:10023800013E03192029BA07350803110318013EA6
:1002480003192729BB074308B200B301B401B5015C
:100258003208BE07330803110318013E0319352974
:10026800BF07340803110318013E03193C29C007CE
:10027800350803110318013E03194329C107083043
:10028800B2000310B80DB90DBA0DBB0DB20B45295C
:100298002B08F3002E080A128A11D6270A128A118F
:1002A800740883120313C3007308C2004208B20023
:1002B8004308B300B401B5013208B8073308031185
:1002C8000318013E03196929B907340803110318F3
:1002D800013E03197029BA07350803110318013EB6
:1002E80003197729BB072A08F3002F080A128A1175
:1002F800D6270A128A11740883120313C3007308DD
:10030800C2004208B2004308B300B401B501320884
:10031800B807330803110318013E03199429B907D4
:10032800340803110318013E03199B29BA0735083D
:1003380003110318013E0319A229BB070830B200B4
:100348000310B80DB90DBA0DBB0DB20BA4292A08BC
:10035800F3002E080A128A11D6270A128A11740885
:1003680083120313C3007308C2004208B200430893
:10037800B300B401B5013208B807330803110318F4
:10038800013E0319C829B907340803110318013EAF
:100398000319CF29BA07350803110318013E0319B9
:1003A800D629BB072B08F30030080A128A11D62772
:1003B8000A128A11740883120313C3007308C20057
:1003C8004208B2004308B300B401B5013208BE07C1
:1003D800330803110318013E0319F329BF07340832
:1003E80003110318013E0319FA29C0073508031140
:1003F8000318013E0319012AC1072C08F3002F082E
:100408000A128A11D6270A128A1174088312031352
:10041800C3007308C2004208B2004308B300B40125
:10042800B5013208BE07330803110318013E03194A
:100438001E2ABF07340803110318013E0319252A91
:10044800C007350803110318013E03192C2AC107F8
:100458002C08F30030080A128A11D6270A128A11CA
:10046800740883120313C3007308C2004208B20061
:100478004308B300B401B50108300310B20DB30D41
:10048800B40DB50DFF3E031D412A3208BE073308DF
:1004980003110318013E0319522ABF073408031138
:1004A8000318013E0319592AC00735080311031818
:1004B800013E0319602AC1073808B2003908B300A1
:1004C8003A08B4003B08B50018300310B50CB40C5A
:1004D800B30CB20CFF3E031D692A3208BE0733086D
:1004E80003110318013E03197A2ABF0734080311C0
:1004F8000318013E0319812AC007350803110318A0
:10050800013E0319882AC1070830B2000310B80D4C
:10051800B90DBA0DBB0DB20B8A2A3D083C07B200D3
:10052800B301B30D3208823EC20033080318013EFE
:10053800FF3EC300BC2A0130B2000310BE0DBF0D40
:10054800C00DC10DB20BA12ABB1FAB2AAC2AAD2A24
:100558003E140130B2000310B80DB90DBA0DBB0D31
:10056800B20BAF2AFF30C2070318C30AFF30C30714
:10057800C01FBF2AC02A9F2ABC01BB1FC42AC52A84
:10058800E12AFF303805B200FF303905B300FF30EB
:100598003A05B4007F303B05B50035083404330410
:1005A80032040319D82AD92ADC2ABC01BC0AE12A58
:1005B8003E1CDF2AE02AE12AD92A3C080319E52A49
:1005C800E62A172B0130BE07003003180130BF0799
:1005D800003003180130C007003003180130C1078C
:1005E800411CF72AF82A172B3E08B2003F08B3002F
:1005F8004008B4004108B5000130B600350DB50C0F
:10060800B40CB30CB20CB60B022B3508C10034087D
:10061800C0003308BF003208BE000130C20703180B
:10062800C30A0030C3074308803AFF0080307F02C6
:10063800031D202BFF304202031C232B242B2F2BBE
:100648007F3083120313C1008030C0000030BF0028
:100658000030BE00602B831203134308803AFF006A
:1006680080307F02031D3A2B0130420203183D2BD4
:100678003E2B4A2B003083120313C1000030C00008
:100688000030BF000030BE00B701602B8312031397
:100698004208BD00FF30BE05FF30BF057F30C005F2
:1006A8000030C1053D1C592B5A2B5B2BC0173D0848
:1006B800B2000310320CC1003708B2003208C1047E
:1006C8004108AD004008AC003F08AB003E08AA0056
:1006D80008000A128A15CE270A128A1183160313F4
:1006E80088010A128A15C4270A128A110A128A1165
:1006F80053260A128A11831203134F08E2004E0888
:10070800E1004D08E0004C08DF000A128A11B52606
:100718000A128A11831203134F08DA004E08D9000F
:100728004D08D8004C08D7000A128A1117270A1258
:100738008A11831203134F08DE004E08DD004D08AE
:10074800DC004C08DB006208031DB72B6108031DA1
:10075800B72B6008031DB72BB9305F02031DB42BFC
:100768000318B72BB82B1C2C831203136208031D24
:10077800CB2B6108031DCB2B6008031DCB2BAB30A3
:100788005F02031DC72B031CCA2BCB2B1C2C831207
:1007980003135A08031DDD2B5908031DDD2B5808C8
:1007A800031DDD2BDC305702031DDA2B0318DD2B6C
:1007B800DE2B1C2C831203135A08031DF12B590836
:1007C800031DF12B5808031DF12BD3305702031DCD
:1007D800ED2B031CF02BF12B1C2C831203135E084A
:1007E800031D032C5D08031D032C5C08031D032C4B
:1007F80046305B02031D002C0318032C042C1C2C10
:10080800831203135E08031D172C5D08031D172CA4
:100818005C08031D172C3D305B02031D132C031CC1
:10082800162C172C1C2C83120313EE01EE0A0E2D26
:10083800831203136208031D2E2C6108031D2E2C3E
:100848006008031D2E2CC3305F02031D2B2C0318D8
:100858002E2C2F2C932C831203136208031D422C79
:100868006108031D422C6008031D422CB5305F024D
:10087800031D3E2C031C412C422C932C8312031382
:100888005A08031D542C5908031D542C5808031DDD
:10089800542CEB305702031D512C0318542C552CA3
:1008A800932C831203135A08031D682C5908031D3F
:1008B800682C5808031D682CDD305702031D642C72
:1008C800031C672C682C932C831203135E08031DEA
:1008D8007A2C5D08031D7A2C5C08031D7A2C4430A1
:1008E8005B02031D772C03187A2C7B2C932C831224
:1008F80003135E08031D8E2C5D08031D8E2C5C08F7
:10090800031D8E2C33305B02031D8A2C031C8D2C97
:100918008E2C932C023083120313EE000E2D8312BB
:1009280003136208031DA52C6108031DA52C60088C
:10093800031DA52C82305F02031DA22C0318A52CD1
:10094800A62C0B2D831203136208031DB92C610812
:10095800031DB92C6008031DB92C74305F02031DF8
:10096800B52C031CB82CB92C0B2D831203135A0871
:10097800031DCC2C5908031DCC2C01305802031D33
:10098800C92C04305702031DC92C0318CC2CCD2CBC
:100998000B2D831203135A08031DE02C5908031D5D
:1009A800E02C5808031DE02CF1305702031DDC2C05
:1009B800031CDF2CE02C0B2D831203135E08031D90
:1009C800F22C5D08031DF22C5C08031DF22C443048
:1009D8005B02031DEF2C0318F22CF32C0B2D831252
:1009E80003135E08031D062D5D08031D062D5C0814
:1009F800031D062D33305B02031D022D031C052D3C
:100A0800062D0B2D033083120313EE000E2D8312D7
:100A18000313EE01023083120313D6000430D5000D
:100A2800B930D400D40B162DD50B162DD60B162D98
:100A38001D2D7A2B0A128A110C2883120313A40085
:100A480024080319282D292D3D2DF61F2C2D2D2D79
:100A58003D2D7309A6007409A7007509A800760939
:100A6800A900A60A0319A70A0319A80A0319A90ABB
:100A7800452D7608A9007508A8007408A700730812
:100A8800A6007608750474047304031D4C2D4D2DBF
:100A9800562D0030F6000030F5000030F40000302C
:100AA800F300DA2D9630A500662D0130A00020084D
:100AB800A50701300310A90CA80CA70CA60CFF3E33
:100AC800031D5E2DFE302905031D6B2D6C2D592D40
:100AD800882D0130A0002008A5070130A6070030A6
:100AE80003180130A707003003180130A8070030A9
:100AF80003180130A90701300310A90CA80CA70C92
:100B0800A60CFF3E031D802DFF302905031D8D2DEA
:100B18008E2D6D2D9A2D0130A5020130A0000310F5
:100B2800A60DA70DA80DA90DA00B932DA81B9D2DF3
:100B38009E2DA42D023025020318A32DA42D8F2D40
:100B48002518A72DA82DB02DFF30A605FF30A70525
:100B58007F30A805FF30A9050310A50C2508A000C3
:100B6800A101A201A30118300310A00DA10DA20D2F
:100B7800A30DFF3E031DB82D2008A6042108A704D5
:100B88002208A8042308A90424080319CC2DCD2D74
:100B9800D22DF61FD02DD12DD22DA9172908F60058
:100BA8002808F5002708F4002608F30008000310B9
:100BB80083120313460D470DF8007808031DE52D31
:100BC800E62DEF2D0030C7000030C6000030C5000C
:100BD8000030C400522E4408C8004508C900460821
:100BE800CA004708CB001F300310CB0CCA0CC90C35
:100BF800C80CFF3E031DF82D4808F700C617FF3044
:100C0800C405FF30C505FF30C6050030C70596305E
:100C1800F802F81F102E112E2B2E7808803A973ED6
:100C28000318172E182E192EE62D01300310C70CA5
:100C3800C60CC50CC40CFF3E031D1A2E0130C8009B
:100C48004808F807031D292E2A2E192E422E203077
:100C58007802031C302E312E3D2EE62D0130C800BF
:100C68000310C40DC50DC60DC70DC80B342E0130B9
:100C7800F8027808031D412E422E322E77080319F8
:100C8800462E472E522EC409C509C609C709C40AEB
:100C98000319C50A0319C60A0319C70A08008312EB
:100CA8000313081088101330F900F90B592E5C2E25
:100CB800831203138518612E622E5C2E851C652E07
:100CC800662E622E8E018F01101485186C2E6D2EE3
:100CD800692E10100E08D0000F08D100D201D301E0
:100CE8008E018F015308F6005208F5005108F400F0
:100CF8005008F30000300A128A1121250A128A11BD
:100D0800760883120313B1007508B0007408AF00A9
:100D18007308AE003F30AD008030AC000030AB004F
:100D28000030AA000A128A1128200A128A11831296
:100D380003132D08C7002C08C6002B08C5002A0875
:100D4800C4000A128A11DB250A128A1183120313BE
:100D58004708CF004608CE004508CD004408CC001F
:100D6800080083120313081488141330F900F90BD0
:100D7800BB2EBE2E831203138518C32EC42EBE2E7F
:100D8800851CC72EC82EC42E8E018F0110148518FD
:100D9800CE2ECF2ECB2E10100E08D0000F08D1006B
:100DA800D201D3018E018F015308F6005208F500D5
:100DB8005108F4005008F30000300A128A11212566
:100DC8000A128A11760883120313B1007508B0005D
:100DD8007408AF007308AE003F30AD008030AC003F
:100DE8000030AB000030AA000A128A1128200A122B
:100DF8008A11831203132D08C7002C08C6002B087C
:100E0800C5002A08C4000A128A11DB250A128A11B1
:100E1800831203134708CF004608CE004508CD00CB
:100E28004408CC00080083120313081088141330F8
:100E3800F900F90B1D2F202F831203138518252F76
:100E4800262F202F851C292F2A2F262F8E018F0130
:100E580010148518302F312F2D2F0E08D0000F08B1
:100E6800D100D201D30110108E018F015308F60072
:100E78005208F5005108F4005008F30000300A1237
:100E88008A1121250A128A11760883120313B100E8
:100E98007508B0007408AF007308AE003F30AD00AD
:100EA8008030AC000030AB000030AA000A128A1172
:100EB80028200A128A11831203132D08C7002C0850
:100EC800C6002B08C5002A08C4000A128A11DB25AF
:100ED8000A128A11831203134708CF004608CE006E
:100EE8004508CD004408CC000800831203138C1D6C
:100EF8007E2F7F2FCF2F1412141B832F842F882F20
:100F0800941F872F882F8D2F1308FA00141394131A
:100F1800141683160313941A922F932FAD2F1419B6
:100F2800962F972FAD2F831203131308FA008C11F5
:100F3800141683160313141CA22FA32F9D2F83129C
:100F4800031313088800A630F000F00BA92F000047
:100F5800CC2F941AB02FB12FCC2F141DB42FB52F2E
:100F6800CC2F831203131308FA00831603131410EB
:100F7800831203136E0893001416A630F000F00BCA
:100F8800C32F0000831603131418CB2FCC2FC62FA2
:100F9800831203138C1172088A00710E8300FE0EEF
:100FA8007E0E090083120313A400A001A101730897
:100FB800F500F6017508A2007608A300241CE52FA9
:100FC800E62FEC2F2208A0070318A10A2308A1077F
:100FD80001300310A20DA30DFF3E031DED2F0310DA
:100FE800A40C2408031DF92FFA2FE22F2108F4007E
:060FF8002008F3000800D0
:101F88008312031390101008CF39103890001015E1
:101F98001010080083160317880189010230831680
:101FA8000313850088018312031388017030831698
:101FB80003138F040F1430300A128A15E6270A1209
:101FC8008A150800F300730883160313930036304C
:101FD8008312031394008030831603139400013096
:101FE8009100871507168B170B17831203138C1193
:081FF800831603138C15080089
:08400000FF3FFF3FFF3FFF3FC0
:04400E00D420FF3F7C
:00000001FF
