:060000000A128A11F32F21
:10000E00F6007603031D0C280D282A2874087F3E5F
:10001E00F9007908F50004300310F50CFF3E031DBE
:10002E0013287508F70079080F39F80077080A12B7
:10003E008A156C240A128A1178080A128A156C2401
:10004E000A128A114C2802307606031D2F283028FA
:10005E004C287408BF3EF9007908F50004300310EF
:10006E00F50CFF3E031D36287508F70079080F3989
:10007E00F80077080A128A156C240A128A11780879
:10008E000A128A156C240A128A110800F8007808E0
:10009E000319522853286728F31F56285728672814
:1000AE007009FA007109FB007209FC007309FD006A
:1000BE00FA0A0319FB0A0319FC0A0319FD0A6F2831
:1000CE007308FD007208FC007108FB007008FA004E
:1000DE007308720471047004031D76287728802833
:1000EE000030F3000030F2000030F1000030F0007C
:1000FE0004299630F90090280130F4007408F907AD
:10010E0001300310FD0CFC0CFB0CFA0CFF3E031D22
:10011E008828FE307D05031D952896288328B22851
:10012E000130F4007408F9070130FA0700300318A3
:10013E000130FB07003003180130FC0700300318B4
:10014E000130FD0701300310FD0CFC0CFB0CFA0C0A
:10015E00FF3E031DAA28FF307D05031DB728B828D2
:10016E009728C4280130F9020130F4000310FA0D6B
:10017E00FB0DFC0DFD0DF40BBD28FC1BC728C8287C
:10018E00CE28023079020318CD28CE28B928791846
:10019E00D128D228DA28FF30FA05FF30FB057F3050
:1001AE00FC05FF30FD050310F90C7908F400F5018C
:1001BE00F601F70118300310F40DF50DF60DF70DDD
:1001CE00FF3E031DE2287408FA047508FB04760846
:1001DE00FC047708FD0478080319F628F728FC2894
:1001EE00F31FFA28FB28FC28FD177D08F3007C0876
:1001FE00F2007B08F1007A08F00008008312031366
:10020E00BC002B30BB00192A25303D0603191029DE
:10021E0011291B293C0884003D08831380000130FE
:10022E00AF002F08BC07192AB4012429341624293B
:10023E00C030AF002F08B40441290130AA07FF30A7
:10024E002A0784000A128A150A200A128A11BD0092
:10025E00AF00B0013008003A03193629192A2F08C9
:10026E00003A0319292A6C3A03191D29193A031960
:10027E001F29192A341E4429452958293B08840070
:10028E0083130008B700840A0008B800840A000827
:10029E00B900840A0008BA000430AF002F08BB076B
:1002AE006A293B08840083130008AF00840A000803
:1002BE00B0002F08B7003008B800B901BA010230FB
:1002CE00AF002F08BB07BD01BD0A3D08AF000130CE
:1002DE000310AF0DFF3E031D6F2903102F0D013EBE
:1002EE0084000A128A150A200A128A11B0000A1214
:1002FE008A150A200A128A11B1000A128A150A20DA
:10030E000A128A11B2000A128A150A200A128A11DA
:10031E00B30033083A02031D9E2932083902031D29
:10032E009E2931083802031D9E2930083702031812
:10033E00A129A229A329AD290130AF002F08BD079D
:10034E000A303D06031DAC29AD296C293D08AF00CE
:10035E00B0012F08B5003008B6000B2A0030A300FC
:10036E000030A2000030A1000A30A0003508AF0016
:10037E0001300310AF0DFF3E031DC02903102F0DDA
:10038E00013E84000A128A150A200A128A11F00010
:10039E000A128A150A200A128A11F1000A128A1507
:1003AE000A200A128A11F2000A128A150A200A126B
:1003BE008A11F3003A08F7003908F6003808F500FC
:1003CE003708F4000A128A1522270A128A117308B6
:1003DE0083120313A7007208A6007108A500700807
:1003EE00A4000A128A1546250A128A1183120313D3
:1003FE002008303EBD003C0884003D088313800079
:10040E000130AF002F08BC07FF30B5070318B60A3E
:10041E00FF30B607350A031D182A360A031D182A9F
:10042E00192AB5290130AA07FF302A0784000A12BB
:10043E008A150A200A128A11BD003D08031D282ABA
:10044E00292A0B293C0884008313800108000A1214
:10045E008A155A240A128A118316031388010A1266
:10046E008A159C250A128A110A128A1543240A1229
:10047E008A110A128A154D240A128A11F401F40AFD
:10048E0001300A128A1107200A128A112930F5004A
:10049E008030F6000A128A1504250A128A110A12F1
:1004AE008A15BF260A128A11831203134708DB002E
:1004BE004608DA004508D9004408D8000A128A1501
:1004CE005C260A128A11831203134708D3004608CA
:1004DE00D2004508D1004408D0000A128A15F92529
:1004EE000A128A11831203134708D7004608D60052
:1004FE004508D5004408D4005B08031D932A5A080A
:10050E00031D932A5908031D932A82305802031D96
:10051E00902A0318932A942A0A2B831203135B083A
:10052E00031DA72A5A08031DA72A5908031DA72A27
:10053E007B305802031DA32A031CA62AA72A0A2BC6
:10054E00831203135308031DB92A5208031DB92A37
:10055E005108031DB92A96305002031DB62A0318FE
:10056E00B92ABA2A0A2B831203135308031DCD2A64
:10057E005208031DCD2A5108031DCD2A8D3050027D
:10058E00031DC92A031CCC2ACD2A0A2B831203135E
:10059E005708031DDF2A5608031DDF2A5508031DC1
:1005AE00DF2A50305402031DDC2A0318DF2AE02A0A
:1005BE000A2B831203135708031DF32A5608031D33
:1005CE00F32A5508031DF32A42305402031DEF2A65
:1005DE00031CF22AF32A0A2B013083120313DF00C5
:1005EE000030E000F401F40A02300A128A110720EA
:1005FE000A128A113030F5008030F6000A128A1580
:10060E0004250A128A11831203135B08031D1C2B87
:10061E005A08031D1C2B5908031D1C2BB4305802FD
:10062E00031D192B03181C2B1D2B932B8312031345
:10063E005B08031D302B5A08031D302B5908031D70
:10064E00302BAB305802031D2C2B031C2F2B302BC1
:10065E00932B831203135308031D422B5208031DC1
:10066E00422B5108031D422BB9305002031D3F2B64
:10067E000318422B432B932B831203135308031D92
:10068E00562B5208031D562B5108031D562BAB300B
:10069E005002031D522B031C552B562B932B8312EA
:1006AE0003135708031D682B5608031D682B5508A6
:1006BE00031D682B4B305402031D652B0318682B4A
:1006CE00692B932B831203135708031D7C2B56089B
:1006DE00031D7C2B5508031D7C2B42305402031D39
:1006EE00782B031C7B2B7C2B932B02308312031352
:1006FE00DF000030E000F401F40A02300A128A1121
:10070E0007200A128A113B30F5008030F6000A12DB
:10071E008A1504250A128A11831203135B08031D1E
:10072E00A52B5A08031DA52B5908031DA52B6430B4
:10073E005802031DA22B0318A52BA62B1D2C8312CA
:10074E0003135B08031DB92B5A08031DB92B590857
:10075E00031DB92B47305802031DB52B031CB82BB4
:10076E00B92B1D2C831203135308031DCB2B5208D8
:10077E00031DCB2B5108031DCB2BD2305002031D72
:10078E00C82B0318CB2BCC2B1D2C83120313530811
:10079E00031DDF2B5208031DDF2B5108031DDF2B1A
:1007AE00A1305002031DDB2B031CDE2BDF2B1D2C77
:1007BE00831203135708031DF12B5608031DF12B4B
:1007CE005508031DF12B46305402031DEE2B031862
:1007DE00F12BF22B1D2C831203135708031D052C2E
:1007EE005608031D052C5508031D052C33305402E5
:1007FE00031D012C031C042C052C1D2C033083120D
:10080E000313DF000030E000F401F40A02300A1294
:10081E008A1107200A128A114030F5008030F60046
:10082E000A128A1504250A128A11322C8312031316
:10083E00DF01E001F401F40A02300A128A110720E6
:10084E000A128A113630F5008030F6000A128A1527
:10085E0004250A128A11453083120313AA005B087D
:10086E00AE005A08AD005908AC005808AB0069300C
:10087E000A128A1105210A128A11453083120313B6
:10088E00AA005708AE005608AD005508AC00540833
:10089E00AB0065300A128A1105210A128A11453001
:1008AE0083120313AA005308AE005208AD0051087C
:1008BE00AC005008AB0061300A128A1105210A12F1
:1008CE008A110630F40002300A128A1107200A1229
:1008DE008A116930F5000030F6000A128A150425D7
:1008EE000A128A110A30F40002300A128A11072005
:1008FE000A128A116130F5000030F6000A128A15CC
:10090E0004250A128A110E30F40002300A128A11DE
:10091E0007200A128A116530F5000030F6000A121F
:10092E008A1504250A128A11033083120313CF008D
:10093E000830CE007630CD00CD0BA32CCE0BA32CE1
:10094E00CF0BA32C0000402A0A128A110028831212
:10095E00031323088039AD002308A8002807B3002D
:10096E00A21FBA2CBB2CBC2C331433080319C02C79
:10097E00C12CD02C330A031DC52CC62CCE2C003016
:10098E00A3000030A2000030A1000030A000A2178A
:10099E00D82C0030A3000030A2000030A10000309F
:1009AE00A00027088039A8002808AD062708A8004F
:1009BE002807B200A61FE42CE52CE62C32143208D0
:1009CE000319EA2CEB2CFA2C320A031DEF2CF02C17
:1009DE00F82C0030A7000030A6000030A500003033
:1009EE00A400A617022D0030A7000030A60000308C
:1009FE00A5000030A40032080319062D072D0C2D7A
:100A0E003308031D0B2D0C2D152D0030A3000030C7
:100A1E00A2000030A1000030A000F22F2008F0004C
:100A2E0026080A128A15A8240A128A11710883123E
:100A3E000313B9007008B8003808A800A901AA016C
:100A4E00AB012B08B1002A08B0002908AF00280816
:100A5E00AE003908A800A901AA01AB012B08B70006
:100A6E002A08B6002908B5002808B4002108F000AD
:100A7E0025080A128A15A8240A128A1171088312EF
:100A8E000313B9007008B8003808A800A901AA011C
:100A9E00AB012808AE07290803110318013E0319FC
:100AAE00592DAF072A0803110318013E0319602DB3
:100ABE00B0072B0803110318013E0319672DB10768
:100ACE003908A800A901AA01AB012808B407290812
:100ADE0003110318013E0319752DB5072A080311DA
:100AEE000318013E03197C2DB6072B0803110318BA
:100AFE00013E0319832DB7072208F00024080A12BD
:100B0E008A15A8240A128A11710883120313B900D8
:100B1E007008B8003808A800A901AA01AB0128087E
:100B2E00AE07290803110318013E03199F2DAF07C5
:100B3E002A0803110318013E0319A62DB0072B082E
:100B4E0003110318013E0319AD2DB1073908A80092
:100B5E00A901AA01AB012808B4072908031103183B
:100B6E00013E0319BB2DB5072A0803110318013ED8
:100B7E000319C22DB6072B0803110318013E0319E2
:100B8E00C92DB7070830A8000310AE0DAF0DB00D7C
:100B9E00B10DA80BCB2D2108F00024080A128A15DE
:100BAE00A8240A128A11710883120313B90070085F
:100BBE00B8003808A8003908A900AA01AB01280816
:100BCE00AE07290803110318013E0319EF2DAF07D5
:100BDE002A0803110318013E0319F62DB0072B083E
:100BEE0003110318013E0319FD2DB1072008F00073
:100BFE0025080A128A15A8240A128A11710883126E
:100C0E000313B9007008B8003808A8003908A90005
:100C1E00AA01AB012808AE07290803110318013EEB
:100C2E0003191A2EAF072A0803110318013E0319E0
:100C3E00212EB0072B0803110318013E0319282E8D
:100C4E00B1070830A8000310AE0DAF0DB00DB10DF9
:100C5E00A80B2A2E2008F00024080A128A15A824B0
:100C6E000A128A11710883120313B9007008B800B2
:100C7E003808A8003908A900AA01AB012808AE0758
:100C8E00290803110318013E03194E2EAF072A0837
:100C9E0003110318013E0319552EB0072B0803113B
:100CAE000318013E03195C2EB1072108F000260837
:100CBE000A128A15A8240A128A11710883120313C4
:100CCE00B9007008B8003808A8003908A900AA01B0
:100CDE00AB012808B407290803110318013E0319B4
:100CEE00792EB5072A0803110318013E0319802E29
:100CFE00B6072B0803110318013E0319872EB707F9
:100D0E002208F00025080A128A15A8240A128A1150
:100D1E00710883120313B9007008B8003808A800D0
:100D2E003908A900AA01AB012808B4072908031144
:100D3E000318013E0319A42EB5072A080311031840
:100D4E00013E0319AB2EB6072B0803110318013E03
:100D5E000319B22EB7072208F00026080A128A15C8
:100D6E00A8240A128A11710883120313B90070089D
:100D7E00B8003808A8003908A900AA01AB0108304C
:100D8E000310A80DA90DAA0DAB0DFF3E031DC72E16
:100D9E002808B407290803110318013E0319D82E99
:100DAE00B5072A0803110318013E0319DF2EB607F3
:100DBE002B0803110318013E0319E62EB7072E0860
:100DCE00A8002F08A9003008AA003108AB0018307F
:100DDE000310AB0CAA0CA90CA80CFF3E031DEF2EA2
:100DEE002808B407290803110318013E0319002F20
:100DFE00B5072A0803110318013E0319072FB6077A
:100E0E002B0803110318013E03190E2FB7070830E4
:100E1E00A8000310AE0DAF0DB00DB10DA80B102F25
:100E2E0033083207A800A901A90D2808823EB80090
:100E3E0029080318013EFF3EB900422F0130A800D9
:100E4E000310B40DB50DB60DB70DA80B272FB11F9E
:100E5E00312F322F332F34140130A8000310AE0D72
:100E6E00AF0DB00DB10DA80B352FFF30B80703181D
:100E7E00B90AFF30B907B61F452F462F252FB201ED
:100E8E00B11F4A2F4B2F672FFF302E05A800FF30C2
:100E9E002F05A900FF303005AA007F303105AB00C9
:100EAE002B082A042904280403195E2F5F2F622FB2
:100EBE00B201B20A672F341C652F662F672F5F2F82
:100ECE00320803196B2F6C2F9D2F0130B4070030A1
:100EDE0003180130B507003003180130B607003093
:100EEE0003180130B707371C7D2F7E2F9D2F340836
:100EFE00A8003508A9003608AA003708AB00013053
:100F0E00AC002B0DAB0CAA0CA90CA80CAC0B882FAB
:100F1E002B08B7002A08B6002908B5002808B40027
:100F2E000130B8070318B90A0030B9073908803AFA
:100F3E00FF0080307F02031DA62FFF303802031CF6
:100F4E00A92FAA2FB52F7F3083120313B70080303D
:100F5E00B6000030B5000030B400E62F8312031344
:100F6E003908803AFF0080307F02031DC02F013008
:100F7E0038020318C32FC42FD02F0030831203134F
:100F8E00B7000030B6000030B5000030B400AD013F
:100F9E00E62F831203133808B300FF30B405FF3079
:100FAE00B5057F30B6050030B705331CDF2FE02FB7
:100FBE00E12FB6173308A8000310280CB7002D0830
:100FCE00A8002808B7043708A3003608A200350881
:100FDE00A1003408A00008008313503084006D3047
:100FEE000A128A153B240A128A1183010A128A11E7
:100FFE002E2AFF1B0A2883137F1883170008840AE2
:10100E000319FF0A080008308A000408840A8207C0
:10101E00003401340034003400340A340034003417
:10102E0000346434003400340034E83403340034C3
:10103E0000341034273400340034A03486340134A4
:10104E000034403442340F340034803496349834B3
:10105E0000340034E134F53405340034CA349A34A3
:10106E003B3443344F344C344F3452343A340034DE
:10107E005634453452344434453400344E344134BD
:10108E0044344134003441345A3455344C340034F1
:10109E0052344F344A344F34003425346C34753462
:0210AE0000340C
:1018760064008001840A04060319003404063C2C23
:101886008312031390101008CF39103890001015EA
:101896001010080000300A128A156C240A128A15E4
:1018A60001300A128A156C240A128A15080083165A
:1018B6000317880189010230831603138500880106
:1018C6008312031388017030831603138F040F14D9
:1018D6000800F30083120313081173080A128A150D
:1018E60086240A128A158312031388150B30F20018
:1018F6006230F100F10B7D2CF20B7D2C000083127F
:10190600031388110800F000701C8A2C8B2C8F2C76
:10191600831203130816922C831203130812F01C69
:10192600952C962C982C8816992C8812701D9C2C18
:101936009D2C9F2C0817A02C0813F01DA32CA42C5B
:10194600A62C8817A72C88130800F800F401F501C7
:101956007008F200F3017208F6007308F700781CAD
:10196600B52CB62CBC2C7608F4070318F50A7708B4
:10197600F50701300310F60DF70DFF3E031DBD2CD4
:101986000310F80C7808031DC92CCA2CB22C750854
:10199600F1007408F0000800F40074080F39F20032
:1019A6007408F039F3008312031308157308F10065
:1019B60004300310F10CFF3E031DDC2C71080A12E3
:1019C6008A1586240A128A158312031388151A307B
:1019D600F100F10BEC2C000083120313881172083E
:1019E6000A128A1586240A128A1583120313881589
:1019F6001A30F100F10BFD2C00008312031388113D
:101A06000800FA01FB01292D7A087507F800760807
:101A1600F7000318F70AFA1F112DF7037708F900E4
:101A2600790883120313FF00780884000A128A15C6
:101A360000200A128A150A128A15CF240A128A155C
:101A46000130FA070318FB0A0030FB077A0875070E
:101A5600F8007608F7000318F70AFA1F332DF70384
:101A66007708F900790883120313FF0078088400C9
:101A76000A128A1500200A128A15003A031D442DFF
:101A8600452D072D08008312031323082204210481
:101A9600200403194F2D502D932DA901A90A602D5D
:101AA6000130A8000310A00DA10DA20DA30DA80BD7
:101AB600552D0130A8002808A907A31F632D642D02
:101AC600532D23082702031D722D22082602031D0B
:101AD600722D21082502031D722D20082402031CE5
:101AE600752D762D842D2008A4022108031C210FB4
:101AF600A5022208031C220FA6022308031C230F9B
:101B0600A70201300310A30CA20CA10CA00CFF3EEF
:101B1600031D852D0130A902031D922D932D642DE1
:101B26002708A3002608A2002508A1002408A00073
:101B3600080000300A128A1586240A128A153430E3
:101B4600F500F130F400F40BA62DF50BA62DAB2D08
:101B560003300A128A156C240A128A150D30F50014
:101B6600FB30F400F40BB52DF50BB52DBA2D033073
:101B76000A128A156C240A128A151D30F500913056
:101B8600F400F40BC42DF50BC42D03300A128A158C
:101B96006C240A128A1502300A128A156C240A125B
:101BA6008A1502300A128A156C240A128A15083020
:101BB6000A128A156C240A128A1500300A128A152E
:101BC6006C240A128A150C300A128A156C240A1221
:101BD6008A1500300A128A156C240A128A150630F4
:101BE6000A128A156C240A128A1508008312031336
:101BF60008108814133083120313C800C80B012E73
:101C0600831203138518082E092E032E851C0C2E0D
:101C16000D2E092E8E018F0110148518132E142EE9
:101C2600102E0E08C9000F08CA00CB01CC011010F7
:101C36008E018F014C08F3004B08F2004A08F100B0
:101C46004908F00000300A128A114D200A128A153E
:101C5600730883120313A7007208A6007108A50073
:101C66007008A4003F30A3008030A2000030A1001D
:101C76000030A0000A128A11AE240A128A158312B5
:101C860003132308BD002208BC002108BB0020085E
:101C9600BA000A128A1588270A128A1583120313B4
:101CA6003D08C7003C08C6003B08C5003A08C4000A
:101CB60008008312031308148814133083120313C5
:101CC600C800C80B642E8312031385186B2E6C2E66
:101CD600662E851C6F2E702E6C2E8E018F011014B1
:101CE6008518762E772E732E10100E08C9000F0851
:101CF600CA00CB01CC018E018F014C08F3004B08C2
:101D0600F2004A08F1004908F00000300A128A1170
:101D16004D200A128A15730883120313A70072084E
:101D2600A6007108A5007008A4003F30A30080300B
:101D3600A2000030A1000030A0000A128A11AE24D1
:101D46000A128A15831203132308BD002208BC0059
:101D56002108BB002008BA000A128A1588270A1231
:101D66008A15831203133D08C7003C08C6003B08CA
:101D7600C5003A08C400080083120313081088102F
:101D8600133083120313C800C80BC72E8312031324
:101D96008518CE2ECF2EC92E851CD22ED32ECF2E11
:101DA6008E018F0110148518D92EDA2ED62E10101A
:101DB6000E08C9000F08CA00CB01CC018E018F01A5
:101DC6004C08F3004B08F2004A08F1004908F000FD
:101DD60000300A128A114D200A128A1573088312DE
:101DE6000313A7007208A6007108A5007008A400D6
:101DF6003F30A3008030A2000030A1000030A000D8
:101E06000A128A11AE240A128A15831203132308B2
:101E1600BD002208BC002108BB002008BA000A1237
:101E26008A1588270A128A15831203133D08C700EC
:101E36003C08C6003B08C5003A08C400080000304C
:101E4600FC000030FB000030FA000030F900730897
:101E56007204710470040319312F322F7F2FFD0194
:101E6600FD0A422F0130F8000310F00DF10DF20DBE
:101E7600F30DF80B372F0130F8007808FD07F31F34
:101E8600452F462F352F0130F8000310F90DFA0DB6
:101E9600FB0DFC0DF80B482F73087702031D5D2F11
:101EA60072087602031D5D2F71087502031D5D2FF2
:101EB60070087402031C602F612F702F7008F402E3
:101EC6007108031C710FF5027208031C720FF602EB
:101ED6007308031C730FF702791401300310F30C17
:101EE600F20CF10CF00CFF3E031D712F0130FD02C8
:101EF600031D7E2F7F2F462F7C08F3007B08F20000
:101F06007A08F1007908F000080003108312031321
:101F16003C0D3D0DC3004308031D922F932F9C2FAC
:101F26000030BD000030BC000030BB000030BA00FD
:101F3600FF2F3A08BE003B08BF003C08C0003D0822
:101F4600C1001F300310C10CC00CBF0CBE0CFF3EFD
:101F5600031DA52F3E08C200BC17FF30BA05FF308F
:101F6600BB05FF30BC050030BD059630C302C31F5C
:101F7600BD2FBE2FD82F4308803A973E0318C42F93
:101F8600C52FC62F932F01300310BD0CBC0CBB0C04
:101F9600BA0CFF3E031DC72F0130BE003E08C30723
:101FA600031DD62FD72FC62FEF2F20304302031C39
:101FB600DD2FDE2FEA2F932F0130BE000310BA0D5E
:101FC600BB0DBC0DBD0DBE0BE12F0130C302430896
:101FD600031DEE2FEF2FDF2F42080319F32FF42FE7
:101FE600FF2FBA09BB09BC09BD09BA0A0319BB0A06
:0A1FF6000319BC0A0319BD0A080014
:08400000FF3FFF3FFF3FFF3FC0
:04400E00D420FF3F7C
:00000001FF
