:060000000A128A11F32F21
:10000800F30083120313081173080A128A15812555
:100018000A128A118312031388150B30F20062301A
:10002800F100F10B1528F20B1528000083120313B9
:1000380088110800831203130810881013308312E4
:100048000313C800C80B26288312031385182D280C
:100058002E282828851C312832282E288E018F0129
:100068001014851838283928352810100E08C900AA
:100078000F08CA00CB01CC018E018F014C08F30098
:100088004B08F2004A08F1004908F00000300A1253
:100098008A115F210A128A11730883120313A700B9
:1000A8007208A6007108A5007008A4003F30A300DC
:1000B8008030A2000030A1000030A0000A128A118E
:1000C800AE240A128A11831203132308BD002208E2
:1000D800BC002108BB002008BA000A128A11E720D8
:1000E8000A128A11831203133D08C7003C08C60090
:1000F8003B08C5003A08C40008000030FC00003086
:10010800FB000030FA000030F90073087204710433
:100118007004031990289128DE28FD01FD0AA12802
:100128000130F8000310F00DF10DF20DF30DF80B8E
:1001380096280130F8007808FD07F31FA428A528A1
:1001480094280130F8000310F90DFA0DFB0DFC0D91
:10015800F80BA72873087702031DBC2872087602DB
:10016800031DBC2871087502031DBC2870087402A1
:10017800031CBF28C028CF287008F4027108031C8C
:10018800710FF5027208031C720FF6027308031C44
:10019800730FF702791401300310F30CF20CF10C11
:1001A800F00CFF3E031DD0280130FD02031DDD28A1
:1001B800DE28A5287C08F3007B08F2007A08F10005
:1001C8007908F00008000310831203133C0D3D0D5D
:1001D800C3004308031DF128F228FB280030BD00A6
:1001E8000030BC000030BB000030BA005E293A087D
:1001F800BE003B08BF003C08C0003D08C1001F30DE
:100208000310C10CC00CBF0CBE0CFF3E031D04291B
:100218003E08C200BC17FF30BA05FF30BB05FF30EF
:10022800BC050030BD059630C302C31F1C291D291B
:1002380037294308803A973E03182329242925297A
:10024800F22801300310BD0CBC0CBB0CBA0CFF3EED
:10025800031D26290130BE003E08C307031D3529AA
:10026800362925294E2920304302031C3C293D29E3
:100278004929F2280130BE000310BA0DBB0DBC0D90
:10028800BD0DBE0B40290130C3024308031D4D2993
:100298004E293E2942080319522953295E29BA09D1
:1002A800BB09BC09BD09BA0A0319BB0A0319BC0A70
:1002B8000319BD0A0800F80078080319642965299C
:1002C8007929F31F6829692979297009FA007109C0
:1002D800FB007209FC007309FD00FA0A0319FB0A06
:1002E8000319FC0A0319FD0A81297308FD00720825
:1002F800FC007108FB007008FA00730872047104AE
:100308007004031D8829892992290030F3000030E0
:10031800F2000030F1000030F000162A9630F900A3
:10032800A2290130F4007408F90701300310FD0C0C
:10033800FC0CFB0CFA0CFF3E031D9A29FE307D05D0
:10034800031DA729A8299529C4290130F400740898
:10035800F9070130FA07003003180130FB070030B5
:1003680003180130FC07003003180130FD07013085
:100378000310FD0CFC0CFB0CFA0CFF3E031DBC2902
:10038800FF307D05031DC929CA29A929D6290130AD
:10039800F9020130F4000310FA0DFB0DFC0DFD0D00
:1003A800F40BCF29FC1BD929DA29E029023079027C
:1003B8000318DF29E029CB297918E329E429EC2956
:1003C800FF30FA05FF30FB057F30FC05FF30FD05E7
:1003D8000310F90C7908F400F501F601F70118305B
:1003E8000310F40DF50DF60DF70DFF3E031DF4296E
:1003F8007408FA047508FB047608FC047708FD0401
:1004080078080319082A092A0E2AF31F0C2A0D2A2C
:100418000E2AFD177D08F3007C08F2007B08F10026
:100428007A08F000080083120313BC002B30BB00CD
:100438002B2B25303D060319222A232A2D2A3C0876
:1004480084003D08831380000130AF002F08BC07EB
:100458002B2BB401362A3416362AC030AF002F08A9
:10046800B404532A0130AA07FF302A0784000A126D
:100478008A150A200A128A11BD00AF00B00130089F
:10048800003A0319482A2B2B2F08003A03193B2B53
:100498006C3A03192F2A193A0319312A2B2B341EC7
:1004A800562A572A6A2A3B08840083130008B70093
:1004B800840A0008B800840A0008B900840A000801
:1004C800BA000430AF002F08BB077C2A3B08840021
:1004D80083130008AF00840A0008B0002F08B70093
:1004E8003008B800B901BA010230AF002F08BB07C5
:1004F800BD01BD0A3D08AF0001300310AF0DFF3E3E
:10050800031D812A03102F0D013E84000A128A154B
:100518000A200A128A11B0000A128A150A200A1241
:100528008A11B1000A128A150A200A128A11B20029
:100538000A128A150A200A128A11B30033083A02ED
:10054800031DB02A32083902031DB02A31083802C7
:10055800031DB02A300837020318B32AB42AB52A73
:10056800BF2A0130AF002F08BD070A303D06031D22
:10057800BE2ABF2A7E2A3D08AF00B0012F08B50069
:100588003008B6001D2B0030A3000030A200003058
:10059800A1000A30A0003508AF0001300310AF0DEC
:1005A800FF3E031DD22A03102F0D013E84000A12BC
:1005B8008A150A200A128A11F0000A128A150A20DE
:1005C8000A128A11F1000A128A150A200A128A11DF
:1005D800F2000A128A150A200A128A11F3003A0850
:1005E800F7003908F6003808F5003708F4000A1251
:1005F8008A1181200A128A11730883120313A70033
:100608007208A6007108A5007008A4000A128A15CD
:1006180087260A128A11831203132008303EBD0070
:100628003C0884003D08831380000130AF002F0888
:10063800BC07FF30B5070318B60AFF30B607350AFE
:10064800031D2A2B360A031D2A2B2B2BC72A013000
:10065800AA07FF302A0784000A128A150A200A12FC
:100668008A11BD003D08031D3A2B3B2B1D2A3C086F
:1006780084008313800108000A128A156F250A1264
:100688008A118316031388010A128A15DD260A12B5
:100698008A110A128A1558250A128A110A128A150D
:1006A80062250A128A11F401F40A01300A128A1525
:1006B80041260A128A112930F5008030F6000A1204
:1006C8008A15FF250A128A110A128A111E200A1297
:1006D8008A11831203134708DB004608DA0045082D
:1006E800D9004408D8000A128A159D270A128A11CF
:1006F800831203134708D3004608D2004508D100E7
:100708004408D0000A128A153A270A128A1183125D
:1007180003134708D7004608D6004508D500440803
:10072800D4005B08031DA52B5A08031DA52B5908E7
:10073800031DA52B64305802031DA22B0318A52BFB
:10074800A62B1D2C831203135B08031DB92B5A0813
:10075800031DB92B5908031DB92B47305802031D37
:10076800B52B031CB82BB92B1D2C8312031353086C
:10077800031DCB2B5208031DCB2B5108031DCB2B7C
:10078800D2305002031DC82B0318CB2BCC2B1D2CA9
:10079800831203135308031DDF2B5208031DDF2B9D
:1007A8005108031DDF2BA1305002031DDB2B031C56
:1007B800DE2BDF2B1D2C831203135708031DF12B8F
:1007C8005608031DF12B5508031DF12B4630540222
:1007D800031DEE2B0318F12BF22B1D2C8312031390
:1007E8005708031D052C5608031D052C5508031D25
:1007F800052C33305402031D012C031C042C052C3A
:100808001D2C033083120313DF000030E000F401D5
:10081800F40A02300A128A1541260A128A11353062
:10082800F5008030F6000A128A15FF250A128A118F
:10083800322C83120313DF01E001F401F40A0230C1
:100848000A128A1541260A128A113030F5008030C2
:10085800F6000A128A15FF250A128A113A30831205
:100868000313AA005B08AE005A08AD005908AC0093
:100878005808AB0069300A128A1117220A128A1125
:100888003A3083120313AA005708AE005608AD0089
:100898005508AC005408AB0065300A128A111722BB
:1008A8000A128A113A3083120313AA005308AE00C1
:1008B8005208AD005108AC005008AB0061300A1274
:1008C8008A1117220A128A110630F40002300A121D
:1008D8008A1541260A128A116930F5000030F6009F
:1008E8000A128A15FF250A128A110A30F40002300A
:1008F8000A128A1541260A128A116130F500003061
:10090800F6000A128A15FF250A128A110E30F40021
:1009180002300A128A1541260A128A116530F5003A
:100928000030F6000A128A15FF250A128A110330D0
:1009380083120313CF000830CE007630CD00CD0BE4
:10094800A32CCE0BA32CCF0BA32C0000522B0A12E6
:100958008A1100288312031323088039AD00230865
:10096800A8002807B300A21FBA2CBB2CBC2C331438
:1009780033080319C02CC12CD02C330A031DC52CF5
:10098800C62CCE2C0030A3000030A2000030A100FD
:100998000030A000A217D82C0030A3000030A2001D
:1009A8000030A1000030A00027088039A8002808DE
:1009B800AD062708A8002807B200A61FE42CE52CDE
:1009C800E62C321432080319EA2CEB2CFA2C320AE2
:1009D800031DEF2CF02CF82C0030A7000030A600E7
:1009E8000030A5000030A400A617022D0030A70093
:1009F8000030A6000030A5000030A400320803191A
:100A0800062D072D0C2D3308031D0B2D0C2D152D30
:100A18000030A3000030A2000030A1000030A00088
:100A2800F22F2008F00026080A128A15A3250A12B8
:100A38008A11710883120313B9007008B8003808C6
:100A4800A800A901AA01AB012B08B1002A08B0002F
:100A58002908AF002808AE003908A800A901AA0192
:100A6800AB012B08B7002A08B6002908B5002808EA
:100A7800B4002108F00025080A128A15A3250A12D5
:100A88008A11710883120313B9007008B800380876
:100A9800A800A901AA01AB012808AE07290803117B
:100AA8000318013E0319592DAF072A08031103182B
:100AB800013E0319602DB0072B0803110318013EEE
:100AC8000319672DB1073908A800A901AA01AB01CC
:100AD8002808B407290803110318013E0319752DC6
:100AE800B5072A0803110318013E03197C2DB60720
:100AF8002B0803110318013E0319832DB707220899
:100B0800F00024080A128A15A3250A128A1171080E
:100B180083120313B9007008B8003808A800A901A7
:100B2800AA01AB012808AE07290803110318013EE2
:100B380003199F2DAF072A0803110318013E031953
:100B4800A62DB0072B0803110318013E0319AD2D7C
:100B5800B1073908A800A901AA01AB012808B40700
:100B6800290803110318013E0319BB2DB5072A08EC
:100B780003110318013E0319C22DB6072B080311F0
:100B88000318013E0319C92DB7070830A800031040
:100B9800AE0DAF0DB00DB10DA80BCB2D2108F00097
:100BA80024080A128A15A3250A128A1171088312C9
:100BB8000313B9007008B8003808A8003908A9005C
:100BC800AA01AB012808AE07290803110318013E42
:100BD8000319EF2DAF072A0803110318013E031963
:100BE800F62DB0072B0803110318013E0319FD2D3C
:100BF800B1072008F00025080A128A15A3250A1251
:100C08008A11710883120313B9007008B8003808F4
:100C1800A8003908A900AA01AB012808AE072908CD
:100C280003110318013E03191A2EAF072A080311EE
:100C38000318013E0319212EB0072B0803110318CE
:100C4800013E0319282EB1070830A8000310AE0D85
:100C5800AF0DB00DB10DA80B2A2E2008F000240806
:100C68000A128A15A3250A128A117108831203131E
:100C7800B9007008B8003808A8003908A900AA0106
:100C8800AB012808AE07290803110318013E031910
:100C98004E2EAF072A0803110318013E0319552EDB
:100CA800B0072B0803110318013E03195C2EB10786
:100CB8002108F00026080A128A15A3250A128A11AB
:100CC800710883120313B9007008B8003808A80027
:100CD8003908A900AA01AB012808B407290803119B
:100CE8000318013E0319792EB5072A0803110318C2
:100CF800013E0319802EB6072B0803110318013E85
:100D08000319872EB7072208F00025080A128A154A
:100D1800A3250A128A11710883120313B9007008F7
:100D2800B8003808A8003908A900AA01AB012808AA
:100D3800B407290803110318013E0319A42EB507A7
:100D48002A0803110318013E0319AB2EB6072B0816
:100D580003110318013E0319B22EB7072208F00049
:100D680026080A128A15A3250A128A117108831205
:100D78000313B9007008B8003808A8003908A9009A
:100D8800AA01AB0108300310A80DA90DAA0DAB0DDF
:100D9800FF3E031DC72E2808B407290803110318AE
:100DA800013E0319D82EB5072A0803110318013E7E
:100DB8000319DF2EB6072B0803110318013E031988
:100DC800E62EB7072E08A8002F08A9003008AA00A9
:100DD8003108AB0018300310AB0CAA0CA90CA80CF6
:100DE800FF3E031DEF2E2808B40729080311031836
:100DF800013E0319002FB5072A0803110318013E05
:100E08000319072FB6072B0803110318013E03190E
:100E18000E2FB7070830A8000310AE0DAF0DB00DA8
:100E2800B10DA80B102F33083207A800A901A90D8E
:100E38002808823EB80029080318013EFF3EB90081
:100E4800422F0130A8000310B40DB50DB60DB70D33
:100E5800A80B272FB11F312F322F332F3414013015
:100E6800A8000310AE0DAF0DB00DB10DA80B352FB6
:100E7800FF30B8070318B90AFF30B907B61F452F66
:100E8800462F252FB201B11F4A2F4B2F672FFF3056
:100E98002E05A800FF302F05A900FF303005AA0055
:100EA8007F303105AB002B082A04290428040319D4
:100EB8005E2F5F2F622FB201B20A672F341C652F95
:100EC800662F672F5F2F320803196B2F6C2F9D2F0A
:100ED8000130B407003003180130B507003003189B
:100EE8000130B607003003180130B707371C7D2FD3
:100EF8007E2F9D2F3408A8003508A9003608AA00BF
:100F08003708AB000130AC002B0DAB0CAA0CA90CB8
:100F1800A80CAC0B882F2B08B7002A08B6002908A4
:100F2800B5002808B4000130B8070318B90A003022
:100F3800B9073908803AFF0080307F02031DA62FC9
:100F4800FF303802031CA92FAA2FB52F7F30831238
:100F58000313B7008030B6000030B5000030B4008D
:100F6800E62F831203133908803AFF0080307F028E
:100F7800031DC02F013038020318C32FC42FD02FF0
:100F8800003083120313B7000030B6000030B500FC
:100F98000030B400AD01E62F831203133808B30004
:100FA800FF30B405FF30B5057F30B6050030B70512
:100FB800331CDF2FE02FE12FB6173308A8000310EA
:100FC800280CB7002D08A8002808B7043708A30084
:100FD8003608A2003508A1003408A00008008313D1
:100FE800503084006D300A128A1550250A128A1171
:100FF80083010A128A11402BFF1B0A2883137F18CA
:1010080083170008840A0319FF0A080008308A00B9
:101018000408840A820700340134003400340034A0
:101028000A340034003400346434003400340034AA
:10103800E8340334003400341034273400340034E6
:10104800A034863401340034403442340F34003440
:1010580080349634983400340034E134F53405345F
:101068000034CA349A343B3443344F344C344F340C
:1010780052343A3400344E34413444344134003428
:1010880052344F344A344F34003425346C34753478
:02109800003422
:101AA00064008001840A0406031900340406512DE1
:101AB0008312031390101008CF39103890001015BE
:101AC0001010080000300A128A1104200A128A1528
:101AD00001300A128A1104200A128A15080083169E
:101AE00003178801890102308316031385008801DA
:101AF0008312031388017030831603138F040F14AD
:101B00000800F000701C852D862D8A2D831203138A
:101B100008168D2D831203130812F01C902D912DA1
:101B2000932D8816942D8812701D972D982D9A2D1F
:101B300008179B2D0813F01D9E2D9F2DA12D881792
:101B4000A22D88130800F800F401F5017008F200D6
:101B5000F3017208F6007308F700781CB02DB12D60
:101B6000B72D7608F4070318F50A7708F507013052
:101B70000310F60DF70DFF3E031DB82D0310F80CF2
:101B80007808031DC42DC52DAD2D7508F10074080E
:101B9000F0000800F40074080F39F2007408F039FE
:101BA000F3008312031308157308F10004300310C7
:101BB000F10CFF3E031DD72D71080A128A158125ED
:101BC0000A128A158312031388151A30F100F10BDB
:101BD000E72D000083120313881172080A128A1578
:101BE00081250A128A158312031388151A30F10011
:101BF000F10BF82D00008312031388110800FA017D
:101C0000FB01242E7A087507F8007608F700031800
:101C1000F70AFA1F0C2EF7037708F90079088312E8
:101C20000313FF00780884000A128A1500200A12A4
:101C30008A150A128A15CA250A128A150130FA076E
:101C40000318FB0A0030FB077A087507F8007608CE
:101C5000F7000318F70AFA1F2E2EF7037708F9008A
:101C6000790883120313FF00780884000A128A158A
:101C700000200A128A15003A031D3F2E402E022E24
:101C80000800F6007603031D462E472E642E7408C6
:101C90007F3EF9007908F50004300310F50CFF3E93
:101CA000031D4D2E7508F70079080F39F8007708E5
:101CB0000A128A1104200A128A1578080A128A1157
:101CC00004200A128A15862E02307606031D692E1C
:101CD0006A2E862E7408BF3EF9007908F50004309C
:101CE0000310F50CFF3E031D702E7508F7007908F0
:101CF0000F39F80077080A128A1104200A128A158F
:101D000078080A128A1104200A128A150800831220
:101D1000031323082204210420040319902E912E7A
:101D2000D42EA901A90AA12E0130A8000310A00DEC
:101D3000A10DA20DA30DA80B962E0130A800280816
:101D4000A907A31FA42EA52E942E23082702031D46
:101D5000B32E22082602031DB32E21082502031DDF
:101D6000B32E20082402031CB62EB72EC52E200841
:101D7000A4022108031C210FA5022208031C220F24
:101D8000A6022308031C230FA70201300310A30C93
:101D9000A20CA10CA00CFF3E031DC62E0130A9020F
:101DA000031DD32ED42EA52E2708A3002608A2009B
:101DB0002508A1002408A000080000300A128A1596
:101DC00081250A128A153430F500F130F400F40B45
:101DD000E72EF50BE72EEC2E03300A128A110420B1
:101DE0000A128A150D30F500FB30F400F40BF62EC4
:101DF000F50BF62EFB2E03300A128A1104200A126C
:101E00008A151D30F5009130F400F40B052FF50B09
:101E1000052F03300A128A1104200A128A15023093
:101E20000A128A1104200A128A1502300A128A1133
:101E300004200A128A1508300A128A1104200A1294
:101E40008A1500300A128A1104200A128A150C30F1
:101E50000A128A1104200A128A1500300A128A1105
:101E600004200A128A1506300A128A1104200A1266
:101E70008A15080083120313081088141330831284
:101E80000313C800C80B422F831203138518492F70
:101E90004A2F442F851C4D2F4E2F4A2F8E018F0124
:101EA00010148518542F552F512F0E08C9000F08F4
:101EB000CA00CB01CC0110108E018F014C08F30039
:101EC0004B08F2004A08F1004908F00000300A12FD
:101ED0008A115F210A128A15730883120313A7005F
:101EE0007208A6007108A5007008A4003F30A30086
:101EF0008030A2000030A1000030A0000A128A1138
:101F0000AE240A128A15831203132308BD00220887
:101F1000BC002108BB002008BA000A128A11E72081
:101F20000A128A15831203133D08C7003C08C60035
:101F30003B08C5003A08C4000800831203130814C4
:101F40008814133083120313C800C80BA52F831203
:101F500003138518AC2FAD2FA72F851CB02FB12FE1
:101F6000AD2F8E018F0110148518B72FB82FB42F05
:101F700010100E08C9000F08CA00CB01CC018E0159
:101F80008F014C08F3004B08F2004A08F1004908A1
:101F9000F00000300A128A115F210A128A157308B4
:101FA00083120313A7007208A6007108A500700829
:101FB000A4003F30A3008030A2000030A100003018
:101FC000A0000A128A11AE240A128A158312031382
:101FD0002308BD002208BC002108BB002008BA006D
:101FE0000A128A11E7200A128A15831203133D0888
:101FF000C7003C08C6003B08C5003A08C4000800FA
:08400000FF3FFF3FFF3FFF3FC0
:04400E00D420FF3F7C
:00000001FF
