:100000000A128A11F32F00308A000408840A82073A
:100010000034013400340A34003464340034E834E9
:100020000334103427344434693473347434613401
:100030006E346334693461343A34203425346434A2
:08004000203463346D340034F8
:1005EA0064008001840A0406031900340406F62A0A
:1005FA000A128A1119230A128A1183160313111473
:10060A0008000A128A1119230A128A11831603137F
:10061A00111508000A128A1119230A128A11700880
:10062A0083120313930008008316031314191E2B55
:10063A001F2B192B11081F39031D242B252B192BAE
:10064A00080000300A128A1140230A128A11013066
:10065A000A128A1140230A128A110800F10071084D
:10066A00F000F00E831603130F0870068F39700618
:10067A008F000F140800F300831203130811730884
:10068A000A128A117B230A128A118312031388150C
:10069A000B30F2006230F100F10B512BF20B512BAF
:1006AA0000008312031388110800F800F601F7010D
:1006BA006F2B76087807F5007508840000080A127F
:1006CA008A11F3230A128A110130F6070318F70A6E
:1006DA000030F70776087807F50075088400831359
:1006EA000008031D792B7A2B5E2B0800F000701C82
:1006FA007F2B802B842B831203130816872B8312DC
:10070A0003130812F01C8A2B8B2B8D2B88168E2B29
:10071A008812701D912B922B942B0817952B081376
:10072A00F01D982B992B9B2B88179C2B881308005C
:10073A008316031788018901831603138501023082
:10074A00860088018312031385018601880100301F
:10075A00B9000130B8008630B700A030B6000A12DE
:10076A008A1128240A128A1107300A128A1133239D
:10077A000A128A110A128A1124250A128A110800F9
:10078A000A128A1119230A128A1183160313911560
:10079A000A128A1119230A128A11831203131308DF
:1007AA00F200F3017208F4007308F5000A128A11C4
:1007BA0019230A128A1170037104031DE52BE62B13
:1007CA00EA2B831603139112ED2B8316031391164A
:1007DA0011167508F1007408F0000800F400740896
:1007EA000F39F2007408F039F30083120313081565
:1007FA007308F10004300310F10CFF3E031D002CB6
:10080A0071080A128A117B230A128A1183120313AE
:10081A0088151A30F100F10B102C00008312031313
:10082A00881172080A128A117B230A128A1183120A
:10083A00031388151A30F100F10B212C00008312E2
:10084A0003138811080028308312031394008316B7
:10085A0003139101831203133608BA003708BB0049
:10086A003808BC003908BD0002300310BA0DBB0DB0
:10087A00BC0DBD0DFF3E031D3A2C3D08F3003C089C
:10088A00F2003B08F1003A08F0000030F7007A3035
:10089A00F6001230F5000030F4000A128A118125A0
:1008AA000A128A117008FF3E8316031393009401FB
:1008BA00871507160800780879040319652C662C31
:1008CA00952CFD01FD0A742C01300310F80DF90D69
:1008DA00FF3E031D6A2C0130FC007C08FD07F91F4E
:1008EA00772C782C692C79087B02031D7E2C7808DA
:1008FA007A02031C812C822C882C7808FA02790847
:10090A00031CFB03FB0201300310F90CF80CFF3E39
:10091A00031D892C0130FD02031D942C952C782C83
:10092A007B08F9007A08F8000800F501F60170085A
:10093A0071040319A12CA22CD92CF701F70AB02CA7
:10094A0001300310F00DF10DFF3E031DA62C0130FE
:10095A00F4007408F707F11FB32CB42CA52C01304E
:10096A000310F50DF60DFF3E031DB52C7108730239
:10097A00031DC12C70087202031CC42CC52CCC2C7C
:10098A007008F2027108031CF303F30275140130B4
:10099A000310F10CF00CFF3E031DCD2C0130F702C1
:1009AA00031DD82CD92CB42C7608F1007508F00058
:1009BA000800F6007603031DE32CE42C012D7408CD
:1009CA007F3EF9007908F50004300310F50CFF3E6C
:1009DA00031DEA2C7508F70079080F39F800770823
:1009EA000A128A1140230A128A1178080A128A11F5
:1009FA0040230A128A11232D02307606031D062D82
:100A0A00072D232D7408BF3EF9007908F50004303C
:100A1A000310F50CFF3E031D0D2D7508F70079082C
:100A2A000F39F80077080A128A1140230A128A112C
:100A3A0078080A128A1140230A128A110800003023
:100A4A000A128A117B230A128A113430F500F13016
:100A5A00F400F40B2E2DF50B2E2D332D03300A1234
:100A6A008A1140230A128A110D30F500FB30F40076
:100A7A00F40B3D2DF50B3D2D422D03300A128A1140
:100A8A0040230A128A111D30F5009130F400F40B4C
:100A9A004C2DF50B4C2D03300A128A1140230A12F1
:100AAA008A1102300A128A1140230A128A1102306C
:100ABA000A128A1140230A128A1108300A128A116C
:100ACA0040230A128A1100300A128A1140230A129C
:100ADA008A110C300A128A1140230A128A11003034
:100AEA000A128A1140230A128A1106300A128A113E
:100AFA0040230A128A1108000030FC000030FB0073
:100B0A000030FA000030F9007308720471047004AE
:100B1A000319902D912DDE2DFD01FD0AA12D013025
:100B2A00F8000310F00DF10DF20DF30DF80B962DF0
:100B3A000130F8007808FD07F31FA42DA52D942D88
:100B4A000130F8000310F90DFA0DFB0DFC0DF80B3E
:100B5A00A72D73087702031DBC2D72087602031DA8
:100B6A00BC2D71087502031DBC2D70087402031C8C
:100B7A00BF2DC02DCF2D7008F4027108031C710F10
:100B8A00F5027208031C720FF6027308031C730F36
:100B9A00F702791401300310F30CF20CF10CF00C8B
:100BAA00FF3E031DD02D0130FD02031DDD2DDE2D7C
:100BBA00A52D7C08F3007B08F2007A08F100790879
:100BCA00F00008000A128A119D230A128A110A12D9
:100BDA008A1126230A128A110A128A11FD220A127E
:100BEA008A111130F0000030F1000A128A110F2325
:100BFA000A128A110030F000F1000A128A11C52384
:100C0A000A128A11700883120313C5007108C600FC
:100C1A00C701C8014808F9004708F8004608F70064
:100C2A004508F60000300A128A115F260A128A1154
:100C3A00790883120313A3007808A2007708A10099
:100C4A007608A0000A128A1106230A128A110330B2
:100C5A0083120313C7000830C6007630C500C50BDF
:100C6A00342EC60B342EC70B342E00000B308312E1
:100C7A000313B6002308BA002208B9002108B800F5
:100C8A002008B70026300A128A1119270A128A1177
:100C9A00F401F40A01300A128A11DE240A128A11B6
:100CAA0026300A128A115A230A128A11F12D0A12BF
:100CBA008A11002883120313B60036080319662E18
:100CCA00672E7B2EF91F6A2E6B2E7B2E7609B800B3
:100CDA007709B9007809BA007909BB00B80A03197B
:100CEA00B90A0319BA0A0319BB0A832E7908BB0089
:100CFA007808BA007708B9007608B8007908780445
:100D0A0077047604031D8A2E8B2E942E0030F90068
:100D1A000030F8000030F7000030F600182F963047
:100D2A00B700A42E0130FA007A08B7070130031081
:100D3A00BB0CBA0CB90CB80CFF3E031D9C2EFE303E
:100D4A003B05031DA92EAA2E972EC62E0130FA00A6
:100D5A007A08B7070130B807003003180130B9071D
:100D6A00003003180130BA07003003180130BB07FE
:100D7A0001300310BB0CBA0CB90CB80CFF3E031DB2
:100D8A00BE2EFF303B05031DCB2ECC2EAB2ED82E0C
:100D9A000130B7020130FA000310B80DB90DBA0DCF
:100DAA00BB0DFA0BD12EBA1BDB2EDC2EE22E023043
:100DBA0037020318E12EE22ECD2E3718E52EE62E45
:100DCA00EE2EFF30B805FF30B9057F30BA05FF3087
:100DDA00BB050310B70C3708FA00FB01FC01FD0143
:100DEA0018300310FA0DFB0DFC0DFD0DFF3E031D1F
:100DFA00F62E7A08B8047B08B9047C08BA047D0880
:100E0A00BB04360803190A2F0B2F102FF91F0E2FB8
:100E1A000F2F102FBB173B08F9003A08F8003908C2
:100E2A00F7003808F600080083120313C3003730AE
:100E3A00BE00DE2F253044060319242F252F2F2F1D
:100E4A00430884004408831380000130BB003B0838
:100E5A00C307DE2FBF010130B607FF303607840013
:100E6A000A128A1103200A128A11C400BB00BC01AB
:100E7A003C08003A0319422FDE2F3B08003A0319B7
:100E8A00EE2F643A03194D2F0D3A03194D2FDE2F19
:100E9A003E08840083130008C100840A0008C200C7
:100EAA000230BB003B08BE07C21F5C2F5D2F662FB6
:100EBA000330BB003B08BF04C109C209C10A0319B8
:100ECA00C20AC401C40A4408BB003B07013E8400AD
:100EDA000A128A1103200A128A11BC000A128A1104
:100EEA0003200A128A11BD003D084202031D7F2F0A
:100EFA003C0841020318822F832F842F8E2F013042
:100F0A00BB003B08C40705304406031D8D2F8E2FF6
:100F1A00682F3F0803390319932F942F9D2F4308F5
:100F2A0084002D30831380000130BB003B08C307C7
:100F3A004408C000D52F0A30F8000030F9004008F4
:100F4A00BB003B07013E84000A128A1103200A12E1
:100F5A008A11F0000A128A1103200A128A11F1007A
:100F6A004208F3004108F2000A128A119A240A126E
:100F7A008A117108FB007008FA000A128A116024AB
:100F8A000A128A117808303E83120313C4004308F8
:100F9A0084004408831380000130BB003B08C30768
:100FAA00FF30BB003B08C007400A031DDD2FDE2FC0
:100FBA00A02F0130B607FF30360784000A128A11C3
:100FCA0003200A128A11C4004408031DED2FEE2FD4
:100FDA001F2F4308840083138001080083132030E5
:100FEA00840036300A128A11F5220A128A11830104
:060FFA000A128A11E72D26
:08400000FF3FFF3FFF3FFF3FC0
:04400E00D420FF3F7C
:00000001FF
