:100000000A128A11EF2F70087104031908280928B1
:100010003828F501F50A172801300310F00DF10D0D
:10002000FF3E031D0D280130F4007408F507F11F91
:100030001A281B280C2871087302031D2128700838
:100040007202031C242825282B287008F20271084C
:10005000031CF303F30201300310F10CF00CFF3E1C
:10006000031D2C280130F502031D372838281B28D2
:100070007308F1007208F00008000310720D730D90
:1000800083120313A5002508031D4728482851287B
:100090000030F3000030F2000030F1000030F000DA
:1000A000F4280310760D770DA4002408031D5928A9
:1000B0005A285B284828F217FF30F005FF30F10579
:1000C000FF30F2050030F305F617FF30F405FF307E
:1000D000F505FF30F6050030F7050030A3000030CD
:1000E000A2000030A1000030A0007F30A502A030A7
:1000F0002407F8007808A5022030A4000130F80099
:100100000310A00DA10DA20DA30DF80B80287708F8
:100110007302031D952876087202031D9528750841
:100120007102031D952874087002031C98289928F1
:10013000A8287408F0027508031C750FF1027608F0
:10014000031C760FF2027708031C770FF3022014CA
:100150000130F8000310F00DF10DF20DF30DF80B66
:10016000AA280130A402031DB628B7287E28A51F9F
:10017000BA28BB28D5282508803A9F3E0318C128F5
:10018000C228C328482801300310A30CA20CA10CDC
:10019000A00CFF3E031DC4280130F8007808A50715
:1001A000031DD328D428C328EC2820302502031CA3
:1001B000DA28DB28E72848280130F8000310A00DD2
:1001C000A10DA20DA30DF80BDE280130A502250814
:1001D000031DEB28EC28DC282308F3002208F2009A
:1001E0002108F1002008F000080083120313A0008A
:1001F00020080319FC28FD281129F91F00290129CD
:1002000011297609A2007709A3007809A4007909C9
:10021000A500A20A0319A30A0319A40A0319A50A2F
:1002200019297908A5007808A4007708A3007608A2
:10023000A2007908780477047604031D2029212977
:100240002A290030F9000030F8000030F7000030B3
:10025000F600AE299630A1003A290130FA007A085A
:10026000A10701300310A50CA40CA30CA20CFF3EA7
:10027000031D3229FE302505031D3F2940292D2964
:100280005C290130FA007A08A1070130A20700308A
:1002900003180130A307003003180130A407003011
:1002A00003180130A50701300310A50CA40CA30C02
:1002B000A20CFF3E031D5429FF302505031D6129B3
:1002C000622941296E290130A1020130FA00031090
:1002D000A20DA30DA40DA50DFA0B6729A41B71296E
:1002E0007229782902302102031877297829632995
:1002F00021187B297C298429FF30A205FF30A30522
:100300007F30A405FF30A5050310A10C2108FA00D9
:10031000FB01FC01FD0118300310FA0DFB0DFC0D73
:10032000FD0DFF3E031D8C297A08A2047B08A3045F
:100330007C08A4047D08A50420080319A029A1298C
:10034000A629F91FA429A529A629A5172508F9007A
:100350002408F8002308F7002208F6000800831696
:100360000313BB00A130AE00DA2F2530420603197B
:10037000BA29BB29C5293B088400420883138000A1
:100380000130A5002508BB07DA2FAF01B001200816
:1003900084000A168A1100200A128A112E3A031DBF
:1003A000D229D329182A30170130A5002508A00723
:1003B000BC01BD01072A0A30F0000030F1008316AD
:1003C00003133D08F3003C08F2000A168A15412683
:1003D0000A128A11710883160313BD007008BC004D
:1003E000200884000A168A1100200A128A11D03EC1
:1003F000A500FF3003180030A6002508BC0703182D
:10040000BD0A2608BD070130A5002508A007200861
:1004100084000A168A1100200A128A110A168A1507
:10042000AE250A128A110318162A172ADB291E2A5A
:10043000BC01BD0130161E2A30153A2A0130831640
:100440000313A007FF30200784000A168A1100203A
:100450000A128A11C200A500A6012608003A031953
:10046000322ADA2F2508003A0319EA2F663A0319CF
:100470001C2ADA2F00302F05A50007303005A60012
:10048000250826040319452A462A972F301E492A93
:100490004A2A4E2A0630BC000030BD002E088400D7
:1004A00083130008BE00840A0008BF00840A000805
:1004B000C000840A0008C1000430A5002508AE076A
:1004C0004108F3004008F2003F08F1003E08F00048
:1004D0000030F7000030F6000030F5000030F40086
:1004E0000A128A1503200A128A110318782A792A17
:1004F000962A831603134108F3004008F2003F08D0
:10050000F1003E08F0000A168A157C250A128A11AD
:10051000730883160313C1007208C0007108BF007E
:100520007008BE000330AF040030B004831603131C
:10053000B501B6014108F3004008F2003F08F100A0
:100540003E08F0000030F7000030F6000030F50003
:100550000030F4000A168A15B2270A128A1103180D
:10056000B22AB32AA32B031083160313400D410DA7
:10057000823EB500FF3003180030B600FF30B507EB
:100580000318B60AFF30B6070330F0000030F10060
:100590003608F3003508F2000A168A1541260A12B9
:1005A0008A11710883160313B6007008B5000A306B
:1005B000F7000030F8003608FA003508F9000A168E
:1005C0008A1144220A128A11780883160313B6008E
:1005D0007708B500B61FED2AEE2AF42AFF30B507DA
:1005E0000318B60AFF30B6073503FF3A0A128A1518
:1005F000A1240A128A1183120313410883160313DC
:10060000BA0083120313400883160313B900831240
:1006100003133F0883160313B800831203133E0825
:1006200083160313B700410883120313A700831630
:100630000313400883120313A600831603133F0815
:1006400083120313A500831603133E0883120313BA
:10065000A400831603133A0883120313AB00831616
:100660000313390883120313AA00831603133808EF
:1006700083120313A900831603133708831203138D
:10068000A8000A128A155C210A128A118312031328
:10069000270883160313BA00831203132608831650
:1006A0000313B90083120313250883160313B8003C
:1006B00083120313240883160313B7003A08F300C8
:1006C0003908F2003808F1003708F0003F30F70031
:1006D0008030F6000030F5000030F4000A128A1570
:1006E00003200A128A110318762B772B802BFF30F8
:1006F00083160313B5070318B60AFF30B607A32BFA
:10070000831603133A08F3003908F2003808F100A1
:100710003708F0004130F7002030F6000030F500D7
:100720000030F4000A128A1503200A128A11031CF1
:100730009A2B9B2BA32B013083160313B5070318A9
:10074000B60A0030B607831603133D08803AFF004F
:1007500080307F02031DAE2B0D303C020318B12BFD
:10076000B22BF92B831603133C080A168A119D231A
:100770000A128A11831203134108D5004008D400DD
:100780003F08D3003E08D2008316031341088312AA
:100790000313D90083160313400883120313D800F0
:1007A000831603133F0883120313D7008316031322
:1007B0003E0883120313D6000A168A11A8250A12CE
:1007C0008A1183120313550883160313C100831281
:1007D0000313540883160313C00083120313530832
:1007E00083160313BF0083120313520883160313E7
:1007F000BE00831603133608803AFF0080307F0264
:10080000031D042C0A3035020318072C082C592C20
:10081000831603134108F3004008F2003F08F1007B
:100820003E08F0000030F7000030F6000030F50020
:100830000030F4000A168A15B2270A128A1103182A
:10084000222C232CCB2C8316031341088312031371
:10085000D40083160313400883120313D3008316B6
:1008600003133F0883120313D200831603133E08B9
:1008700083120313D1000A168A11AD220A128A11BB
:10088000831203135408530452045104031D492CCA
:100890004A2CCB2C831603133608803AFF00803095
:1008A0007F02031D552C02303502031C582C592C95
:1008B000CB2C831603133A08F3003908F2003808EA
:1008C000F1003708F0004030F7008930F600703052
:1008D000F5005F30F4000A128A1503200A128A110B
:1008E0000318732C742C7D2CF73083160313B50773
:1008F0000318B60AFF30B607852CF83083160313A9
:10090000B5070318B60AFF30B60735080A128A156C
:10091000A1240A128A1183120313410883160313B8
:10092000BA0083120313400883160313B90083121D
:1009300003133F0883160313B800831203133E0802
:1009400083160313B7004108F3004008F2003F0884
:10095000F1003E08F0003A08F7003908F6003808C0
:10096000F5003708F4000A128A113D200A128A1194
:10097000730883160313B4007208B3007108B20041
:100980007008B1000030C1000030C0000030BF006E
:100990000030BE004F2D831603134108831203134A
:1009A000D40083160313400883120313D300831665
:1009B00003133F0883120313D200831603133E0868
:1009C00083120313D1000A168A11AD220A128A116A
:1009D00083120313540883160313B4008312031302
:1009E000530883160313B3008312031352088316AC
:1009F0000313B20083120313510883160313B100CB
:100A00003408F9003308F8003208F7003108F6001E
:100A100000300A128A11F5200A128A11790883120D
:100A20000313E9007808E8007708E7007608E60095
:100A300083160313410883120313ED008316031377
:100A4000400883120313EC00831603133F0883123C
:100A50000313EB00831603133E0883120313EA000B
:100A60000A168A151D260A128A11831203136908B1
:100A700083160313C100831203136808831603133C
:100A8000C00083120313670883160313BF00831289
:100A90000313660883160313BE00B501B601C20135
:100AA000C20A4208A50001300310A50DFF3E031D38
:100AB000542D0310250D693E84000A168A1100206A
:100AC0000A128A11A6000A168A1100200A128A1137
:100AD000A7000A168A1100200A128A11A8000A1615
:100AE0008A1100200A128A11A90029083402031D64
:100AF000832D28083302031D832D27083202031D8E
:100B0000832D260831020318862D872D882D922DDE
:100B10000130A5002508C2070A304206031D912DA9
:100B2000922D512D03302F05A50000303005A60071
:100B30002508260403199D2D9E2D0C2E3B088400AC
:100B40002D30831380000130A5002508BB070C2E33
:100B50004208A50001300310A50DFF3E031DAB2D7B
:100B60000310250D693E84000A168A1100200A121E
:100B70008A11F0000A168A1100200A128A11F10067
:100B80000A168A1100200A128A11F2000A168A1126
:100B900000200A128A11F3003408F7003308F60027
:100BA0003208F5003108F4000A168A11DE210A1213
:100BB0008A11730883160313BA007208B90071080A
:100BC000B8007008B7000030F3000030F2000030C9
:100BD000F1000A30F0003A08F7003908F60038084A
:100BE000F5003708F4000A168A11D4200A128A1177
:100BF000730883160313BA007208B9007108B800AD
:100C00007008B7003B0884003708303E831380002B
:100C10000130A5002508BB070130C202420A031DAE
:100C2000122E132EA82D252E831603133B088400A5
:100C30003030831380000130A5002508BB07FF304A
:100C4000B5070318B60AFF30B6073608803AFF002A
:100C500080307F02031D2E2E013035020318312E05
:100C6000322E142E831603133D08803AFF00803085
:100C70007F02031D3D2E09303C02031C402E412EF5
:100C8000462E083083160313C2004A2E8316031320
:100C90003C08C2004208A500A6012508BC0226089F
:100CA000031CBD03BD0242080319572E582E612EA6
:100CB0003B0884002E30831380000130A5002508F6
:100CC000BB0742080A128A15A1240A128A1183124C
:100CD0000313410883160313AD0083120313400866
:100CE00083160313AC00831203133F088316031308
:100CF000AB00831203133E0883160313AA002D08CA
:100D000083120313AB00831603132C0883120313FF
:100D1000AA00831603132B0883120313A90083165A
:100D200003132A0883120313A80083160313410830
:100D300083120313A70083160313400883120313BF
:100D4000A600831603133F0883120313A50083161E
:100D500003133E0883120313A4000A128A155C21B0
:100D60000A128A11831203132708D4002608D3001D
:100D70002508D2002408D1000A168A11AD220A12D1
:100D80008A1183120313540883160313B4008312C9
:100D90000313530883160313B3008312031352087B
:100DA00083160313B200831203135108831603132F
:100DB000B100792F4208A50001300310A50DFF3EB8
:100DC000031DDD2E0310250D693E84000A168A11CD
:100DD00000200A128A11F0000A168A1100200A1255
:100DE0008A11F1000A168A1100200A128A11F200F3
:100DF0000A168A1100200A128A11F3003408F7003B
:100E00003308F6003208F5003108F4000A168A119A
:100E1000DE210A128A11730883160313BA007208BE
:100E2000B9007108B8007008B7000030F300003056
:100E3000F2000030F1000A30F0003A08F7003908FB
:100E4000F6003808F5003708F4000A168A11D42095
:100E50000A128A11730883160313BA007208B900C4
:100E60007108B8007008B7003B0884003708303EAE
:100E7000831380000130A5002508BB074208A500A8
:100E800001300310A50DFF3E031D412F0310250D5A
:100E9000693E84000A168A1100200A128A11F000A5
:100EA0000A168A1100200A128A11F1000A168A1104
:100EB00000200A128A11F2000A168A1100200A1272
:100EC0008A11F3003408F7003308F6003208F50001
:100ED0003108F4000A168A11D4200A128A11730804
:100EE00083160313B4007208B3007108B2007008CF
:100EF000B1000130C202420A031D7F2F802FDA2E7B
:100F0000902F3B0884003030831380000130A5000F
:100F10002508BB07FF30BC070318BD0AFF30BD071B
:100F20003C083D04031D952F962F812FDA2F3C0896
:100F30003D04031D9C2F9D2FAB2F34083304320436
:100F40003104031DA42FA52FAB2F0130BC070318BC
:100F5000BD0A0030BD073D08803A803C031DB22F1A
:100F60003C0842020318B52FB62FB72FC62F8316A1
:100F700003133D08803AA50080302502031DC22FCF
:100F800042083C020318C52FC62FC62F0330831614
:100F900003132F05A50000303005A6002508260400
:100FA0000319D32FD42FDA2F3B0884002D3083135D
:100FB0008000C0290130A007FF30200784000A16F6
:100FC0008A1100200A128A11C2004208031DE92F6B
:100FD000EA2FB5293B08840083138001080083129F
:100FE0000313EE01EF018313C7308400DB300A16D0
:100FF0008A1558250A128A1183010A168A11252B8F
:1010060000307005F80000307105F9008030720577
:10101600FA007F307305FB007B087A0479047804B4
:10102600031D162817281F280030F3000030F20091
:101036000030F1000030F00000307405F800003098
:101046007505F90080307605FA007F307705FB00DC
:101056007B087A0479047804031D322833283B2858
:101066000030F7000030F6000030F5000030F400E4
:10107600F31F3E283F2863280030F8000030F900AF
:101086000030FA008030FB007008F8027108031C7B
:10109600710F4E284F28F9027208031C720F54284C
:1010A6005528FA027308031C730F5A285B28FB02A3
:1010B6007B08F3007A08F2007908F1007808F0005E
:1010C600F71F662867288B280030F8000030F900E3
:1010D6000030FA008030FB007408F8027508031C23
:1010E600750F76287728F9027608031C760F7C2878
:1010F6007D28FA027708031C770F82288328FB02D3
:101106007B08F7007A08F6007908F5007808F400FD
:101116008030F3068030F70677087302031D9D289A
:1011260076087202031D9D2875087102031D9D280D
:10113600740870020318A028A128A3280310A42865
:10114600031408007008F8007108F9007208FA0024
:101156000310790D7A0D83120313A5002508031DCC
:10116600B528B628BF280030F3000030F200003062
:10117600F1000030F0005B297408F8007508F900EA
:101186007608FA000310790D7A0DA4002408031DD1
:10119600CD28CE28CF28B628F117FF30F005FF302E
:1011A600F1050030F205F517FF30F405FF30F505BF
:1011B6000030F6050030A3000030A2000030A10088
:1011C6000030A0007F30A50298302407F800780888
:1011D600A5021830A4000130F8000310A00DA10DDF
:1011E600A20DA30DF80BF02876087202031D012943
:1011F60075087102031D012974087002031C042975
:10120600052910297408F0027508031C750FF102F0
:101216007608031C760AF202201401300310F00D42
:10122600F10DF20DFF3E031D11290130A402031D2D
:101236001D291E29EE28A51F212922293C2925081A
:10124600803A973E0318282929292A29B6280130E9
:101256000310A30CA20CA10CA00CFF3E031D2B290E
:101266000130F8007808A507031D3A293B292A29E9
:10127600532918302502031C412942294E29B62834
:101286000130F8000310A00DA10DA20DA30DF80B5F
:1012960045290130A5022508031D52295329432952
:1012A6002308F3002208F2002108F1002008F000CC
:1012B60008008312031327088039B1002708AC0001
:1012C6002C07B700A61F682969296A293714370829
:1012D60003196E296F297E29370A031D732974297C
:1012E6007C290030A7000030A6000030A5000030A1
:1012F600A400A61786290030A7000030A6000030FB
:10130600A5000030A4002B088039AC002C08B106DB
:101316002B08AC002C07B600AA1F92299329942902
:1013260036143608031998299929A829360A031D5F
:101336009D299E29A6290030AB000030AA00003066
:10134600A9000030A800AA17B0290030AB00003071
:10135600AA000030A9000030A80036080319B429F5
:10136600B529BA293708031DB929BA29C329003076
:10137600A7000030A6000030A5000030A400A02C75
:101386002408F0002A080A168A1566260A128A1503
:10139600710883120313BD007008BC003C08AC0042
:1013A600AD01AE01AF012F08B5002E08B4002D081F
:1013B600B3002C08B2003D08AC00AD01AE01AF0190
:1013C6002F08BB002E08BA002D08B9002C08B8005B
:1013D6002508F00029080A168A1566260A128A15B3
:1013E600710883120313BD007008BC003C08AC00F2
:1013F600AD01AE01AF012C08B2072D080311031889
:10140600013E0319072AB3072E0803110318013EEC
:1014160003190E2AB4072F0803110318013E0319F6
:10142600152AB5073D08AC00AD01AE01AF012C0889
:10143600B8072D0803110318013E0319232AB9071B
:101446002E0803110318013E03192A2ABA072F088A
:1014560003110318013E0319312ABB072608F000C1
:1014660028080A168A1566260A128A157108831232
:101476000313BD007008BC003C08AC00AD01AE0112
:10148600AF012C08B2072D0803110318013E0319FA
:101496004D2AB3072E0803110318013E0319542AD7
:1014A600B4072F0803110318013E03195B2AB50779
:1014B6003D08AC00AD01AE01AF012C08B8072D0800
:1014C60003110318013E0319692AB9072E080311EF
:1014D6000318013E0319702ABA072F0803110318CF
:1014E600013E0319772ABB070830AC000310B20D82
:1014F600B30DB40DB50DAC0B792A2508F0002808FC
:101506000A168A1566260A128A15710883120313AB
:10151600BD007008BC003C08AC003D08AD00AE0143
:10152600AF012C08B2072D0803110318013E031959
:101536009D2AB3072E0803110318013E0319A42A96
:10154600B4072F0803110318013E0319AB2AB50788
:101556002408F00029080A168A1566260A128A1532
:10156600710883120313BD007008BC003C08AC0070
:101576003D08AD00AE01AF012C08B2072D080311DE
:101586000318013E0319C82AB3072E0803110318CE
:10159600013E0319CF2AB4072F0803110318013E91
:1015A6000319D62AB5070830AC000310B20DB30DE7
:1015B600B40DB50DAC0BD82A2408F00028080A167D
:1015C6008A1566260A128A15710883120313BD004E
:1015D6007008BC003C08AC003D08AD00AE01AF0190
:1015E6002C08B2072D0803110318013E0319FC2A23
:1015F600B3072E0803110318013E0319032BB40782
:101606002F0803110318013E03190A2BB5072508F5
:10161600F0002A080A168A1566260A128A15710823
:1016260083120313BD007008BC003C08AC003D08E3
:10163600AD00AE01AF012C08B8072D080311031841
:10164600013E0319272BB9072E0803110318013E83
:1016560003192E2BBA072F0803110318013E03198D
:10166600352BBB072608F00029080A168A156626B8
:101676000A128A15710883120313BD007008BC0094
:101686003C08AC003D08AD00AE01AF012C08B80720
:101696002D0803110318013E0319522BB9072E0812
:1016A60003110318013E0319592BBA072F0803111A
:1016B6000318013E0319602BBB072608F0002A0811
:1016C6000A168A1566260A128A15710883120313EA
:1016D600BD007008BC003C08AC003D08AD00AE0182
:1016E600AF0108300310AC0DAD0DAE0DAF0DFF3ED2
:1016F600031D752B2C08B8072D0803110318013E8E
:101706000319862BB9072E0803110318013E031986
:101716008D2BBA072F0803110318013E0319942BCA
:10172600BB073208AC003308AD003408AE003508FC
:10173600AF0018300310AF0CAE0CAD0CAC0CFF3E76
:10174600031D9D2B2C08B8072D0803110318013E15
:101756000319AE2BB9072E0803110318013E03190E
:10176600B52BBA072F0803110318013E0319BC2B2A
:10177600BB070830AC000310B20DB30DB40DB50DA8
:10178600AC0BBE2B37083607AC00AD01AD0D2C08EF
:10179600823EBC002D080318013EFF3EBD00F02B23
:1017A6000130AC000310B80DB90DBA0DBB0DAC0B72
:1017B600D52BB51FDF2BE02BE12B38140130AC0005
:1017C6000310B20DB30DB40DB50DAC0BE32BFF300A
:1017D600BC070318BD0AFF30BD07BA1FF32BF42B55
:1017E600D32BB601B51FF82BF92B152CFF3032057C
:1017F600AC00FF303305AD00FF303405AE007F305E
:101806003505AF002F082E042D042C0403190C2CCB
:101816000D2C102CB601B60A152C381C132C142CC2
:10182600152C0D2C36080319192C1A2C4B2C0130AB
:10183600B807003003180130B9070030031801302B
:10184600BA07003003180130BB073B1C2B2C2C2C8D
:101856004B2C3808AC003908AD003A08AE003B08FE
:10186600AF000130B0002F0DAF0CAE0CAD0CAC0CC0
:10187600B00B362C2F08BB002E08BA002D08B90075
:101886002C08B8000130BC070318BD0A0030BD079C
:101896003D08803AFF0080307F02031D542CFF3044
:1018A6003C02031C572C582C632C7F3083120313E5
:1018B600BB008030BA000030B9000030B800942C6C
:1018C600831203133D08803AFF0080307F02031D18
:1018D6006E2C01303C020318712C722C7E2C0030C9
:1018E60083120313BB000030BA000030B900003089
:1018F600B800B101942C831203133C08B700FF30E3
:10190600B805FF30B9057F30BA050030BB05371C76
:101916008D2C8E2C8F2CBA173708AC0003102C0C8C
:10192600BB003108AC002C08BB043B08A7003A08F2
:10193600A6003908A5003808A4000800831203137E
:10194600D000D01FA72CA82C552ED009D00A50089D
:10195600803A123E031CB02CB12C992D0A30F700A8
:101966000030F8005008F200F301F21BF303643074
:10197600F0000030F1000A168A1128210A128A1591
:101986007108FA007008F9000A168A1144220A1230
:101996008A15770883120313C20001300310C20DA3
:1019A600FF3E031DD12C0310420D593E84000A163A
:1019B6008A1100200A128A15C3000A168A1100200D
:1019C6000A128A15C4000A168A1100200A128A15FC
:1019D600C5000A168A1100200A128A15C600460892
:1019E600A7004508A6004408A5004308A4006430E3
:1019F600F7000030F8005008F900FA01F91BFA0365
:101A06000A168A1144220A128A15770883120313CA
:101A1600C70001300310C70DFF3E031D0D2D031037
:101A2600470D7D3E84000A168A1100200A128A1587
:101A3600C8000A168A1100200A128A15C9000A1659
:101A46008A1100200A128A15CA000A168A11002075
:101A56000A128A15CB004B08AB004A08AA004908AF
:101A6600A9004808A8000A128A155C210A128A15DC
:101A7600831203132708CF002608CE002508CD00C1
:101A86002408CC000A30F0000030F1005008F200C3
:101A9600F301F21BF3030A168A1128210A128A158A
:101AA600700883120313C20001300310C20DFF3EFB
:101AB600031D582D0310420D353E84000A168A1167
:101AC60000200A128A15C3000A168A1100200A127B
:101AD6008A15C4000A168A1100200A128A15C50042
:101AE6000A168A1100200A128A15C6004608A7009F
:101AF6004508A6004408A5004308A4004F08AB000B
:101B06004E08AA004D08A9004C08A8000A128A151A
:101B16005C210A128A15831203132708C1002608BE
:101B2600C0002508BF002408BE00FF2F5008803AD9
:101B3600753E031C9F2DA02D282E0A30F000003084
:101B4600F1005008F200F301F21BF3030A168A11A2
:101B560028210A128A15700883120313C200013065
:101B66000310C20DFF3E031DB32D0310420D353E7B
:101B760084000A168A1100200A128A15C3000A1662
:101B86008A1100200A128A15C4000A168A1100203A
:101B96000A128A15C5000A168A1100200A128A1529
:101BA600C6004608A7004508A6004408A500430845
:101BB600A4000A30F7000030F8005008F900FA01D6
:101BC600F91BFA030A168A1144220A128A157708A3
:101BD60083120313C70001300310C70DFF3E031D18
:101BE600EF2D0310470D593E84000A168A11002076
:101BF6000A128A15C8000A168A1100200A128A15C6
:101C0600C9000A168A1100200A128A15CA000A1685
:101C16008A1100200A128A15CB004B08AB004A082D
:101C2600AA004908A9004808A8000A128A155C21DA
:101C36000A128A15831203132708C1002608C0005A
:101C46002508BF002408BE00FF2F5008C20001303F
:101C56000310C20DFF3E031D2B2E0310420D353E11
:101C660084000A168A1100200A128A15C3000A1671
:101C76008A1100200A128A15C4000A168A11002049
:101C86000A128A15C5000A168A1100200A128A1538
:101C9600C6004608C1004508C0004408BF00430806
:101CA600BE00FF2F5008803A123E031C5B2E5C2EAE
:101CB600442F0A30F7000030F8005008F200F30114
:101CC600F21BF3036430F0000030F1000A168A11AB
:101CD60028210A128A157108FA007008F9000A16F6
:101CE6008A1144220A128A15770883120313C20046
:101CF60001300310C20DFF3E031D7C2E0310420D62
:101D0600253E84000A168A1100200A128A15C3008D
:101D16000A168A1100200A128A15C4000A168A11A8
:101D260000200A128A15C5000A168A1100200A1216
:101D36008A15C6004608A7004508A6004408A5005F
:101D46004308A4006430F7000030F8005008F9009A
:101D5600FA01F91BFA030A168A1144220A128A1595
:101D6600770883120313C70001300310C70DFF3E27
:101D7600031DB82E0310470D493E84000A168A112A
:101D860000200A128A15C8000A168A1100200A12B3
:101D96008A15C9000A168A1100200A128A15CA0075
:101DA6000A168A1100200A128A15CB004B08AB00CE
:101DB6004A08AA004908A9004808A8000A128A1574
:101DC6005C210A128A15831203132708CF002608FE
:101DD600CE002508CD002408CC000A30F0000030E3
:101DE600F1005008F200F301F21BF3030A168A1100
:101DF60028210A128A15700883120313C2000130C3
:101E06000310C20DFF3E031D032F0310420D013EBA
:101E160084000A168A1100200A128A15C3000A16BF
:101E26008A1100200A128A15C4000A168A11002097
:101E36000A128A15C5000A168A1100200A128A1586
:101E4600C6004608A7004508A6004408A5004308A2
:101E5600A4004F08AB004E08AA004D08A9004C0884
:101E6600A8000A128A155C210A128A158312031326
:101E76002708C1002608C0002508BF002408BE00A8
:101E8600FF2F5008803A753E031C4A2F4B2FD32F45
:101E96000A30F0000030F1005008F200F301F21BA6
:101EA600F3030A168A1128210A128A15700883126A
:101EB6000313C20001300310C20DFF3E031D5E2F47
:101EC6000310420D013E84000A168A1100200A12F0
:101ED6008A15C3000A168A1100200A128A15C40040
:101EE6000A168A1100200A128A15C5000A168A11D6
:101EF60000200A128A15C6004608A7004508A60053
:101F06004408A5004308A4000A30F7000030F80092
:101F16005008F900FA01F91BFA030A168A1144223D
:101F26000A128A15770883120313C70001300310BB
:101F3600C70DFF3E031D9A2F0310470D253E840053
:101F46000A168A1100200A128A15C8000A168A1172
:101F560000200A128A15C9000A168A1100200A12E0
:101F66008A15CA000A168A1100200A128A15CB00A1
:101F76004B08AB004A08AA004908A9004808A8006F
:101F86000A128A155C210A128A158312031327087E
:101F9600C1002608C0002508BF002408BE00FF2F88
:101FA6005008C20001300310C20DFF3E031DD62F9C
:101FB6000310420D013E84000A168A1100200A12FF
:101FC6008A15C3000A168A1100200A128A15C4004F
:101FD6000A168A1100200A128A15C5000A168A11E5
:101FE60000200A128A15C6004608C1004508C0002E
:101FF6004408BF004308BE00080010308A000408E9
:10200600840A820700340034003480343F340034BC
:1020160000342034413400340034C83442340034AF
:1020260000347A344434003440341C3446340034AA
:102036005034C3344734003424347434493480343F
:10204600963418344B342034BC34BE344C342834E3
:102056006B346E344E34F934023415345034EC3467
:102066007834AD346034CA34F234493471340034CF
:10207600003480343F34CD34CC34CC343D340A344F
:10208600D73423343C346F34123483343A3417341F
:10209600B734D1343834AC34C53427343734BD344E
:1020A6003734863435349534BF34D63433347734C4
:1020B600CC342B3432345F34703489343034FF34CA
:1020C600E634DB342E340834E5343C341E346034D4
:1020D6004234A2340D3401340034003400340A345E
:1020E6000034003400346434003400340034E834FE
:1020F6000334003400341034273400340034A03460
:10210600863401340034403442340F340034803491
:102116009634983400340034E134F5340534003410
:10212600CA349A343B344434693473347434613475
:102136006E346334693461343A34203425342E34B1
:0A2146003134663463346D34003424
:10215800831603178801890183160313850102304A
:1021680086008801831203138501860188010030E7
:10217800A3000130A2008630A100A030A0000A16FA
:102188008A15F0260A168A1107300A168A15A1251B
:102198000A168A110A168A1181210A168A1108005C
:1021A80073087204710470040319DB28DC281F29E2
:1021B800F901F90AEC280130F8000310F00DF10DCF
:1021C800F20DF30DF80BE1280130F8007808F90753
:1021D800F31FEF28F028DF2873087702031DFE2875
:1021E80072087602031DFE2871087502031DFE2879
:1021F80070087402031C0129022910297008F402CE
:102208007108031C710FF5027208031C720FF602A5
:102218007308031C730FF70201300310F30CF20C60
:10222800F10CF00CFF3E031D11290130F902031DCA
:102238001E291F29F0287708F3007608F200750890
:10224800F1007408F0000800F601F31F2C292D296D
:102258003429F209F309F20A0319F30AF601F60A16
:10226800F11F372938293D29F009F109F00A031926
:10227800F10A700871040319422943297229F501EA
:10228800F50A512901300310F00DF10DFF3E031D31
:1022980047290130F4007408F507F11F542955291E
:1022A800462971087302031D5B2970087202031C1A
:1022B8005E295F2965297008F2027108031CF3037F
:1022C800F30201300310F10CF00CFF3E031D6629E8
:1022D8000130F502031D7129722955297608031961
:1022E800762977297C29F209F309F20A0319F30AF6
:1022F8007308F1007208F000080000300A168A1509
:10230800FB250A168A113430F500F130F400F40B7D
:102318008B29F50B8B29902903300A168A15C025BD
:102328000A168A110D30F500FB30F400F40B9A29D7
:10233800F50B9A299F2903300A168A15C0250A1613
:102348008A111D30F5009130F400F40BA929F50B22
:10235800A92903300A168A15C0250A168A110230DF
:102368000A168A15C0250A168A1102300A168A1515
:10237800C0250A168A1108300A168A15C0250A16B9
:102388008A1100300A168A15C0250A168A110C30DF
:102398000A168A15C0250A168A1100300A168A15E7
:1023A800C0250A168A1106300A168A15C0250A168B
:1023B8008A1108000030FC000030FB000030FA00F1
:1023C8000030F90073087204710470040319ED29D0
:1023D800EE293B2AFD01FD0AFE290130F800031011
:1023E800F00DF10DF20DF30DF80BF3290130F800A3
:1023F8007808FD07F31F012A022AF1290130F800A5
:102408000310F90DFA0DFB0DFC0DF80B042A7308E7
:102418007702031D192A72087602031D192A71080A
:102428007502031D192A70087402031C1C2A1D2A30
:102438002C2A7008F4027108031C710FF502720847
:10244800031C720FF6027308031C730FF70279144A
:1024580001300310F30CF20CF10CF00CFF3E031DDD
:102468002D2A0130FD02031D3A2A3B2A022A7C0844
:10247800F3007B08F2007A08F1007908F000080000
:1024880083120313A101F81F4A2A4B2A522AF7097B
:10249800F809F70A0319F80AA101A10AFA1F552A2F
:1024A800562A5F2AF909FA09F90A0319FA0A0130C2
:1024B800FB007B08A106A201A30177087804031991
:1024C800662A672A9E2AA001A00A752A01300310ED
:1024D800F70DF80DFF3E031D6B2A0130FB007B084A
:1024E800A007F81F782A792A6A2A01300310A20D5A
:1024F800A30DFF3E031D7A2A78087A02031D862A57
:1025080077087902031C892A8A2A912A7708F9020E
:102518007808031CFA03FA02221401300310F80C9D
:10252800F70CFF3E031D922A0130A002031D9D2ACD
:102538009E2A792A21080319A22AA32AA82AA209CD
:10254800A309A20A0319A30A2308F8002208F7001E
:102558000800031083120313530D540DDA005A08B0
:10256800031DB72AB82AC12A0030D4000030D3008E
:102578000030D2000030D100242B5108D500520879
:10258800D6005308D7005408D8001F300310D80CC1
:10259800D70CD60CD50CFF3E031DCA2A5508D90006
:1025A800D317FF30D105FF30D205FF30D3050030F7
:1025B800D4059630DA02DA1FE22AE32AFD2A5A08FD
:1025C800803A973E0318E92AEA2AEB2AB82A01300A
:1025D8000310D40CD30CD20CD10CFF3E031DEC2AF3
:1025E8000130D5005508DA07031DFB2AFC2AEB2A1F
:1025F800142B20305A02031C022B032B0F2BB82A52
:102608000130D5000310D10DD20DD30DD40DD50B4B
:10261800062B0130DA025A08031D132B142B042B46
:1026280059080319182B192B242BD109D209D309BE
:10263800D409D10A0319D20A0319D30A0319D40AEF
:1026480008000A168A11AC200A168A110A168A1579
:1026580094250A168A110A168A1560250A168A11FF
:102668001130F0000030F1000A168A1572250A169A
:102678008A110030F000F1000A168A158D260A1614
:102688008A11700883160313C3007108C400C501BA
:10269800C6014608F9004508F8004408F700430851
:1026A800F60000300A128A11F5200A168A117908F4
:1026B80083160313CA007808C9007708C80076088B
:1026C800C7000A168A1569250A168A110330831667
:1026D8000313C5000830C4007630C300C30B722B47
:1026E800C40B722BC50B722B000091308316031399
:1026F800A0004A08A4004908A3004808A200470807
:10270800A100CB300A128A11AF210A168A11F401EE
:10271800F40A01300A168A156C270A168A11CB307A
:102728000A168A15DA250A168A112F2B0A128A1117
:10273800002883120313D1006E305102031CA52B0D
:10274800A62BB32C3F30A7000030A6000030A50010
:102758000030A4006430F6000030F7005108C200D1
:10276800C3014208F8004308F9000A168A15282709
:102778000A168A11760883120313C4000130031065
:10278800C40DFF3E031DC32B0310440D7D3E840082
:102798000A168A1100200A168A11C5000A168A111B
:1027A80000200A168A11C6000A168A1100200A1685
:1027B8008A11C7000A168A1100200A168A11C80051
:1027C8004808AB004708AA004608A9004508A80021
:1027D8000A128A155C210A168A1183120313270824
:1027E800D0002608CF002508CE002408CD000A30E6
:1027F800F6000030F7005108C200C3014208F20099
:102808004308F3006430F0000030F1000A128A1126
:1028180003200A168A117108F9007008F8000A16D0
:102828008A1528270A168A11760883120313C4000A
:1028380001300310C40DFF3E031D1D2C0310440D71
:10284800593E84000A168A1100200A168A11C5000A
:102858000A168A1100200A168A11C6000A168A1159
:1028680000200A168A11C7000A168A1100200A16C3
:102878008A11C8004808A7004708A6004608A5000E
:102888004508A4005008AB004F08AA004E08A9004C
:102898004D08A8000A128A155C210A168A118312AB
:1028A80003132708CC002608CB002508CA002408F3
:1028B800C9000A30F0000030F1005108C200C3011D
:1028C8004208F2004308F3000A128A1103200A168C
:1028D8008A11700883120313C40001300310C40D59
:1028E800FF3E031D722C0310440D353E84000A166A
:1028F8008A1100200A168A11C5000A168A110020BA
:102908000A168A11C6000A168A1100200A168A11A8
:10291800C7000A168A1100200A168A11C80048083A
:10292800A7004708A6004608A5004508A4004C08CB
:10293800AB004B08AA004A08A9004908A8000A12D7
:102948008A155C210A168A11831203132708C1000D
:102958002608C0002508BF002408BE00A72D0B309C
:102968005102031CB82CB92C642D3F30A70000304D
:10297800A6000030A5000030A4000A30F6000030A0
:10298800F7005108C200C3014208F8004308F900E3
:102998000A168A1528270A168A117608831203133D
:1029A800C40001300310C40DFF3E031DD62C0310D4
:1029B800440D593E84000A168A1100200A168A110D
:1029C800C5000A168A1100200A168A11C6000A16BE
:1029D8008A1100200A168A11C7000A168A110020D7
:1029E8000A168A11C8004808AB004708AA0046081A
:1029F800A9004508A8000A128A155C210A168A113E
:102A0800831203132708D0002608CF002508CE001C
:102A18002408CD000A30F0000030F1005108C2004F
:102A2800C3014208F2004308F3000A128A11032086
:102A38000A168A11700883120313C40001300310A8
:102A4800C40DFF3E031D232D0310440D353E8400A5
:102A58000A168A1100200A168A11C5000A168A1158
:102A680000200A168A11C6000A168A1100200A16C2
:102A78008A11C7000A168A1100200A168A11C8008E
:102A88004808A7004708A6004608A5004508A4006E
:102A98005008AB004F08AA004E08A9004D08A8002E
:102AA8000A128A155C210A168A1183120313270851
:102AB800C1002608C0002508BF002408BE00A72DB5
:102AC8003F30A7000030A6000030A5000030A40069
:102AD8005108C20001300310C20DFF3E031D6F2DC7
:102AE8000310420D353E84000A168A1100200A168A
:102AF8008A11C3000A168A1100200A168A11C40016
:102B08000A168A1100200A168A11C5000A168A11A7
:102B180000200A168A11C6004608AB004508AA001C
:102B28004408A9004308A8000A128A155C210A165D
:102B38008A11831203132708C1002608C00025083C
:102B4800BF002408BE00080083120313550880390B
:102B5800E2005508DA005A07E400D41FB42DB52D59
:102B6800B62D641464080319BA2DBB2DCB2D640A45
:102B7800031DBF2DC02DC82D0030D5000030D40056
:102B88000030D3000030D200D417D501D32D003047
:102B9800D5000030D4000030D3000030D2005908EE
:102BA8008039E300630862060319DB2DDC2DDD2D77
:102BB80062175908DA005A07E300D81FE42DE52DFB
:102BC800E62D631463080319EA2DEB2DFB2D630A28
:102BD800031DEF2DF02DF82D0030D9000030D8005E
:102BE8000030D7000030D600D817D901032E0030A6
:102BF800D9000030D8000030D7000030D600640873
:102C080063020318082E092E2F2E621F0C2E0D2E7C
:102C1800112E8030DA005A08E2066408E5006308DD
:102C2800E4006508E3005208E5005608D20065088C
:102C3800D6005308E5005708D3006508D7005408A4
:102C4800E5005808D4006508D8005508E50059087B
:102C5800D5006508D900E5016308DA00DB015B08E7
:102C6800DD0064085A02DC00031CDD035D08803ABD
:102C7800FF0080307F02031D432E1A305C02031CC4
:102C8800462E472E7E2E83120313550854045304F0
:102C98005204031D502E522E0130532E0030E500F1
:102CA8000030D5000030D4000030D3000030D2000E
:102CB8006308E400862E651C622E632E6A2E650862
:102CC800DA0003105A0C0138E5006C2E0310E50CED
:102CD800521C6F2E702E712EE5170130DA00550D3B
:102CE800D50CD40CD30CD20CDA0B732E0130DA00CD
:102CF8005A08E4078312031363086402031C852E31
:102D0800862E5F2E621B892E8A2ED32E6408031D01
:102D18008E2E8F2E982E0030D5000030D400003033
:102D2800D3000030D200FF2F5608D20757080311EE
:102D38000318013E0319A12ED307580803110318DD
:102D4800013E0319A82ED407590803110318013EA0
:102D58000319AF2ED507551CB22EB32E872F651C2D
:102D6800B62EB72EBE2E6508DA0003105A0C0138AD
:102D7800E500C02E0310E50C521CC32EC42EC52E30
:102D8800E5170130DA00550DD50CD40CD30CD20C54
:102D9800DA0BC72E0130DA005A08E407872F5508E6
:102DA800803AFF005908803A7F02031DE52E580833
:102DB8005402031DE52E57085302031DE52E56083D
:102DC80052020318E82EE92E412FFF30DA00FF30B7
:102DD800DB00FF30DC00FF30DD005608DE0057085E
:102DE800DF005808E0005908E1005208DE025308E5
:102DF800031C530F002F012FDF025408031C540F2C
:102E0800062F072FE0025508031C550F0C2F0D2F16
:102E1800E1025E08DA075F0803185F0F142F152F09
:102E2800DB0760080318600F1A2F1B2FDC076108E7
:102E38000318610ADD075D08D5005C08D4005B084B
:102E4800D3005A08D2008030DA005A08E206E509B1
:102E5800E50A6508031D312F322F4F2F0130D207A5
:102E6800003003180130D307003003180130D407AD
:102E7800003003180130D5074F2F5608D2025708E3
:102E8800031C570FD3025808031C580FD4025908C3
:102E9800031C590FD5025508540453045204031D4A
:102EA800562F572F832F6508031D5B2F5C2F832F09
:102EB8000030D5000030D4000030D3000030D200FC
:102EC800FF2F0130DA000310D20DD30DD40DD50D2C
:102ED800DA0B672FE51F712F722F732F5214651CA1
:102EE800762F772F7A2F0314E50D7C2F0310E50D2D
:102EF80064080319802F812F832F0130E402D41F27
:102F0800862F872F652FE301E51F8B2F8C2F9A2F94
:102F180065087F390319912F922F952FE301E30A52
:102F28009A2F521C982F992F9A2F922F63080319C2
:102F38009E2F9F2FD32F0130D20700300318013066
:102F4800D307003003180130D407003003180130CC
:102F5800D507551CB02FB12FD32F5208DA005308CC
:102F6800DB005408DC005508DD000130DE005D0D93
:102F7800DD0CDC0CDB0CDA0CDE0BBB2F5D08D5009E
:102F88005C08D4005B08D3005A08D200640A03190D
:102F9800CE2FCF2FD32F0130DA005A08E407640A66
:102FA8000319D72FD82FDD2F6408031DDC2FDD2F41
:102FB800EB2F0030D5000030D4000030D3000030B3
:102FC800D2006408031DE92FEA2FEB2FE201641CED
:102FD800EE2FEF2FF12FD417F52F7F30DA005A0894
:102FE800D4056408DA0003105A0CD500E21FFD2F3F
:082FF800FE2FFF2FD517080082
:103AB00064008001840A0406031900340406592DA9
:103AC0000A168A1587250A168A15831603131114F8
:103AD00008000A168A1587250A168A158316031305
:103AE000111508000A168A1587250A168A15700806
:103AF00083120313930008007308720471047004A6
:103B00000319832D842D862D8030F306080083163B
:103B1000031314198C2D8D2D872D11081F39031DAA
:103B2000922D932D872D080000300A168A15C02586
:103B30000A168A1501300A168A15C0250A168A1532
:103B40000800F1007108F000F00E831603130F084F
:103B500070068F3970068F000F140800F100F00115
:103B60003A3071020318B52DB62DBE2D30307102DA
:103B7000031CBB2DBC2DBE2DF001F00A700C0800FB
:103B8000F30083120313081173080A168A15FB2524
:103B90000A168A158312031388150B30F20062305F
:103BA000F100F10BD12DF20BD12D00008312031384
:103BB00088110800F800F601F701EF2D7608780764
:103BC000F5007508840000080A168A15BB260A1637
:103BD0008A150130F6070318F70A0030F707760850
:103BE0007807F5007508840083130008031DF92D7C
:103BF000FA2DDE2D0800F000701CFF2D002E042E83
:103C0000831203130816072E831203130812F01CE5
:103C10000A2E0B2E0D2E88160E2E8812701D112EB8
:103C2000122E142E0817152E0813F01D182E192EFB
:103C30001B2E88171C2E8813080080308312031354
:103C4000E9066D08D5006C08D4006B08D3006A083B
:103C5000D2006908D9006808D8006708D70066084C
:103C6000D6000A168A11A8250A168A15831203138C
:103C70005508E9005408E8005308E7005208E60038
:103C80000800F401F501701C462E472E4D2E7208D7
:103C9000F4070318F50A7308F50701300310F20D55
:103CA000F30DFF3E031D4E2E01300310F10CF00CFE
:103CB000FF3E031D552E70087104031D602E612EFA
:103CC000432E7508F1007408F0000800F800F401B4
:103CD000F5017008F200F3017208F6007308F700AE
:103CE000781C732E742E7A2E7608F4070318F50AC2
:103CF0007708F50701300310F60DF70DFF3E031DA1
:103D00007B2E0310F80C7808031D872E882E702E4A
:103D10007508F1007408F00008000A168A15872556
:103D20000A168A158316031391150A168A15872514
:103D30000A168A15831203131308F200F30172089E
:103D4000F4007308F5000A168A1587250A168A15E5
:103D500070037104031DAD2EAE2EB22E8316031315
:103D60009112B52E83160313911611167508F100E2
:103D70007408F0000800F40074080F39F2007408A9
:103D8000F039F3008312031308157308F1000430AF
:103D90000310F10CFF3E031DC82E71080A168A1588
:103DA000FB250A168A158312031388151A30F100B1
:103DB000F10BD82E000083120313881172080A1623
:103DC0008A15FB250A168A158312031388151A30E3
:103DD000F100F10BE92E0000831203138811080093
:103DE0002830831203139400831603139101831266
:103DF00003132008A4002108A5002208A600230818
:103E0000A70002300310A40DA50DA60DA70DFF3EBF
:103E1000031D022F2708F3002608F2002508F100F1
:103E20002408F0000030F7007A30F6001230F50078
:103E30000030F4000A168A11DE210A168A1570086D
:103E4000FF3E83160313930094018715071608009D
:103E5000FB01FC017608770403192F2F302F672F01
:103E6000FD01FD0A3E2F01300310F60DF70DFF3E58
:103E7000031D342F0130FA007A08FD07F71F412F88
:103E8000422F332F01300310FB0DFC0DFF3E031DAD
:103E9000432F77087902031D4F2F76087802031C01
:103EA000522F532F5A2F7608F8027708031CF90374
:103EB000F9027B1401300310F70CF60CFF3E031DD2
:103EC0005B2F0130FD02031D662F672F422F7C08F8
:103ED000F7007B08F6000800F6007603031D712F3B
:103EE000722F8F2F74087F3EF9007908F500043097
:103EF0000310F50CFF3E031D782F7508F7007908B5
:103F00000F39F80077080A168A15C0250A168A158F
:103F100078080A168A15C0250A168A15B12F0230AC
:103F20007606031D942F952FB12F7408BF3EF9001C
:103F30007908F50004300310F50CFF3E031D9B2F9C
:103F40007508F70079080F39F80077080A168A15FE
:103F5000C0250A168A1578080A168A15C0250A1679
:103F60008A15080000307005F80000307105F9006E
:103F700080307205FA007F307305FB007B087A04FD
:103F800079047804031DC52FC62FCE2F0030F3000F
:103F90000030F2000030F1000030F0000030740515
:103FA000F80000307505F90080307605FA007F30A2
:103FB0007705FB007B087A0479047804031DE12F60
:103FC000E22FEA2F0030F7000030F6000030F50055
:103FD0000030F40077087306031DF82F7608720688
:103FE000031DF82F75087106031DF82F740870065D
:103FF0000319FB2FFC2FFE2F0310FF2F03140800C3
:08400000FF3FFF3FFF3FFF3FC0
:04400E00D420FF3F7C
:00000001FF
