:100000000A128A11EF2FFF1B0D2883137F18831705
:100010000008840A0319FF0A080000308A00040857
:10002000840A820700340034003480343F340034C2
:1000300000342034413400340034C83442340034B5
:1000400000347A344434003440341C3446340034B0
:100050005034C33447340034243474344934803445
:10006000963418344B342034BC34BE344C342834E9
:100070006B346E344E34F934023415345034EC346D
:100080007834AD346034CA34F234493471340034D5
:10009000003480343F34CD34CC34CC343D340A3455
:1000A000D73423343C346F34123483343A34173425
:1000B000B734D1343834AC34C53427343734BD3454
:1000C0003734863435349534BF34D63433347734CA
:1000D000CC342B3432345F34703489343034FF34D0
:1000E000E634DB342E340834E5343C341E346034DA
:1000F0004234A2340D3401340034003400340A3464
:100100000034003400346434003400340034E83403
:100110000334003400341034273400340034A03465
:10012000863401340034403442340F340034803497
:100130009634983400340034E134F5340534003416
:10014000CA349A343B34443469347334743461347B
:100150006E346334693461343A34203425342E34B7
:1001600031346634203463346D3400344C344934D3
:100170004E344534413400345634453452344434DA
:10018000453400344C34493442345234453400341C
:100190004E34413444344134003441345A345534BB
:0E01A0004C34003452344F344A344F3400345F
:1001B40083160317880189018316031385011F30F1
:1001C40086008801811315149514151595151516B7
:1001D4001F309600831203138601880108148810C7
:1001E40008158811080083120313A00020080319BE
:1001F400FC28FD281129F91F002901291129760954
:10020400A2007709A3007809A4007909A500A20A2D
:100214000319A30A0319A40A0319A50A19297908B9
:10022400A5007808A4007708A3007608A20079083E
:10023400780477047604031D202921292A29003013
:10024400F9000030F8000030F7000030F600AE2965
:100254009630A1003A290130FA007A08A10701304A
:100264000310A50CA40CA30CA20CFF3E031D322901
:10027400FE302505031D3F2940292D295C29013025
:10028400FA007A08A1070130A207003003180130F0
:10029400A307003003180130A4070030031801300D
:1002A400A50701300310A50CA40CA30CA20CFF3E5F
:1002B400031D5429FF302505031D612962294129A5
:1002C4006E290130A1020130FA000310A20DA30D22
:1002D400A40DA50DFA0B6729A41B7129722978298D
:1002E40002302102031877297829632921187B29F0
:1002F4007C298429FF30A205FF30A3057F30A405A3
:10030400FF30A5050310A10C2108FA00FB01FC0134
:10031400FD0118300310FA0DFB0DFC0DFD0DFF3E21
:10032400031D8C297A08A2047B08A3047C08A40476
:100334007D08A50420080319A029A129A629F91FCD
:10034400A429A529A629A5172508F9002408F80039
:100354002308F7002208F600080083160313BB00E5
:10036400A130AE00DA2F253042060319BA29BB2981
:10037400C5293B0884004208831380000130A5008E
:100384002508BB07DA2FAF01B001200884000A1248
:100394008A110D200A128A112E3A031DD229D3295B
:1003A400182A30170130A5002508A007BC01BD019B
:1003B400072A0A30F0000030F100831603133D08C9
:1003C400F3003C08F2000A168A1567240A128A11FF
:1003D400710883160313BD007008BC002008840054
:1003E4000A128A110D200A128A11D03EA500FF308C
:1003F40003180030A6002508BC070318BD0A260808
:10040400BD070130A5002508A007200884000A12B2
:100414008A110D200A128A110A168A15D0230A128B
:100424008A110318162A172ADB291E2ABC01BD01CA
:1004340030161E2A30153A2A013083160313A007FA
:10044400FF30200784000A128A110D200A128A1133
:10045400C200A500A6012608003A0319322ADA2FA1
:100464002508003A0319EA2F663A03191C2ADA2FE1
:1004740000302F05A50007303005A6002508260406
:100484000319452A462A972F301E492A4A2A4E2AFA
:100494000630BC000030BD002E0884008313000821
:1004A400BE00840A0008BF00840A0008C000840A51
:1004B4000008C1000430A5002508AE074108F30078
:1004C4004008F2003F08F1003E08F0000030F70059
:1004D4000030F6000030F5000030F4000A128A15EE
:1004E40002200A128A110318782A792A962A831676
:1004F40003134108F3004008F2003F08F1003E08EE
:10050400F0000A168A159E230A128A1173088316AC
:100514000313C1007208C0007108BF007008BE0058
:100524000330AF040030B00483160313B501B601E1
:100534004108F3004008F2003F08F1003E08F000D3
:100544000030F7000030F6000030F5000030F40011
:100554000A168A1542260A128A110318B22AB32AE5
:10056400A32B031083160313400D410D823EB500E7
:10057400FF3003180030B600FF30B5070318B60A81
:10058400FF30B6070330F0000030F1003608F30006
:100594003508F2000A168A1567240A128A117108AE
:1005A40083160313B6007008B5000A30F700003054
:1005B400F8003608FA003508F9000A168A113A20BC
:1005C4000A128A11780883160313B6007708B50057
:1005D400B61FED2AEE2AF42AFF30B5070318B60A2F
:1005E400FF30B6073503FF3A0A128A15A1240A120E
:1005F4008A1183120313410883160313BA0083126A
:100604000313400883160313B900831203133F082E
:1006140083160313B800831203133E0883160313CF
:10062400B700410883120313A7008316031340087D
:1006340083120313A600831603133F0883120313C4
:10064400A500831603133E0883120313A400831624
:1006540003133A0883120313AB00831603133908F8
:1006640083120313AA008316031338088312031397
:10067400A90083160313370883120313A8000A1270
:100684008A155C210A128A11831203132708831620
:100694000313BA0083120313260883160313B90045
:1006A40083120313250883160313B800831203135C
:1006B400240883160313B7003A08F3003908F2003C
:1006C4003808F1003708F0003F30F7008030F600BA
:1006D4000030F5000030F4000A128A1502200A12D4
:1006E4008A110318762B772B802BFF308316031384
:1006F400B5070318B60AFF30B607A32B83160313F6
:100704003A08F3003908F2003808F1003708F0001D
:100714004130F7002030F6000030F5000030F400DE
:100724000A128A1502200A128A11031C9A2B9B2B87
:10073400A32B013083160313B5070318B60A003040
:10074400B607831603133D08803AFF0080307F020A
:10075400031DAE2B0D303C020318B12BB22BF92B29
:10076400831603133C080A168A119D230A128A1160
:10077400831203134108D5004008D4003F08D30076
:100784003E08D20083160313410883120313D900D1
:1007940083160313400883120313D800831603132C
:1007A4003F0883120313D700831603133E088312F2
:1007B4000313D6000A168A11A8250A128A11831275
:1007C4000313550883160313C1008312031354083B
:1007D40083160313C00083120313530883160313F1
:1007E400BF0083120313520883160313BE0083163B
:1007F40003133608803AFF0080307F02031D042C67
:100804000A3035020318072C082C592C83160313BD
:100814004108F3004008F2003F08F1003E08F000F0
:100824000030F7000030F6000030F5000030F4002E
:100834000A168A1542260A128A110318222C232C1E
:10084400CB2C83160313410883120313D40083169D
:100854000313400883120313D300831603133F08C2
:1008640083120313D200831603133E088312031367
:10087400D1000A168A11A3200A128A1183120313C3
:100884005408530452045104031D492C4A2CCB2C04
:10089400831603133608803AFF0080307F02031D5D
:1008A400552C02303502031C582C592CCB2C8316A2
:1008B40003133A08F3003908F2003808F100370846
:1008C400F0004030F7008930F6007030F5005F30FA
:1008D400F4000A128A1502200A128A110318732CD2
:1008E400742C7D2CF73083160313B5070318B60A4E
:1008F400FF30B607852CF83083160313B5070318A9
:10090400B60AFF30B60735080A128A15A1240A125E
:100914008A1183120313410883160313BA00831246
:100924000313400883160313B900831203133F080B
:1009340083160313B800831203133E0883160313AC
:10094400B7004108F3004008F2003F08F1003E08F8
:10095400F0003A08F7003908F6003808F5003708BF
:10096400F4000A128A15A4200A128A117308831645
:100974000313B4007208B3007108B2007008B10028
:100984000030C1000030C0000030BF000030BE00A5
:100994004F2D83160313410883120313D4008316C7
:1009A4000313400883120313D300831603133F0871
:1009B40083120313D200831603133E088312031316
:1009C400D1000A168A11A3200A128A118312031372
:1009D400540883160313B4008312031353088316B5
:1009E4000313B30083120313520883160313B200D4
:1009F40083120313510883160313B1003408F9005A
:100A04003308F8003208F7003108F60000300A1203
:100A14008A11F5200A128A11790883120313E90056
:100A24007808E8007708E7007608E60083160313E1
:100A3400410883120313ED00831603134008831245
:100A44000313EC00831603133F0883120313EB0014
:100A5400831603133E0883120313EA000A168A1549
:100A64001E240A128A1183120313690883160313BE
:100A7400C10083120313680883160313C000831292
:100A84000313670883160313BF0083120313660856
:100A940083160313BE00B501B601C201C20A42089F
:100AA400A50001300310A50DFF3E031D542D0310B6
:100AB400250D693E84000A128A110D200A128A113A
:100AC400A6000A128A110D200A128A11A7000A121E
:100AD4008A110D200A128A11A8000A128A110D2007
:100AE4000A128A11A90029083402031D832D28083B
:100AF4003302031D832D27083202031D832D26088C
:100B040031020318862D872D882D922D0130A500E2
:100B14002508C2070A304206031D912D922D512D3E
:100B240003302F05A50000303005A6002508260453
:100B340003199D2D9E2D0C2E3B0884002D3083130C
:100B440080000130A5002508BB070C2E4208A50033
:100B540001300310A50DFF3E031DAB2D0310250D21
:100B6400693E84000A128A110D200A128A11F000CB
:100B74000A128A110D200A128A11F1000A128A112E
:100B84000D200A128A11F2000A128A110D200A128B
:100B94008A11F3003408F7003308F6003208F50030
:100BA4003108F4000A168A159A270A128A11730862
:100BB40083160313BA007208B9007108B8007008EC
:100BC400B7000030F3000030F2000030F1000A30CA
:100BD400F0003A08F7003908F6003808F50037083D
:100BE400F4000A168A1590260A128A1173088316CD
:100BF4000313BA007208B9007108B8007008B7008E
:100C04003B0884003708303E831380000130A50080
:100C14002508BB070130C202420A031D122E132EFF
:100C2400A82D252E831603133B088400303083132C
:100C340080000130A5002508BB07FF30B507031865
:100C4400B60AFF30B6073608803AFF0080307F02CC
:100C5400031D2E2E013035020318312E322E142E90
:100C6400831603133D08803AFF0080307F02031D82
:100C74003D2E09303C02031C402E412E462E0830E6
:100C840083160313C2004A2E831603133C08C200C2
:100C94004208A500A6012508BC022608031CBD03C2
:100CA400BD0242080319572E582E612E3B088400BA
:100CB4002E30831380000130A5002508BB074208AD
:100CC4000A128A15A1240A128A11831203134108F5
:100CD40083160313AD008312031340088316031312
:100CE400AC00831203133F0883160313AB00831273
:100CF40003133E0883160313AA002D08831203135B
:100D0400AB00831603132C0883120313AA00831663
:100D140003132B0883120313A900831603132A0851
:100D240083120313A80083160313410883120313C9
:100D3400A70083160313400883120313A600831627
:100D440003133F0883120313A500831603133E08FD
:100D540083120313A4000A128A155C210A128A1151
:100D6400831203132708D4002608D3002508D200D1
:100D74002408D1000A168A11A3200A128A118312A8
:100D84000313540883160313B40083120313530884
:100D940083160313B3008312031352088316031339
:100DA400B20083120313510883160313B100792F81
:100DB4004208A50001300310A50DFF3E031DDD2EE2
:100DC4000310250D693E84000A128A110D200A12AF
:100DD4008A11F0000A128A110D200A128A11F100F8
:100DE4000A128A110D200A128A11F2000A128A11BB
:100DF4000D200A128A11F3003408F7003308F600B4
:100E04003208F5003108F4000A168A159A270A12E6
:100E14008A11730883160313BA007208B9007108A3
:100E2400B8007008B7000030F3000030F200003062
:100E3400F1000A30F0003A08F7003908F6003808E3
:100E4400F5003708F4000A168A1590260A128A114A
:100E5400730883160313BA007208B9007108B80046
:100E64007008B7003B0884003708303E83138000C5
:100E74000130A5002508BB074208A5000130031076
:100E8400A50DFF3E031D412F0310250D693E84006F
:100E94000A128A110D200A128A11F0000A128A110C
:100EA4000D200A128A11F1000A128A110D200A1269
:100EB4008A11F2000A128A110D200A128A11F30013
:100EC4003408F7003308F6003208F5003108F4005E
:100ED4000A168A1590260A128A11730883160313B8
:100EE400B4007208B3007108B2007008B100013098
:100EF400C202420A031D7F2F802FDA2E902F3B0857
:100F040084003030831380000130A5002508BB071E
:100F1400FF30BC070318BD0AFF30BD073C083D0481
:100F2400031D952F962F812FDA2F3C083D04031DB6
:100F34009C2F9D2FAB2F3408330432043104031D3E
:100F4400A42FA52FAB2F0130BC070318BD0A003016
:100F5400BD073D08803A803C031DB22F3C08420285
:100F64000318B52FB62FB72FC62F831603133D08CA
:100F7400803AA50080302502031DC22F42083C029E
:100F84000318C52FC62FC62F0330831603132F054E
:100F9400A50000303005A600250826040319D32F28
:100FA400D42FDA2F3B0884002D3083138000C0290E
:100FB4000130A007FF30200784000A128A110D2097
:100FC4000A128A11C2004208031DE92FEA2FB5292B
:100FD4003B08840083138001080083120313EE018D
:100FE400EF018313C7308400DE300A168A157A2392
:0C0FF4000A128A1183010A168A11D22900
:1010040000307005F80000307105F9008030720579
:10101400FA007F307305FB007B087A0479047804B6
:10102400031D152816281E280030F3000030F20096
:101034000030F1000030F00000307405F80000309A
:101044007505F90080307605FA007F307705FB00DE
:101054007B087A0479047804031D312832283A285D
:101064000030F7000030F6000030F5000030F400E6
:10107400F31F3D283E2862280030F8000030F900B4
:101084000030FA008030FB007008F8027108031C7D
:10109400710F4D284E28F9027208031C720F532851
:1010A4005428FA027308031C730F59285A28FB02A8
:1010B4007B08F3007A08F2007908F1007808F00060
:1010C400F71F652866288A280030F8000030F900E8
:1010D4000030FA008030FB007408F8027508031C25
:1010E400750F75287628F9027608031C760F7B287D
:1010F4007C28FA027708031C770F81288228FB02D8
:101104007B08F7007A08F6007908F5007808F400FF
:101114008030F3068030F70677087302031D9C289D
:1011240076087202031D9C2875087102031D9C2811
:101134007408700203189F28A028A2280310A3286B
:10114400031408000310720D730D83120313A5001A
:101154002508031DAE28AF28B8280030F30000305E
:10116400F2000030F1000030F0005B290310760D2E
:10117400770DA4002408031DC028C128C228AF2865
:10118400F217FF30F005FF30F105FF30F2050030B3
:10119400F305F617FF30F405FF30F505FF30F605CB
:1011A4000030F7050030A3000030A2000030A10099
:1011B4000030A0007F30A502A0302407F800780892
:1011C400A5022030A4000130F8000310A00DA10DE9
:1011D400A20DA30DF80BE72877087302031DFC2862
:1011E40076087202031DFC2875087102031DFC2891
:1011F40074087002031CFF2800290F297408F002E8
:101204007508031C750FF1027608031C760FF202B1
:101214007708031C770FF30220140130F800031041
:10122400F00DF10DF20DF30DF80B11290130A402AC
:10123400031D1D291E29E528A51F212922293C2932
:101244002508803A9F3E0318282929292A29AF28EE
:1012540001300310A30CA20CA10CA00CFF3E031D33
:101264002B290130F8007808A507031D3A293B29EA
:101274002A29532920302502031C412942294E29B9
:10128400AF280130F8000310A00DA10DA20DA30D8D
:10129400F80B45290130A5022508031D52295329BD
:1012A40043292308F3002208F2002108F100200852
:1012B400F00008008312031327088039B1002708BF
:1012C400AC002C07B700A61F682969296A293714BE
:1012D400370803196E296F297E29370A031D7329DC
:1012E40074297C290030A7000030A6000030A50036
:1012F4000030A400A61786290030A7000030A600FD
:101304000030A5000030A4002B088039AC002C0864
:10131400B1062B08AC002C07B600AA1F922993290A
:10132400942936143608031998299929A829360AC4
:10133400031D9D299E29A6290030AB000030AA0078
:101344000030A9000030A800AA17B0290030AB0073
:101354000030AA000030A9000030A80036080319A4
:10136400B429B529BA293708031DB929BA29C329CB
:101374000030A7000030A6000030A5000030A40013
:10138400A02C2408F0002A080A168A158C240A12B4
:101394008A15710883120313BD007008BC003C0851
:1013A400AC00AD01AE01AF012F08B5002E08B400AA
:1013B4002D08B3002C08B2003D08AC00AD01AE010D
:1013C400AF012F08BB002E08BA002D08B9002C0865
:1013D400B8002508F00029080A168A158C240A1278
:1013E4008A15710883120313BD007008BC003C0801
:1013F400AC00AD01AE01AF012C08B2072D080311FA
:101404000318013E0319072AB3072E080311031812
:10141400013E03190E2AB4072F0803110318013ED5
:101424000319152AB5073D08AC00AD01AE01AF01A3
:101434002C08B8072D0803110318013E0319232AA9
:10144400B9072E0803110318013E03192A2ABA0703
:101454002F0803110318013E0319312ABB0726087C
:10146400F00028080A168A158C240A128A157108B5
:1014740083120313BD007008BC003C08AC00AD012E
:10148400AE01AF012C08B2072D0803110318013E69
:1014940003194D2AB3072E0803110318013E03193B
:1014A400542AB4072F0803110318013E03195B2AB9
:1014B400B5073D08AC00AD01AE01AF012C08B8077B
:1014C4002D0803110318013E0319692AB9072E08D0
:1014D40003110318013E0319702ABA072F080311D8
:1014E4000318013E0319772ABB070830AC00031028
:1014F400B20DB30DB40DB50DAC0B792A2508F0006F
:1015040028080A168A158C240A128A15710883126F
:101514000313BD007008BC003C08AC003D08AD00DE
:10152400AE01AF012C08B2072D0803110318013EC8
:1015340003199D2AB3072E0803110318013E03194A
:10154400A42AB4072F0803110318013E0319AB2A78
:10155400B5072408F00029080A168A158C240A12F3
:101564008A15710883120313BD007008BC003C087F
:10157400AC003D08AD00AE01AF012C08B2072D0848
:1015840003110318013E0319C82AB3072E080311D7
:101594000318013E0319CF2AB4072F0803110318B7
:1015A400013E0319D62AB5070830AC000310B20D6A
:1015B400B30DB40DB50DAC0BD82A2408F0002808DF
:1015C4000A168A158C240A128A15710883120313C9
:1015D400BD007008BC003C08AC003D08AD00AE0185
:1015E400AF012C08B2072D0803110318013E03199B
:1015F400FC2AB3072E0803110318013E0319032B19
:10160400B4072F0803110318013E03190A2BB50769
:101614002508F0002A080A168A158C240A128A154D
:10162400710883120313BD007008BC003C08AC00B1
:101634003D08AD00AE01AF012C08B8072D08031119
:101644000318013E0319272BB9072E0803110318A9
:10165400013E03192E2BBA072F0803110318013E6C
:101664000319352BBB072608F00029080A168A152A
:101674008C240A128A15710883120313BD007008A2
:10168400BC003C08AC003D08AD00AE01AF012C0825
:10169400B8072D0803110318013E0319522BB9078B
:1016A4002E0803110318013E0319592BBA072F08FA
:1016B40003110318013E0319602BBB072608F00031
:1016C4002A080A168A158C240A128A1571088312AC
:1016D4000313BD007008BC003C08AC003D08AD001D
:1016E400AE01AF0108300310AC0DAD0DAE0DAF0D62
:1016F400FF3E031D752B2C08B8072D080311031892
:10170400013E0319862BB9072E0803110318013E65
:1017140003198D2BBA072F0803110318013E03196F
:10172400942BBB073208AC003308AD003408AE007C
:101734003508AF0018300310AF0CAE0CAD0CAC0C78
:10174400FF3E031D9D2B2C08B8072D080311031819
:10175400013E0319AE2BB9072E0803110318013EED
:101764000319B52BBA072F0803110318013E0319F7
:10177400BC2BBB070830AC000310B20DB30DB40D85
:10178400B50DAC0BBE2B37083607AC00AD01AD0D63
:101794002C08823EBC002D080318013EFF3EBD000C
:1017A400F02B0130AC000310B80DB90DBA0DBB0D10
:1017B400AC0BD52BB51FDF2BE02BE12B38140130FC
:1017C400AC000310B20DB30DB40DB50DAC0BE32B8F
:1017D400FF30BC070318BD0AFF30BD07BA1FF32B47
:1017E400F42BD32BB601B51FF82BF92B152CFF3096
:1017F4003205AC00FF303305AD00FF303405AE00D8
:101804007F303505AF002F082E042D042C04031956
:101814000C2C0D2C102CB601B60A152C381C132CCC
:10182400142C152C0D2C36080319192C1A2C4B2C9E
:101834000130B807003003180130B907003003182D
:101844000130BA07003003180130BB073B1C2B2CB6
:101854002C2C4B2C3808AC003908AD003A08AE00EB
:101864003B08AF000130B0002F0DAF0CAE0CAD0C37
:10187400AC0CB00B362C2F08BB002E08BA002D0878
:10188400B9002C08B8000130BC070318BD0A0030A9
:10189400BD073D08803AFF0080307F02031D542CB1
:1018A400FF303C02031C572C582C632C7F308312CE
:1018B4000313BB008030BA000030B9000030B80018
:1018C400942C831203133D08803AFF0080307F027A
:1018D400031D6E2C01303C020318712C722C7E2CDB
:1018E400003083120313BB000030BA000030B9008B
:1018F4000030B800B101942C831203133C08B700E4
:10190400FF30B805FF30B9057F30BA050030BB059C
:10191400371C8D2C8E2C8F2CBA173708AC00031073
:101924002C0CBB003108AC002C08BB043B08A700FE
:101934003A08A6003908A5003808A4000800831254
:101944000313D000D01FA72CA82C552ED009D00AE1
:101954005008803A123E031CB02CB12C992D0A3049
:10196400F7000030F8005008F200F301F21BF30313
:101974006430F0000030F1000A168A15E4260A12D9
:101984008A157108FA007008F9000A168A113A20BB
:101994000A128A15770883120313C2000130031058
:1019A400C20DFF3E031DD12C0310420D593E84008D
:1019B4000A128A110D200A128A15C3000A128A110A
:1019C4000D200A128A15C4000A128A110D200A1267
:1019D4008A15C5000A128A110D200A128A15C6003A
:1019E4004608A7004508A6004408A5004308A4002B
:1019F4006430F7000030F8005008F900FA01F91BD0
:101A0400FA030A168A113A200A128A1577088312F1
:101A14000313C70001300310C70DFF3E031D0D2D36
:101A24000310470D7D3E84000A128A110D200A120C
:101A34008A15C8000A128A110D200A128A15C900D3
:101A44000A128A110D200A128A15CA000A128A1172
:101A54000D200A128A15CB004B08AB004A08AA00D5
:101A64004908A9004808A8000A128A155C210A122C
:101A74008A15831203132708CF002608CE002508F1
:101A8400CD002408CC000A30F0000030F1005008EA
:101A9400F200F301F21BF3030A168A15E4260A1274
:101AA4008A15700883120313C20001300310C20D9B
:101AB400FF3E031D582D0310420D353E84000A12CB
:101AC4008A110D200A128A15C3000A128A110D20E8
:101AD4000A128A15C4000A128A110D200A128A15E4
:101AE400C5000A128A110D200A128A15C60046087A
:101AF400A7004508A6004408A5004308A4004F0811
:101B0400AB004E08AA004D08A9004C08A8000A1210
:101B14008A155C210A128A15831203132708C1004F
:101B24002608C0002508BF002408BE00FF2F500867
:101B3400803A753E031C9F2DA02D282E0A30F000FC
:101B44000030F1005008F200F301F21BF3030A160F
:101B54008A15E4260A128A15700883120313C20038
:101B640001300310C20DFF3E031DB32D0310420DBF
:101B7400353E84000A128A110D200A128A15C30008
:101B84000A128A110D200A128A15C4000A128A1137
:101B94000D200A128A15C5000A128A110D200A1294
:101BA4008A15C6004608A7004508A6004408A500F3
:101BB4004308A4000A30F7000030F8005008F90088
:101BC400FA01F91BFA030A168A113A200A128A1535
:101BD400770883120313C70001300310C70DFF3EBB
:101BE400031DEF2D0310470D593E84000A128A117C
:101BF4000D200A128A15C8000A128A110D200A1231
:101C04008A15C9000A128A110D200A128A15CA00FF
:101C14000A128A110D200A128A15CB004B08AB0058
:101C24004A08AA004908A9004808A8000A128A1507
:101C34005C210A128A15831203132708C10026089F
:101C4400C0002508BF002408BE00FF2F5008C200B2
:101C540001300310C20DFF3E031D2B2E0310420D55
:101C6400353E84000A128A110D200A128A15C30017
:101C74000A128A110D200A128A15C4000A128A1146
:101C84000D200A128A15C5000A128A110D200A12A3
:101C94008A15C6004608C1004508C0004408BF00B4
:101CA4004308BE00FF2F5008803A123E031C5B2EEF
:101CB4005C2E442F0A30F7000030F8005008F20080
:101CC400F301F21BF3036430F0000030F1000A1654
:101CD4008A15E4260A128A157108FA007008F900B8
:101CE4000A168A113A200A128A15770883120313F6
:101CF400C20001300310C20DFF3E031D7C2E0310F1
:101D0400420D253E84000A128A110D200A128A15FA
:101D1400C3000A128A110D200A128A15C4000A127D
:101D24008A110D200A128A15C5000A128A110D2083
:101D34000A128A15C6004608A7004508A6004408EA
:101D4400A5004308A4006430F7000030F8005008F0
:101D5400F900FA01F91BFA030A168A113A200A1249
:101D64008A15770883120313C70001300310C70DC7
:101D7400FF3E031DB82E0310470D493E84000A128E
:101D84008A110D200A128A15C8000A128A110D2020
:101D94000A128A15C9000A128A110D200A128A151C
:101DA400CA000A128A110D200A128A15CB004B08A8
:101DB400AB004A08AA004908A9004808A8000A126A
:101DC4008A155C210A128A15831203132708CF008F
:101DD4002608CE002508CD002408CC000A30F000E7
:101DE4000030F1005008F200F301F21BF3030A166D
:101DF4008A15E4260A128A15700883120313C20096
:101E040001300310C20DFF3E031D032F0310420DCA
:101E1400013E84000A128A110D200A128A15C30099
:101E24000A128A110D200A128A15C4000A128A1194
:101E34000D200A128A15C5000A128A110D200A12F1
:101E44008A15C6004608A7004508A6004408A50050
:101E54004308A4004F08AB004E08AA004D08A9008F
:101E64004C08A8000A128A155C210A128A158312EA
:101E740003132708C1002608C0002508BF00240852
:101E8400BE00FF2F5008803A753E031C4A2F4B2F8B
:101E9400D32F0A30F0000030F1005008F200F301B3
:101EA400F21BF3030A168A15E4260A128A1570082F
:101EB40083120313C20001300310C20DFF3E031D41
:101EC4005E2F0310420D013E84000A128A110D2078
:101ED4000A128A15C3000A128A110D200A128A15E1
:101EE400C4000A128A110D200A128A15C5000A12AA
:101EF4008A110D200A128A15C6004608A700450853
:101F0400A6004408A5004308A4000A30F7000030E6
:101F1400F8005008F900FA01F91BFA030A168A11AD
:101F24003A200A128A15770883120313C700013076
:101F34000310C70DFF3E031D9A2F0310470D253EC6
:101F440084000A128A110D200A128A15C8000A1286
:101F54008A110D200A128A15C9000A128A110D204D
:101F64000A128A15CA000A128A110D200A128A1549
:101F7400CB004B08AB004A08AA004908A90048084E
:101F8400A8000A128A155C210A128A158312031307
:101F94002708C1002608C0002508BF002408BE0089
:101FA400FF2F5008C20001300310C20DFF3E031D75
:101FB400D62F0310420D013E84000A128A110D200F
:101FC4000A128A15C3000A128A110D200A128A15F0
:101FD400C4000A128A110D200A128A15C5000A12B9
:101FE4008A110D200A128A15C6004608C100450848
:101FF400C0004408BF004308BE0008007008710414
:102004000319052806283528F501F50A1428013096
:102014000310F00DF10DFF3E031D0A280130F400FA
:102024007408F507F11F1728182809287108730286
:10203400031D1E2870087202031C21282228282848
:102044007008F2027108031CF303F3020130031059
:10205400F10CF00CFF3E031D29280130F502031D8D
:102064003428352818287308F1007208F000080095
:1020740083120313A101F81F402841284828F709B7
:10208400F809F70A0319F80AA101A10AFA1F4B2853
:102094004C285528F909FA09F90A0319FA0A0130F2
:1020A400FB007B08A106A201A301770878040319A9
:1020B4005C285D289428A001A00A6B280130031035
:1020C400F70DF80DFF3E031D61280130FB007B086E
:1020D400A007F81F6E286F28602801300310A20D96
:1020E400A30DFF3E031D702878087A02031D7C2887
:1020F40077087902031C7F28802887287708F9024B
:102104007808031CFA03FA02221401300310F80CB5
:10211400F70CFF3E031D88280130A002031D9328FD
:1021240094286F2821080319982899289E28A20921
:10213400A309A20A0319A30A2308F8002208F70036
:102144000800031083120313530D540DDA005A08C8
:10215400031DAD28AE28B7280030D4000030D300CA
:102164000030D2000030D1001A295108D50052089D
:10217400D6005308D7005408D8001F300310D80CD9
:10218400D70CD60CD50CFF3E031DC0285508D9002A
:10219400D317FF30D105FF30D205FF30D30500300F
:1021A400D4059630DA02DA1FD828D928F3285A0839
:1021B400803A973E0318DF28E028E128AE28013052
:1021C4000310D40CD30CD20CD10CFF3E031DE22817
:1021D4000130D5005508DA07031DF128F228E1285B
:1021E4000A2920305A02031CF828F9280529AE28A8
:1021F4000130D5000310D10DD20DD30DD40DD50B64
:10220400FC280130DA025A08031D09290A29FA2890
:10221400590803190E290F291A29D109D209D309FA
:10222400D409D10A0319D20A0319D30A0319D40A07
:1022340008007008F8007108F9007208FA00031029
:10224400790D7A0D83120313A5002508031D2B298C
:102254002C2935290030F3000030F2000030F10061
:102264000030F000D1297408F8007508F9007608E8
:10227400FA000310790D7A0DA4002408031D4329E4
:10228400442945292C29F117FF30F005FF30F105C9
:102294000030F205F517FF30F405FF30F505003086
:1022A400F6050030A3000030A2000030A100003089
:1022B400A0007F30A50298302407F8007808A50212
:1022C4001830A4000130F8000310A00DA10DA20DD8
:1022D400A30DF80B662976087202031D7729750889
:1022E4007102031D772974087002031C7A297B2963
:1022F40086297408F0027508031C750FF10276082C
:10230400031C760AF202201401300310F00DF10DC3
:10231400F20DFF3E031D87290130A402031D9329FA
:1023240094296429A51F97299829B2292508803A58
:10233400973E03189E299F29A0292C2901300310B8
:10234400A30CA20CA10CA00CFF3E031DA12901307B
:10235400F8007808A507031DB029B129A029C929C7
:1023640018302502031CB729B829C4292C290130A7
:10237400F8000310A00DA10DA20DA30DF80BBB29AD
:102384000130A5022508031DC829C929B929230834
:10239400F3002208F2002108F1002008F0000800F0
:1023A400063083160313C5001330C400AD30C300D8
:1023B400C30BDA29C40BDA29C50BDA290A168A15E4
:1023C400B3240A168A110A168A15B6230A168A1124
:1023D4000A128A11DA200A168A110A168A15422468
:1023E4000A168A117D308312031395007D309B00F9
:1023F4000A168A1582230A168A111130F000003059
:10240400F1000A168A1594230A168A110030F00086
:10241400F1000A168A15DB240A168A11700883163D
:102424000313C3007108C400C501C6014608F900BE
:102434004508F8004408F7004308F60000300A1283
:102444008A11F5200A168A11790883160313CA0023
:102454007808C9007708C8007608C7000A168A15E4
:102464008B230A168A11033083160313C500083020
:10247400C4007630C300C30B3D2AC40B3D2AC50BF0
:102484003D2A00000A168A1582230A168A11313061
:10249400F0000030F1000A168A1594230A168A11F6
:1024A4000030F000F1000A168A15DB240A168A119E
:1024B400700883160313CC000A168A158B230A1698
:1024C4008A11033083160313C5000830C400763024
:1024D400C300C30B6B2AC40B6B2AC50B6B2A000009
:1024E4000A168A1582230A168A112130F000003058
:1024F400F1000A168A1594230A168A110030F00096
:10250400F1000A168A15DB240A168A11700883164C
:102514000313CB000A168A158B230A168A1103307B
:1025240083160313C5000830C4007630C300C30B00
:10253400992AC40B992AC50B992A00009130831655
:102544000313A0004A08A4004908A3004808A200F5
:102554004708A100CE300A128A11AF210A168A1147
:10256400F401F40A01300A168A15FC250A168A11A8
:10257400CE30F5000030F6000A168A1576250A16C4
:102584008A11831603134A0883120313D400831693
:102594000313490883120313D30083160313480853
:1025A40083120313D2008316031347088312031301
:1025B400D1000A168A11A3200A168A118312031362
:1025C400510883160313CD000230CB004C08031DC1
:1025D400EC2AED2AFF2AF401F40A02300A168A15BD
:1025E400FC250A168A11B630F5008030F6000A166A
:1025F4008A1576250A168A118F2B4C03031D032B8B
:10260400042B1C2B3E308312031395003E309B0099
:10261400F401F40A02300A168A15FC250A168A11F6
:10262400AA30F5008030F6000A168A1576250A16B7
:102634008A118F2B02304C06031D212B222B3A2B9F
:102644007D308312031395007D309B00F401F40A5E
:1026540002300A168A15FC250A168A11BB30F500C9
:102664008030F6000A168A1576250A168A118F2BF1
:1026740003304C06031D3F2B402B582BBB308312D9
:1026840003139500BB309B00F401F40A02300A16D0
:102694008A15FC250A168A11C030F5008030F60030
:1026A4000A168A1576250A168A118F2B4A08F30012
:1026B4004908F2004808F1004708F0004030F700EC
:1026C400A030F6000030F5000030F4000A128A153C
:1026D40002200A168A110318702B712B782B83128F
:1026E400031308108810081188118F2B8312031309
:1026F40008108810081588110730F40002300A16F3
:102704008A15FC250A168A11A430F5008030F600DB
:102714000A168A1576250A168A118230831603133F
:10272400C400DD30C300C30B952BC40B952BFA29D1
:102734000A128A11002883120313D1006E30510249
:10274400031CA52BA62BB32C3F30A7000030A600FA
:102754000030A5000030A4006430F6000030F7001B
:102764005108C200C3014208F8004308F9000A16E0
:102774008A15B8250A168A11760883120313C40031
:1027840001300310C40DFF3E031DC32B0310440D81
:102794007D3E84000A128A110D200A168A11C50092
:1027A4000A128A110D200A168A11C6000A128A1109
:1027B4000D200A168A11C7000A128A110D200A1662
:1027C4008A11C8004808AB004708AA004608A900B7
:1027D4004508A8000A128A155C210A168A11831278
:1027E40003132708D0002608CF002508CE002408AC
:1027F400CD000A30F6000030F7005108C200C301D2
:102804004208F2004308F3006430F0000030F100A5
:102814000A168A1100200A168A117108F900700834
:10282400F8000A168A15B8250A168A117608831242
:102834000313C40001300310C40DFF3E031D1D2CFF
:102844000310440D593E84000A128A110D200A1601
:102854008A11C5000A128A110D200A168A11C600AF
:102864000A128A110D200A168A11C7000A128A1147
:102874000D200A168A11C8004808A7004708A600B8
:102884004608A5004508A4005008AB004F08AA005C
:102894004E08A9004D08A8000A128A155C210A16E0
:1028A4008A11831203132708CC002608CB002508BD
:1028B400CA002408C9000A30F0000030F1005108B1
:1028C400C200C3014208F2004308F3000A168A1149
:1028D40000200A168A11700883120313C400013001
:1028E4000310C40DFF3E031D722C0310440D353E2E
:1028F40084000A128A110D200A168A11C5000A12D0
:102904008A110D200A168A11C6000A128A110D2096
:102914000A168A11C7000A128A110D200A168A1192
:10292400C8004808A7004708A6004608A5004508AF
:10293400A4004C08AB004B08AA004A08A9004908A7
:10294400A8000A128A155C210A168A11831203133D
:102954002708C1002608C0002508BF002408BE00BF
:10296400A72D0B305102031CB82CB92C642D3F3019
:10297400A7000030A6000030A5000030A4000A30F3
:10298400F6000030F7005108C200C3014208F80005
:102994004308F9000A168A15B8250A168A1176081A
:1029A40083120313C40001300310C40DFF3E031D42
:1029B400D62C0310440D593E84000A128A110D20AE
:1029C4000A168A11C5000A128A110D200A168A11E4
:1029D400C6000A128A110D200A168A11C7000A12AB
:1029E4008A110D200A168A11C8004808AB0047084E
:1029F400AA004608A9004508A8000A128A155C2105
:102A04000A168A11831203132708D0002608CF0060
:102A14002508CE002408CD000A30F0000030F10073
:102A24005108C200C3014208F2004308F3000A1629
:102A34008A1100200A168A11700883120313C40035
:102A440001300310C40DFF3E031D232D0310440D5C
:102A5400353E84000A128A110D200A168A11C50017
:102A64000A128A110D200A168A11C6000A128A1146
:102A74000D200A168A11C7000A128A110D200A169F
:102A84008A11C8004808A7004708A6004608A50000
:102A94004508A4005008AB004F08AA004E08A9003E
:102AA4004D08A8000A128A155C210A168A1183129D
:102AB40003132708C1002608C0002508BF00240806
:102AC400BE00A72D3F30A7000030A6000030A500AF
:102AD4000030A4005108C20001300310C20DFF3EB3
:102AE400031D6F2D0310420D353E84000A128A1116
:102AF4000D200A168A11C3000A128A110D200A1623
:102B04008A11C4000A128A110D200A168A11C500FE
:102B14000A128A110D200A168A11C6004608AB0053
:102B24004508AA004408A9004308A8000A128A1507
:102B34005C210A168A11831203132708C100260890
:102B4400C0002508BF002408BE0008008312031338
:102B540055088039E2005508DA005A07E400D41F0A
:102B6400B42DB52DB62D641464080319BA2DBB2DEC
:102B7400CB2D640A031DBF2DC02DC82D0030D500F8
:102B84000030D4000030D3000030D200D417D50177
:102B9400D32D0030D5000030D4000030D3000030F5
:102BA400D20059088039E300630862060319DB2D5B
:102BB400DC2DDD2D62175908DA005A07E300D81F0F
:102BC400E42DE52DE62D631463080319EA2DEB2D9E
:102BD400FB2D630A031DEF2DF02DF82D0030D900D5
:102BE4000030D8000030D7000030D600D817D90103
:102BF400032E0030D9000030D8000030D700003058
:102C0400D600640863020318082E092E2F2E621FB3
:102C14000C2E0D2E112E8030DA005A08E2066408BC
:102C2400E5006308E4006508E3005208E50056087F
:102C3400D2006508D6005308E5005708D30065089C
:102C4400D7005408E5005808D4006508D800550892
:102C5400E5005908D5006508D900E5016308DA00E4
:102C6400DB015B08DD0064085A02DC00031CDD03A1
:102C74005D08803AFF0080307F02031D432E1A3026
:102C84005C02031C462E472E7E2E83120313550826
:102C9400540453045204031D502E522E0130532E5B
:102CA4000030E5000030D5000030D4000030D300FF
:102CB4000030D2006308E400862E651C622E632E69
:102CC4006A2E6508DA0003105A0C0138E5006C2EF0
:102CD4000310E50C521C6F2E702E712EE517013077
:102CE400DA00550DD50CD40CD30CD20CDA0B732EA0
:102CF4000130DA005A08E4078312031363086402FC
:102D0400031C852E862E5F2E621B892E8A2ED32EBF
:102D14006408031D8E2E8F2E982E0030D5000030AF
:102D2400D4000030D3000030D200FF2F5608D20761
:102D3400570803110318013E0319A12ED30758089D
:102D440003110318013E0319A82ED40759080311CF
:102D54000318013E0319AF2ED507551CB22EB32E0E
:102D6400872F651CB62EB72EBE2E6508DA00031019
:102D74005A0C0138E500C02E0310E50C521CC32E7A
:102D8400C42EC52EE5170130DA00550DD50CD40C30
:102D9400D30CD20CDA0BC72E0130DA005A08E40740
:102DA400872F5508803AFF005908803A7F02031D97
:102DB400E52E58085402031DE52E57085302031D3F
:102DC400E52E560852020318E82EE92E412FFF3053
:102DD400DA00FF30DB00FF30DC00FF30DD00560896
:102DE400DE005708DF005808E0005908E1005208E7
:102DF400DE025308031C530F002F012FDF02540877
:102E0400031C540F062F072FE0025508031C550F0F
:102E14000C2F0D2FE1025E08DA075F0803185F0F1D
:102E2400142F152FDB0760080318600F1A2F1B2FB0
:102E3400DC0761080318610ADD075D08D5005C083A
:102E4400D4005B08D3005A08D2008030DA005A0854
:102E5400E206E509E50A6508031D312F322F4F2FDD
:102E64000130D207003003180130D30700300318B3
:102E74000130D407003003180130D5074F2F56080E
:102E8400D2025708031C570FD3025808031C580FCB
:102E9400D4025908031C590FD5025508540453048D
:102EA4005204031D562F572F832F6508031D5B2FD4
:102EB4005C2F832F0030D5000030D4000030D300C5
:102EC4000030D200FF2F0130DA000310D20DD30DF1
:102ED400D40DD50DDA0B672FE51F712F722F732FC9
:102EE4005214651C762F772F7A2F0314E50D7C2F4F
:102EF4000310E50D64080319802F812F832F0130FF
:102F0400E402D41F862F872F652FE301E51F8B2F43
:102F14008C2F9A2F65087F390319912F922F952FA3
:102F2400E301E30A9A2F521C982F992F9A2F922F7C
:102F3400630803199E2F9F2FD32F0130D20700302F
:102F440003180130D307003003180130D4070030D0
:102F540003180130D507551CB02FB12FD32F5208B9
:102F6400DA005308DB005408DC005508DD000130AA
:102F7400DE005D0DDD0CDC0CDB0CDA0CDE0BBB2F94
:102F84005D08D5005C08D4005B08D3005A08D20061
:102F9400640A0319CE2FCF2FD32F0130DA005A0839
:102FA400E407640A0319D72FD82FDD2F6408031D03
:102FB400DC2FDD2FEB2F0030D5000030D4000030A3
:102FC400D3000030D2006408031DE92FEA2FEB2F51
:102FD400E201641CEE2FEF2FF12FD417F52F7F3071
:102FE400DA005A08D4056408DA0003105A0CD50034
:0C2FF400E21FFD2FFE2FFF2FD517080055
:1036F40064008001840A04060319003404067B2B49
:103704000A168A15A9230A168A1583160313111497
:1037140008000A168A15A9230A168A1583160313A4
:10372400111508000A168A15A9230A168A157008A5
:103734008312031393000800730872047104700465
:103744000319A52BA62BA82B8030F306080083169B
:1037540003131419AE2BAF2BA92B11081F39031D0A
:10376400B42BB52BA92B080000300A168A15E223C6
:103774000A168A1501300A168A15E2230A168A15D2
:103784000800F1007108F000F00E831603130F080F
:1037940070068F3970068F000F140800F100F001D5
:1037A4003A3071020318D72BD82BE02B303071023A
:1037B400031CDD2BDE2BE02BF001F00A700C08005B
:1037C400F30083120313081173080A168A15FC23E5
:1037D4000A168A158312031388150B30F20062301F
:1037E400F100F10BF32BF20BF32B00008312031304
:1037F40088110800F000701C002C012C052C831289
:1038040003130816082C831203130812F01C0B2C44
:103814000C2C0E2C88160F2C8812701D122C132CB5
:10382400152C0817162C0813F01D192C1A2C1C2CF7
:1038340088171D2C88130800803083120313E906AF
:103844006D08D5006C08D4006B08D3006A08D20058
:103854006908D9006808D8006708D7006608D60048
:103864000A168A11A8250A168A1583120313550805
:10387400E9005408E8005308E7005208E60008008D
:103884008316031307158714FF3092003F30831209
:10389400031397051708F0390C3897001D08F03901
:1038A4000C389D00303097049D161D1695019B0120
:1038B4008C100330920412158C1C612C622C5E2C2B
:1038C40083160313071187100800F401F501701C17
:1038D4006C2C6D2C732C7208F4070318F50A73080A
:1038E400F50701300310F20DF30DFF3E031D742C98
:1038F40001300310F10CF00CFF3E031D7B2C70080B
:103904007104031D862C872C692C7508F10074083A
:10391400F0000800F800F401F5017008F200F3016A
:103924007208F6007308F700781C992C9A2CA02CC6
:103934007608F4070318F50A7708F5070130031031
:10394400F60DF70DFF3E031DA12C0310F80C7808AB
:10395400031DAD2CAE2C962C7508F1007408F000F4
:103964000800831603178801890183160313850150
:1039740002308600880183120313850186018801C1
:103984000030A3000130A2008630A100A030A000C6
:103994000A168A153E250A168A1507300A168A154C
:1039A400C3230A168A150A168A153D270A168A158C
:1039B40008000A168A15A9230A168A158316031302
:1039C40091150A168A15A9230A168A158312031358
:1039D4001308F200F3017208F4007308F5000A16E4
:1039E4008A15A9230A168A1570037104031DFB2C7A
:1039F400FC2C002D831603139112032D831603133D
:103A0400911611167508F1007408F0000800F4000E
:103A140074080F39F2007408F039F30083120313A9
:103A240008157308F10004300310F10CFF3E031D68
:103A3400162D71080A168A15FC230A168A15831294
:103A4400031388151A30F100F10B262D00008312A0
:103A54000313881172080A168A15FC230A168A159C
:103A64008312031388151A30F100F10B372D00006F
:103A7400831203138811080028308312031394005F
:103A8400831603139101831203132008A400210851
:103A9400A5002208A6002308A70002300310A40DE5
:103AA400A50DA60DA70DFF3E031D502D2708F300FD
:103AB4002608F2002508F1002408F0000030F70081
:103AC4007A30F6001230F5000030F4000A168A1538
:103AD4009A270A168A157008FF3E8316031393006B
:103AE4009401871507160800FA01FB019B2D7A083B
:103AF4007507F8007608F7000318F70AFA1F832DF4
:103B0400F7037708F900790883120313FF00780894
:103B140084000A128A1103200A168A150A168A15C5
:103B240009250A168A150130FA070318FB0A003022
:103B3400FB077A087507F8007608F7000318F70AF8
:103B4400FA1FA52DF7037708F900790883120313E8
:103B5400FF00780884000A128A1103200A168A15C5
:103B6400003A031DB62DB72D792D0800FB01FC0189
:103B7400760877040319BF2DC02DF72DFD01FD0A2A
:103B8400CE2D01300310F60DF70DFF3E031DC42D9D
:103B94000130FA007A08FD07F71FD12DD22DC32D6D
:103BA40001300310FB0DFC0DFF3E031DD32D7708E0
:103BB4007902031DDF2D76087802031CE22DE32D24
:103BC400EA2D7608F8027708031CF903F9027B143E
:103BD40001300310F70CF60CFF3E031DEB2D0130F2
:103BE400FD02031DF62DF72DD22D7C08F7007B086E
:103BF400F6000800F6007603031D012E022E1F2E88
:103C040074087F3EF9007908F50004300310F50CC0
:103C1400FF3E031D082E7508F70079080F39F800D8
:103C240077080A168A15E2230A168A1578080A16EE
:103C34008A15E2230A168A15412E02307606031DE0
:103C4400242E252E412E7408BF3EF9007908F50074
:103C540004300310F50CFF3E031D2B2E7508F700EE
:103C640079080F39F80077080A168A15E2230A162C
:103C74008A1578080A168A15E2230A168A15080096
:103C840000307005F80000307105F90080307205CD
:103C9400FA007F307305FB007B087A04790478040A
:103CA400031D552E562E5E2E0030F3000030F20018
:103CB4000030F1000030F00000307405F8000030EE
:103CC4007505F90080307605FA007F307705FB0032
:103CD4007B087A0479047804031D712E722E7A2EDF
:103CE4000030F7000030F6000030F5000030F4003A
:103CF40077087306031D882E76087206031D882E26
:103D040075087106031D882E7408700603198B2E1E
:103D14008C2E8E2E03108F2E031408007308720449
:103D2400710470040319972E982EDB2EF901F90AF9
:103D3400A82E0130F8000310F00DF10DF20DF30D73
:103D4400F80B9D2E0130F8007808F907F31FAB2E0D
:103D5400AC2E9B2E73087702031DBA2E72087602CE
:103D6400031DBA2E71087502031DBA2E7008740261
:103D7400031CBD2EBE2ECC2E7008F4027108031C49
:103D8400710FF5027208031C720FF6027308031C0C
:103D9400730FF70201300310F30CF20CF10CF00C6A
:103DA400FF3E031DCD2E0130F902031DDA2EDB2E5A
:103DB400AC2E7708F3007608F2007508F100740859
:103DC400F0000800F601F31FE82EE92EF02EF209A8
:103DD400F309F20A0319F30AF601F60AF11FF32EA6
:103DE400F42EF92EF009F109F00A0319F10A70080A
:103DF40071040319FE2EFF2E2E2FF501F50A0D2F47
:103E040001300310F00DF10DFF3E031D032F0130AF
:103E1400F4007408F507F11F102F112F022F7108F9
:103E24007302031D172F70087202031C1A2F1B2F15
:103E3400212F7008F2027108031CF303F30201300E
:103E44000310F10CF00CFF3E031D222F0130F5028C
:103E5400031D2D2F2E2F112F76080319322F332FE8
:103E6400382FF209F309F20A0319F30A7308F1006F
:103E74007208F000080000300A168A15FC230A169E
:103E84008A153430F500F130F400F40B472FF50BAC
:103E9400472F4C2F03300A168A15E2230A168A1577
:103EA4000D30F500FB30F400F40B562FF50B562FB4
:103EB4005B2F03300A168A15E2230A168A151D3071
:103EC400F5009130F400F40B652FF50B652F0330EA
:103ED4000A168A15E2230A168A1502300A168A156A
:103EE400E2230A168A1502300A168A15E2230A16F4
:103EF4008A1508300A168A15E2230A168A15003034
:103F04000A168A15E2230A168A150C300A168A152F
:103F1400E2230A168A1500300A168A15E2230A16C5
:103F24008A1506300A168A15E2230A168A1508002D
:103F34000030FC000030FB000030FA000030F900D3
:103F440073087204710470040319A92FAA2FF72FA0
:103F5400FD01FD0ABA2F0130F8000310F00DF10D38
:103F6400F20DF30DF80BAF2F0130F8007808FD07C0
:103F7400F31FBD2FBE2FAD2F0130F8000310F90D34
:103F8400FA0DFB0DFC0DF80BC02F73087702031D0F
:103F9400D52F72087602031DD52F71087502031DF3
:103FA400D52F70087402031CD82FD92FE82F70085E
:103FB400F4027108031C710FF5027208031C720FDE
:103FC400F6027308031C730FF7027914013003100F
:103FD400F30CF20CF10CF00CFF3E031DE92F013041
:103FE400FD02031DF62FF72FBE2F7C08F3007B087C
:103FF400F2007A08F1007908F0000800FF3FFF3F63
:04400400FF3FFF3F3C
:04400E00D420FF3F7C
:00000001FF
