:100000000A128A11F02FFF1B0D2883137F18831704
:100010000008840A0319FF0A080000308A00040857
:10002000840A820700340034003480343F340034C2
:1000300000342034413400340034C83442340034B5
:1000400000347A344434003440341C3446340034B0
:100050005034C33447340034243474344934803445
:10006000963418344B342034BC34BE344C342834E9
:100070006B346E344E34F934023415345034EC346D
:100080007834AD346034CA34F234493471340034D5
:10009000003480343F34CD34CC34CC343D340A3455
:1000A000D73423343C346F34123483343A34173425
:1000B000B734D1343834AC34C53427343734BD3454
:1000C0003734863435349534BF34D63433347734CA
:1000D000CC342B3432345F34703489343034FF34D0
:1000E000E634DB342E340834E5343C341E346034DA
:1000F0004234A2340D3401340034003400340A3464
:100100000034003400346434003400340034E83403
:100110000334003400341034273400340034A03465
:10012000863401340034403442340F340034803497
:100130009634983400340034E134F5340534003416
:10014000CA349A343B34443469347334743461347B
:100150006E346334693461343A34203425342E34B7
:1001600031346634003454344134503441344434EE
:100170004F3400345634453452344434453400341A
:100180004C34493442345234453400344E344134D2
:1001900044344134003441345A3455344C340034FE
:1001A00052344F344A344F340034213400344E3406
:0201B000003419
:1001B60083160317880189018316031385011F30EF
:1001C60086008801811315149514151595151516B5
:1001D6001F309600831203138601880108148810C5
:1001E60008158811080083120313A00020080319BC
:1001F600FD28FE281229F91F01290229122976094C
:10020600A2007709A3007809A4007909A500A20A2B
:100216000319A30A0319A40A0319A50A1A297908B6
:10022600A5007808A4007708A3007608A20079083C
:10023600780477047604031D212922292B2900300E
:10024600F9000030F8000030F7000030F600AF2962
:100256009630A1003B290130FA007A08A107013047
:100266000310A50CA40CA30CA20CFF3E031D3329FE
:10027600FE302505031D402941292E295D2901301F
:10028600FA007A08A1070130A207003003180130EE
:10029600A307003003180130A4070030031801300B
:1002A600A50701300310A50CA40CA30CA20CFF3E5D
:1002B600031D5529FF302505031D6229632942299F
:1002C6006F290130A1020130FA000310A20DA30D1F
:1002D600A40DA50DFA0B6829A41B72297329792987
:1002E60002302102031878297929642921187C29EA
:1002F6007D298529FF30A205FF30A3057F30A4059F
:10030600FF30A5050310A10C2108FA00FB01FC0132
:10031600FD0118300310FA0DFB0DFC0DFD0DFF3E1F
:10032600031D8D297A08A2047B08A3047C08A40473
:100336007D08A50420080319A129A229A729F91FC8
:10034600A529A629A729A5172508F9002408F80034
:100356002308F7002208F600080083160313BB00E3
:10036600A130AE00DB2F253042060319BB29BC297C
:10037600C6293B0884004208831380000130A5008B
:100386002508BB07DB2FAF01B001200884000A1245
:100396008A110D200A128A112E3A031DD329D42957
:1003A600192A30170130A5002508A007BC01BD0198
:1003B600082A0A30F0000030F100831603133D08C6
:1003C600F3003C08F2000A168A15F3230A128A1172
:1003D600710883160313BD007008BC002008840052
:1003E6000A128A110D200A128A11D03EA500FF308A
:1003F60003180030A6002508BC070318BD0A260806
:10040600BD070130A5002508A007200884000A12B0
:100416008A110D200A128A110A168A155C230A12FD
:100426008A110318172A182ADC291F2ABC01BD01C4
:1004360030161F2A30153B2A013083160313A007F6
:10044600FF30200784000A128A110D200A128A1131
:10045600C200A500A6012608003A0319332ADB2F9D
:100466002508003A0319EB2F663A03191D2ADB2FDC
:1004760000302F05A50007303005A6002508260404
:100486000319462A472A982F301E4A2A4B2A4F2AF2
:100496000630BC000030BD002E088400831300081F
:1004A600BE00840A0008BF00840A0008C000840A4F
:1004B6000008C1000430A5002508AE074108F30076
:1004C6004008F2003F08F1003E08F0000030F70057
:1004D6000030F6000030F5000030F4000A128A15EC
:1004E60002200A128A110318792A7A2A972A831671
:1004F60003134108F3004008F2003F08F1003E08EC
:10050600F0000A168A152A230A128A11730883161E
:100516000313C1007208C0007108BF007008BE0056
:100526000330AF040030B00483160313B501B601DF
:100536004108F3004008F2003F08F1003E08F000D1
:100546000030F7000030F6000030F5000030F4000F
:100556000A168A15D9250A128A110318B32AB42A4B
:10056600A42B031083160313400D410D823EB500E4
:10057600FF3003180030B600FF30B5070318B60A7F
:10058600FF30B6070330F0000030F1003608F30004
:100596003508F2000A168A15F3230A128A11710821
:1005A60083160313B6007008B5000A30F700003052
:1005B600F8003608FA003508F9000A168A15972752
:1005C6000A128A11780883160313B6007708B50055
:1005D600B61FEE2AEF2AF52AFF30B5070318B60A2A
:1005E600FF30B6073503FF3A0A128A15A1240A120C
:1005F6008A1183120313410883160313BA00831268
:100606000313400883160313B900831203133F082C
:1006160083160313B800831203133E0883160313CD
:10062600B700410883120313A7008316031340087B
:1006360083120313A600831603133F0883120313C2
:10064600A500831603133E0883120313A400831622
:1006560003133A0883120313AB00831603133908F6
:1006660083120313AA008316031338088312031395
:10067600A90083160313370883120313A8000A126E
:100686008A155C210A128A1183120313270883161E
:100696000313BA0083120313260883160313B90043
:1006A60083120313250883160313B800831203135A
:1006B600240883160313B7003A08F3003908F2003A
:1006C6003808F1003708F0003F30F7008030F600B8
:1006D6000030F5000030F4000A128A1502200A12D2
:1006E6008A110318772B782B812BFF30831603137F
:1006F600B5070318B60AFF30B607A42B83160313F3
:100706003A08F3003908F2003808F1003708F0001B
:100716004130F7002030F6000030F5000030F400DC
:100726000A128A1502200A128A11031C9B2B9C2B83
:10073600A42B013083160313B5070318B60A00303D
:10074600B607831603133D08803AFF0080307F0208
:10075600031DAF2B0D303C020318B22BB32BFA2B23
:10076600831603133C080A168A115E210A128A119F
:10077600831203134108D5004008D4003F08D30074
:100786003E08D20083160313410883120313D900CF
:1007960083160313400883120313D800831603132A
:1007A6003F0883120313D700831603133E088312F0
:1007B6000313D6000A168A11A8250A128A11831273
:1007C6000313550883160313C10083120313540839
:1007D60083160313C00083120313530883160313EF
:1007E600BF0083120313520883160313BE00831639
:1007F60003133608803AFF0080307F02031D052C64
:100806000A3035020318082C092C5A2C83160313B8
:100816004108F3004008F2003F08F1003E08F000EE
:100826000030F7000030F6000030F5000030F4002C
:100836000A168A15D9250A128A110318232C242C84
:10084600CC2C83160313410883120313D40083169A
:100856000313400883120313D300831603133F08C0
:1008660083120313D200831603133E088312031365
:10087600D1000A168A112F200A128A118312031335
:100886005408530452045104031D4A2C4B2CCC2CFF
:10089600831603133608803AFF0080307F02031D5B
:1008A600562C02303502031C592C5A2CCC2C83169C
:1008B60003133A08F3003908F2003808F100370844
:1008C600F0004030F7008930F6007030F5005F30F8
:1008D600F4000A128A1502200A128A110318742CCF
:1008E600752C7E2CF73083160313B5070318B60A4A
:1008F600FF30B607862CF83083160313B5070318A6
:10090600B60AFF30B60735080A128A15A1240A125C
:100916008A1183120313410883160313BA00831244
:100926000313400883160313B900831203133F0809
:1009360083160313B800831203133E0883160313AA
:10094600B7004108F3004008F2003F08F1003E08F6
:10095600F0003A08F7003908F6003808F5003708BD
:10096600F4000A128A15A4200A128A117308831643
:100976000313B4007208B3007108B2007008B10026
:100986000030C1000030C0000030BF000030BE00A3
:10099600502D83160313410883120313D4008316C4
:1009A6000313400883120313D300831603133F086F
:1009B60083120313D200831603133E088312031314
:1009C600D1000A168A112F200A128A1183120313E4
:1009D600540883160313B4008312031353088316B3
:1009E6000313B30083120313520883160313B200D2
:1009F60083120313510883160313B1003408F90058
:100A06003308F8003208F7003108F60000300A1201
:100A16008A11F6200A128A11790883120313E90053
:100A26007808E8007708E7007608E60083160313DF
:100A3600410883120313ED00831603134008831243
:100A46000313EC00831603133F0883120313EB0012
:100A5600831603133E0883120313EA000A168A1547
:100A6600AA230A128A118312031369088316031331
:100A7600C10083120313680883160313C000831290
:100A86000313670883160313BF0083120313660854
:100A960083160313BE00B501B601C201C20A42089D
:100AA600A50001300310A50DFF3E031D552D0310B3
:100AB600250D693E84000A128A110D200A128A1138
:100AC600A6000A128A110D200A128A11A7000A121C
:100AD6008A110D200A128A11A8000A128A110D2005
:100AE6000A128A11A90029083402031D842D280838
:100AF6003302031D842D27083202031D842D260888
:100B060031020318872D882D892D932D0130A500DC
:100B16002508C2070A304206031D922D932D522D39
:100B260003302F05A50000303005A6002508260451
:100B360003199E2D9F2D0D2E3B0884002D30831307
:100B460080000130A5002508BB070D2E4208A50030
:100B560001300310A50DFF3E031DAC2D0310250D1E
:100B6600693E84000A128A110D200A128A11F000C9
:100B76000A128A110D200A128A11F1000A128A112C
:100B86000D200A128A11F2000A128A110D200A1289
:100B96008A11F3003408F7003308F6003208F5002E
:100BA6003108F4000A168A1531270A128A117308C9
:100BB60083160313BA007208B9007108B8007008EA
:100BC600B7000030F3000030F2000030F1000A30C8
:100BD600F0003A08F7003908F6003808F50037083B
:100BE600F4000A168A1527260A128A117308831634
:100BF6000313BA007208B9007108B8007008B7008C
:100C06003B0884003708303E831380000130A5007E
:100C16002508BB070130C202420A031D132E142EFB
:100C2600A92D262E831603133B0884003030831328
:100C360080000130A5002508BB07FF30B507031863
:100C4600B60AFF30B6073608803AFF0080307F02CA
:100C5600031D2F2E013035020318322E332E152E8A
:100C6600831603133D08803AFF0080307F02031D80
:100C76003E2E09303C02031C412E422E472E0830E0
:100C860083160313C2004B2E831603133C08C200BF
:100C96004208A500A6012508BC022608031CBD03C0
:100CA600BD0242080319582E592E622E3B088400B5
:100CB6002E30831380000130A5002508BB074208AB
:100CC6000A128A15A1240A128A11831203134108F3
:100CD60083160313AD008312031340088316031310
:100CE600AC00831203133F0883160313AB00831271
:100CF60003133E0883160313AA002D088312031359
:100D0600AB00831603132C0883120313AA00831661
:100D160003132B0883120313A900831603132A084F
:100D260083120313A80083160313410883120313C7
:100D3600A70083160313400883120313A600831625
:100D460003133F0883120313A500831603133E08FB
:100D560083120313A4000A128A155C210A128A114F
:100D6600831203132708D4002608D3002508D200CF
:100D76002408D1000A168A112F200A128A1183121A
:100D86000313540883160313B40083120313530882
:100D960083160313B3008312031352088316031337
:100DA600B20083120313510883160313B1007A2F7E
:100DB6004208A50001300310A50DFF3E031DDE2EDF
:100DC6000310250D693E84000A128A110D200A12AD
:100DD6008A11F0000A128A110D200A128A11F100F6
:100DE6000A128A110D200A128A11F2000A128A11B9
:100DF6000D200A128A11F3003408F7003308F600B2
:100E06003208F5003108F4000A168A1531270A124D
:100E16008A11730883160313BA007208B9007108A1
:100E2600B8007008B7000030F3000030F200003060
:100E3600F1000A30F0003A08F7003908F6003808E1
:100E4600F5003708F4000A168A1527260A128A11B1
:100E5600730883160313BA007208B9007108B80044
:100E66007008B7003B0884003708303E83138000C3
:100E76000130A5002508BB074208A5000130031074
:100E8600A50DFF3E031D422F0310250D693E84006C
:100E96000A128A110D200A128A11F0000A128A110A
:100EA6000D200A128A11F1000A128A110D200A1267
:100EB6008A11F2000A128A110D200A128A11F30011
:100EC6003408F7003308F6003208F5003108F4005C
:100ED6000A168A1527260A128A117308831603131F
:100EE600B4007208B3007108B2007008B100013096
:100EF600C202420A031D802F812FDB2E912F3B0851
:100F060084003030831380000130A5002508BB071C
:100F1600FF30BC070318BD0AFF30BD073C083D047F
:100F2600031D962F972F822FDB2F3C083D04031DB0
:100F36009D2F9E2FAC2F3408330432043104031D39
:100F4600A52FA62FAC2F0130BC070318BD0A003011
:100F5600BD073D08803A803C031DB32F3C08420282
:100F66000318B62FB72FB82FC72F831603133D08C4
:100F7600803AA50080302502031DC32F42083C029B
:100F86000318C62FC72FC72F0330831603132F0549
:100F9600A50000303005A600250826040319D42F25
:100FA600D52FDB2F3B0884002D3083138000C12909
:100FB6000130A007FF30200784000A128A110D2095
:100FC6000A128A11C2004208031DEA2FEB2FB62926
:100FD6003B08840083138001080083120313EE018B
:100FE6008313C7308400DF300A168A1506230A12D7
:0A0FF6008A1183010A168A11692B83
:1010040000307005F80000307105F9008030720579
:10101400FA007F307305FB007B087A0479047804B6
:10102400031D152816281E280030F3000030F20096
:101034000030F1000030F00000307405F80000309A
:101044007505F90080307605FA007F307705FB00DE
:101054007B087A0479047804031D312832283A285D
:101064000030F7000030F6000030F5000030F400E6
:10107400F31F3D283E2862280030F8000030F900B4
:101084000030FA008030FB007008F8027108031C7D
:10109400710F4D284E28F9027208031C720F532851
:1010A4005428FA027308031C730F59285A28FB02A8
:1010B4007B08F3007A08F2007908F1007808F00060
:1010C400F71F652866288A280030F8000030F900E8
:1010D4000030FA008030FB007408F8027508031C25
:1010E400750F75287628F9027608031C760F7B287D
:1010F4007C28FA027708031C770F81288228FB02D8
:101104007B08F7007A08F6007908F5007808F400FF
:101114008030F3068030F70677087302031D9C289D
:1011240076087202031D9C2875087102031D9C2811
:101134007408700203189F28A028A2280310A3286B
:10114400031408000310720D730D83120313A5001A
:101154002508031DAE28AF28B8280030F30000305E
:10116400F2000030F1000030F0005B290310760D2E
:10117400770DA4002408031DC028C128C228AF2865
:10118400F217FF30F005FF30F105FF30F2050030B3
:10119400F305F617FF30F405FF30F505FF30F605CB
:1011A4000030F7050030A3000030A2000030A10099
:1011B4000030A0007F30A502A0302407F800780892
:1011C400A5022030A4000130F8000310A00DA10DE9
:1011D400A20DA30DF80BE72877087302031DFC2862
:1011E40076087202031DFC2875087102031DFC2891
:1011F40074087002031CFF2800290F297408F002E8
:101204007508031C750FF1027608031C760FF202B1
:101214007708031C770FF30220140130F800031041
:10122400F00DF10DF20DF30DF80B11290130A402AC
:10123400031D1D291E29E528A51F212922293C2932
:101244002508803A9F3E0318282929292A29AF28EE
:1012540001300310A30CA20CA10CA00CFF3E031D33
:101264002B290130F8007808A507031D3A293B29EA
:101274002A29532920302502031C412942294E29B9
:10128400AF280130F8000310A00DA10DA20DA30D8D
:10129400F80B45290130A5022508031D52295329BD
:1012A40043292308F3002208F2002108F100200852
:1012B400F00008008312031327088039B1002708BF
:1012C400AC002C07B700A61F682969296A293714BE
:1012D400370803196E296F297E29370A031D7329DC
:1012E40074297C290030A7000030A6000030A50036
:1012F4000030A400A61786290030A7000030A600FD
:101304000030A5000030A4002B088039AC002C0864
:10131400B1062B08AC002C07B600AA1F922993290A
:10132400942936143608031998299929A829360AC4
:10133400031D9D299E29A6290030AB000030AA0078
:101344000030A9000030A800AA17B0290030AB0073
:101354000030AA000030A9000030A80036080319A4
:10136400B429B529BA293708031DB929BA29C329CB
:101374000030A7000030A6000030A5000030A40013
:10138400A02C2408F0002A080A168A153F240A1201
:101394008A15710883120313BD007008BC003C0851
:1013A400AC00AD01AE01AF012F08B5002E08B400AA
:1013B4002D08B3002C08B2003D08AC00AD01AE010D
:1013C400AF012F08BB002E08BA002D08B9002C0865
:1013D400B8002508F00029080A168A153F240A12C5
:1013E4008A15710883120313BD007008BC003C0801
:1013F400AC00AD01AE01AF012C08B2072D080311FA
:101404000318013E0319072AB3072E080311031812
:10141400013E03190E2AB4072F0803110318013ED5
:101424000319152AB5073D08AC00AD01AE01AF01A3
:101434002C08B8072D0803110318013E0319232AA9
:10144400B9072E0803110318013E03192A2ABA0703
:101454002F0803110318013E0319312ABB0726087C
:10146400F00028080A168A153F240A128A15710802
:1014740083120313BD007008BC003C08AC00AD012E
:10148400AE01AF012C08B2072D0803110318013E69
:1014940003194D2AB3072E0803110318013E03193B
:1014A400542AB4072F0803110318013E03195B2AB9
:1014B400B5073D08AC00AD01AE01AF012C08B8077B
:1014C4002D0803110318013E0319692AB9072E08D0
:1014D40003110318013E0319702ABA072F080311D8
:1014E4000318013E0319772ABB070830AC00031028
:1014F400B20DB30DB40DB50DAC0B792A2508F0006F
:1015040028080A168A153F240A128A1571088312BC
:101514000313BD007008BC003C08AC003D08AD00DE
:10152400AE01AF012C08B2072D0803110318013EC8
:1015340003199D2AB3072E0803110318013E03194A
:10154400A42AB4072F0803110318013E0319AB2A78
:10155400B5072408F00029080A168A153F240A1240
:101564008A15710883120313BD007008BC003C087F
:10157400AC003D08AD00AE01AF012C08B2072D0848
:1015840003110318013E0319C82AB3072E080311D7
:101594000318013E0319CF2AB4072F0803110318B7
:1015A400013E0319D62AB5070830AC000310B20D6A
:1015B400B30DB40DB50DAC0BD82A2408F0002808DF
:1015C4000A168A153F240A128A1571088312031316
:1015D400BD007008BC003C08AC003D08AD00AE0185
:1015E400AF012C08B2072D0803110318013E03199B
:1015F400FC2AB3072E0803110318013E0319032B19
:10160400B4072F0803110318013E03190A2BB50769
:101614002508F0002A080A168A153F240A128A159A
:10162400710883120313BD007008BC003C08AC00B1
:101634003D08AD00AE01AF012C08B8072D08031119
:101644000318013E0319272BB9072E0803110318A9
:10165400013E03192E2BBA072F0803110318013E6C
:101664000319352BBB072608F00029080A168A152A
:101674003F240A128A15710883120313BD007008EF
:10168400BC003C08AC003D08AD00AE01AF012C0825
:10169400B8072D0803110318013E0319522BB9078B
:1016A4002E0803110318013E0319592BBA072F08FA
:1016B40003110318013E0319602BBB072608F00031
:1016C4002A080A168A153F240A128A1571088312F9
:1016D4000313BD007008BC003C08AC003D08AD001D
:1016E400AE01AF0108300310AC0DAD0DAE0DAF0D62
:1016F400FF3E031D752B2C08B8072D080311031892
:10170400013E0319862BB9072E0803110318013E65
:1017140003198D2BBA072F0803110318013E03196F
:10172400942BBB073208AC003308AD003408AE007C
:101734003508AF0018300310AF0CAE0CAD0CAC0C78
:10174400FF3E031D9D2B2C08B8072D080311031819
:10175400013E0319AE2BB9072E0803110318013EED
:101764000319B52BBA072F0803110318013E0319F7
:10177400BC2BBB070830AC000310B20DB30DB40D85
:10178400B50DAC0BBE2B37083607AC00AD01AD0D63
:101794002C08823EBC002D080318013EFF3EBD000C
:1017A400F02B0130AC000310B80DB90DBA0DBB0D10
:1017B400AC0BD52BB51FDF2BE02BE12B38140130FC
:1017C400AC000310B20DB30DB40DB50DAC0BE32B8F
:1017D400FF30BC070318BD0AFF30BD07BA1FF32B47
:1017E400F42BD32BB601B51FF82BF92B152CFF3096
:1017F4003205AC00FF303305AD00FF303405AE00D8
:101804007F303505AF002F082E042D042C04031956
:101814000C2C0D2C102CB601B60A152C381C132CCC
:10182400142C152C0D2C36080319192C1A2C4B2C9E
:101834000130B807003003180130B907003003182D
:101844000130BA07003003180130BB073B1C2B2CB6
:101854002C2C4B2C3808AC003908AD003A08AE00EB
:101864003B08AF000130B0002F0DAF0CAE0CAD0C37
:10187400AC0CB00B362C2F08BB002E08BA002D0878
:10188400B9002C08B8000130BC070318BD0A0030A9
:10189400BD073D08803AFF0080307F02031D542CB1
:1018A400FF303C02031C572C582C632C7F308312CE
:1018B4000313BB008030BA000030B9000030B80018
:1018C400942C831203133D08803AFF0080307F027A
:1018D400031D6E2C01303C020318712C722C7E2CDB
:1018E400003083120313BB000030BA000030B9008B
:1018F4000030B800B101942C831203133C08B700E4
:10190400FF30B805FF30B9057F30BA050030BB059C
:10191400371C8D2C8E2C8F2CBA173708AC00031073
:101924002C0CBB003108AC002C08BB043B08A700FE
:101934003A08A6003908A5003808A4000800831254
:101944000313D000D01FA72CA82C552ED009D00AE1
:101954005008803A123E031CB02CB12C992D0A3049
:10196400F7000030F8005008F200F301F21BF30313
:101974006430F0000030F1000A168A157B260A1242
:101984008A157108FA007008F9000A168A15972753
:101994000A128A15770883120313C2000130031058
:1019A400C20DFF3E031DD12C0310420D593E84008D
:1019B4000A128A110D200A128A15C3000A128A110A
:1019C4000D200A128A15C4000A128A110D200A1267
:1019D4008A15C5000A128A110D200A128A15C6003A
:1019E4004608A7004508A6004408A5004308A4002B
:1019F4006430F7000030F8005008F900FA01F91BD0
:101A0400FA030A168A1597270A128A157708831289
:101A14000313C70001300310C70DFF3E031D0D2D36
:101A24000310470D7D3E84000A128A110D200A120C
:101A34008A15C8000A128A110D200A128A15C900D3
:101A44000A128A110D200A128A15CA000A128A1172
:101A54000D200A128A15CB004B08AB004A08AA00D5
:101A64004908A9004808A8000A128A155C210A122C
:101A74008A15831203132708CF002608CE002508F1
:101A8400CD002408CC000A30F0000030F1005008EA
:101A9400F200F301F21BF3030A168A157B260A12DD
:101AA4008A15700883120313C20001300310C20D9B
:101AB400FF3E031D582D0310420D353E84000A12CB
:101AC4008A110D200A128A15C3000A128A110D20E8
:101AD4000A128A15C4000A128A110D200A128A15E4
:101AE400C5000A128A110D200A128A15C60046087A
:101AF400A7004508A6004408A5004308A4004F0811
:101B0400AB004E08AA004D08A9004C08A8000A1210
:101B14008A155C210A128A15831203132708C1004F
:101B24002608C0002508BF002408BE00FF2F500867
:101B3400803A753E031C9F2DA02D282E0A30F000FC
:101B44000030F1005008F200F301F21BF3030A160F
:101B54008A157B260A128A15700883120313C200A1
:101B640001300310C20DFF3E031DB32D0310420DBF
:101B7400353E84000A128A110D200A128A15C30008
:101B84000A128A110D200A128A15C4000A128A1137
:101B94000D200A128A15C5000A128A110D200A1294
:101BA4008A15C6004608A7004508A6004408A500F3
:101BB4004308A4000A30F7000030F8005008F90088
:101BC400FA01F91BFA030A168A1597270A128A15CD
:101BD400770883120313C70001300310C70DFF3EBB
:101BE400031DEF2D0310470D593E84000A128A117C
:101BF4000D200A128A15C8000A128A110D200A1231
:101C04008A15C9000A128A110D200A128A15CA00FF
:101C14000A128A110D200A128A15CB004B08AB0058
:101C24004A08AA004908A9004808A8000A128A1507
:101C34005C210A128A15831203132708C10026089F
:101C4400C0002508BF002408BE00FF2F5008C200B2
:101C540001300310C20DFF3E031D2B2E0310420D55
:101C6400353E84000A128A110D200A128A15C30017
:101C74000A128A110D200A128A15C4000A128A1146
:101C84000D200A128A15C5000A128A110D200A12A3
:101C94008A15C6004608C1004508C0004408BF00B4
:101CA4004308BE00FF2F5008803A123E031C5B2EEF
:101CB4005C2E442F0A30F7000030F8005008F20080
:101CC400F301F21BF3036430F0000030F1000A1654
:101CD4008A157B260A128A157108FA007008F90021
:101CE4000A168A1597270A128A157708831203138E
:101CF400C20001300310C20DFF3E031D7C2E0310F1
:101D0400420D253E84000A128A110D200A128A15FA
:101D1400C3000A128A110D200A128A15C4000A127D
:101D24008A110D200A128A15C5000A128A110D2083
:101D34000A128A15C6004608A7004508A6004408EA
:101D4400A5004308A4006430F7000030F8005008F0
:101D5400F900FA01F91BFA030A168A1597270A12E1
:101D64008A15770883120313C70001300310C70DC7
:101D7400FF3E031DB82E0310470D493E84000A128E
:101D84008A110D200A128A15C8000A128A110D2020
:101D94000A128A15C9000A128A110D200A128A151C
:101DA400CA000A128A110D200A128A15CB004B08A8
:101DB400AB004A08AA004908A9004808A8000A126A
:101DC4008A155C210A128A15831203132708CF008F
:101DD4002608CE002508CD002408CC000A30F000E7
:101DE4000030F1005008F200F301F21BF3030A166D
:101DF4008A157B260A128A15700883120313C200FF
:101E040001300310C20DFF3E031D032F0310420DCA
:101E1400013E84000A128A110D200A128A15C30099
:101E24000A128A110D200A128A15C4000A128A1194
:101E34000D200A128A15C5000A128A110D200A12F1
:101E44008A15C6004608A7004508A6004408A50050
:101E54004308A4004F08AB004E08AA004D08A9008F
:101E64004C08A8000A128A155C210A128A158312EA
:101E740003132708C1002608C0002508BF00240852
:101E8400BE00FF2F5008803A753E031C4A2F4B2F8B
:101E9400D32F0A30F0000030F1005008F200F301B3
:101EA400F21BF3030A168A157B260A128A15700898
:101EB40083120313C20001300310C20DFF3E031D41
:101EC4005E2F0310420D013E84000A128A110D2078
:101ED4000A128A15C3000A128A110D200A128A15E1
:101EE400C4000A128A110D200A128A15C5000A12AA
:101EF4008A110D200A128A15C6004608A700450853
:101F0400A6004408A5004308A4000A30F7000030E6
:101F1400F8005008F900FA01F91BFA030A168A15A9
:101F240097270A128A15770883120313C700013012
:101F34000310C70DFF3E031D9A2F0310470D253EC6
:101F440084000A128A110D200A128A15C8000A1286
:101F54008A110D200A128A15C9000A128A110D204D
:101F64000A128A15CA000A128A110D200A128A1549
:101F7400CB004B08AB004A08AA004908A90048084E
:101F8400A8000A128A155C210A128A158312031307
:101F94002708C1002608C0002508BF002408BE0089
:101FA400FF2F5008C20001300310C20DFF3E031D75
:101FB400D62F0310420D013E84000A128A110D200F
:101FC4000A128A15C3000A128A110D200A128A15F0
:101FD400C4000A128A110D200A128A15C5000A12B9
:101FE4008A110D200A128A15C6004608C100450848
:0C1FF400C0004408BF004308BE00080005
:102002000A168A1535230A168A11831603139115A7
:102012000A168A1535230A168A1183120313130826
:10202200F200F3017208F4007308F5000A168A152B
:1020320035230A168A1170037104031D21282228F0
:102042002628831603139112292883160313911647
:1020520011167508F1007408F000080003108312CD
:102062000313530D540DDA005A08031D39283A2878
:1020720043280030D4000030D3000030D2000030BA
:10208200D100A6285108D5005208D6005308D7001F
:102092005408D8001F300310D80CD70CD60CD50C1E
:1020A200FF3E031D4C285508D900D317FF30D10538
:1020B200FF30D205FF30D3050030D4059630DA0266
:1020C200DA1F642865287F285A08803A973E031849
:1020D2006B286C286D283A2801300310D40CD30CDD
:1020E200D20CD10CFF3E031D6E280130D5005508DD
:1020F200DA07031D7D287E286D28962820305A0293
:10210200031C8428852891283A280130D500031021
:10211200D10DD20DD30DD40DD50B88280130DA02A2
:102122005A08031D952896288628590803199A28C3
:102132009B28A628D109D209D309D409D10A0319A7
:10214200D20A0319D30A0319D40A08007008F80046
:102152007108F9007208FA000310790D7A0D8312E2
:102162000313A5002508031DB728B828C12800308D
:10217200F3000030F2000030F1000030F0005D2981
:102182007408F8007508F9007608FA000310790D52
:102192007A0DA4002408031DCF28D028D128B828FE
:1021A200F117FF30F005FF30F1050030F205F517A9
:1021B200FF30F405FF30F5050030F6050030A300CE
:1021C2000030A2000030A1000030A0007F30A50244
:1021D20098302407F8007808A5021830A4000130CE
:1021E200F8000310A00DA10DA20DA30DF80BF2280B
:1021F20076087202031D032975087102031D032963
:1022020074087002031C0629072912297408F002B7
:102212007508031C750FF1027608031C760AF20298
:10222200201401300310F00DF10DF20DFF3E031DDD
:1022320013290130A402031D1F292029F028A51FFC
:10224200232924293E292508803A973E03182A2962
:102252002B292C29B82801300310A30CA20CA10CA5
:10226200A00CFF3E031D2D290130F8007808A507B8
:10227200031D3C293D292C29552918302502031C10
:10228200432944295029B8280130F8000310A00D31
:10229200A10DA20DA30DF80B47290130A5022508B7
:1022A200031D5429552945292308F3002208F20069
:1022B2002108F1002008F000080083120313D10066
:1022C2006E305102031C66296729742A3F30A70029
:1022D2000030A6000030A5000030A4006430F600F3
:1022E2000030F7005108C200C3014208F800430859
:1022F200F9000A168A154F250A168A1176088312E2
:102302000313C40001300310C40DFF3E031D8429D2
:102312000310440D7D3E84000A128A110D200A1614
:102322008A11C5000A128A110D200A168A11C600E6
:102332000A128A110D200A168A11C7000A128A117E
:102342000D200A168A11C8004808AB004708AA00E7
:102352004608A9004508A8000A128A155C210A1637
:102362008A11831203132708D0002608CF002508FC
:10237200CE002408CD000A30F6000030F7005108E4
:10238200C200C3014208F2004308F3006430F000C7
:102392000030F1000A168A15D3240A168A11710830
:1023A200F9007008F8000A168A154F250A168A11D4
:1023B200760883120313C40001300310C40DFF3EDC
:1023C200031DDE290310440D593E84000A128A11AE
:1023D2000D200A168A11C5000A128A110D200A164A
:1023E2008A11C6000A128A110D200A168A11C70024
:1023F2000A128A110D200A168A11C8004808A7007D
:102402004708A6004608A5004508A4005008AB00EE
:102412004F08AA004E08A9004D08A8000A128A1502
:102422005C210A168A11831203132708CC0026089E
:10243200CB002508CA002408C9000A30F000003089
:10244200F1005108C200C3014208F2004308F30040
:102452000A168A15D3240A168A11700883120313E6
:10246200C40001300310C40DFF3E031D332A0310C4
:10247200440D353E84000A128A110D200A168A1173
:10248200C5000A128A110D200A168A11C6000A1204
:102492008A110D200A168A11C7000A128A110D200C
:1024A2000A168A11C8004808A7004708A60046086D
:1024B200A5004508A4004C08AB004B08AA004A0836
:1024C200A9004908A8000A128A155C210A168A1175
:1024D200831203132708C1002608C0002508BF0085
:1024E2002408BE00682B0B305102031C792A7A2A79
:1024F200252B3F30A7000030A6000030A500003099
:10250200A4000A30F6000030F7005108C200C301EF
:102512004208F8004308F9000A168A154F250A16E0
:102522008A11760883120313C40001300310C40D0C
:10253200FF3E031D972A0310440D593E84000A12E0
:102542008A110D200A168A11C5000A128A110D205D
:102552000A168A11C6000A128A110D200A168A1159
:10256200C7000A128A110D200A168A11C8004808EB
:10257200AB004708AA004608A9004508A8000A12AD
:102582008A155C210A168A11831203132708D000C8
:102592002608CF002508CE002408CD000A30F0001E
:1025A2000030F1005108C200C3014208F2004308A2
:1025B200F3000A168A15D3240A168A1170088312A8
:1025C2000313C40001300310C40DFF3E031DE42AAF
:1025D2000310440D353E84000A128A110D200A169A
:1025E2008A11C5000A128A110D200A168A11C60024
:1025F2000A128A110D200A168A11C7000A128A11BC
:102602000D200A168A11C8004808A7004708A6002C
:102612004608A5004508A4005008AB004F08AA00D0
:102622004E08A9004D08A8000A128A155C210A1654
:102632008A11831203132708C1002608C000250847
:10264200BF002408BE00682B3F30A7000030A60060
:102652000030A5000030A4005108C2000130031070
:10266200C20DFF3E031D302B0310420D353E840088
:102672000A128A110D200A168A11C3000A128A113F
:102682000D200A168A11C4000A128A110D200A1698
:102692008A11C5000A128A110D200A168A11C60073
:1026A2004608AB004508AA004408A9004308A80050
:1026B2000A128A155C210A168A118312031327084B
:1026C200C1002608C0002508BF002408BE0008007B
:1026D200063083160313C5001330C400AD30C300A7
:1026E200C30B712BC40B712BC50B712B0A168A15E8
:1026F20018240A168A110A168A1542230A168A1102
:102702000A128A11DB200A168A110A168A15CE23AA
:102712000A168A117D308312031395007D309B00C7
:102722000A168A150E230A168A111130F00000309B
:10273200F1000A168A1520230A168A110030F000C9
:10274200F1000A168A1101200A168A1170088316EE
:102752000313C3007108C400C501C6014608F9008D
:102762004508F8004408F7004308F60000300A1252
:102772008A11F6200A168A11790883160313CA00F1
:102782007808C9007708C8007608C7000A168A15B3
:1027920017230A168A11033083160313C500083063
:1027A200C4007630C300C30BD42BC40BD42BC50B8F
:1027B200D42B00000A168A150E230A168A1131300C
:1027C200F0000030F1000A168A1520230A168A1139
:1027D2000030F000F1000A168A1101200A168A114F
:1027E200700883160313CE000A168A1517230A16D9
:1027F2008A11033083160313C5000830C4007630F3
:10280200C300C30B022CC40B022CC50B022C00000C
:102812000A168A150E230A168A112130F00000309A
:10282200F1000A168A1520230A168A110030F000D8
:10283200F1000A168A1101200A168A1170088316FD
:102842000313CD000A168A1517230A168A110330BC
:1028520083160313C5000830C4007630C300C30BCF
:10286200302CC40B302CC50B302C00009130831659
:102872000313A0004A08A4004908A3004808A200C4
:102882004708A100CF300A128A11B0210A168A1114
:10289200F401F40A01300A168A1593250A168A11E0
:1028A200CF30F5000030F6000A168A150D250A16FB
:1028B2008A11831603134E08031D602C612C732C9E
:1028C200F401F40A02300A168A1593250A168A11AF
:1028D200B430F5008030F6000A168A150D250A1666
:1028E2008A11D62C4E03031D772C782C902C3E3067
:1028F2008312031395003E309B00F401F40A023068
:102902000A168A1593250A168A11A830F500803016
:10291200F6000A168A150D250A168A11D62C0230DF
:102922004E06031D952C962CB32C7D308312031377
:1029320095007D309B000A168A1542230A168A11D9
:10294200F401F40A02300A168A1593250A168A112E
:10295200B930F5008030F6000A168A150D250A16E0
:102962008A11D62C03304E06031DB82CB92CD62C56
:10297200BB30831203139500BB309B000A168A15E5
:1029820042230A168A11F401F40A02300A168A1541
:1029920093250A168A11BE30F5008030F6000A1619
:1029A2008A150D250A168A11D62C831603134A0896
:1029B200F3004908F2004808F1004708F0004030EF
:1029C200F700A030F6000030F5000030F4000A12E3
:1029D2008A1502200A168A110318F02CF12C192DDF
:1029E2008312031305108510051185110730F400B9
:1029F20002300A168A1593250A168A11A130F500AB
:102A02008030F6000A168A150D250A168A11103032
:102A1200F40002300A168A1593250A168A11C53067
:102A2200F5008030F6000A168A150D250A168A115D
:102A32004030F300A030F2000030F1000030F0002E
:102A4200831603134A08F7004908F6004808F50000
:102A52004708F4000A128A1502200A168A1103187E
:102A6200332D342D5C2D83120313051085140515A7
:102A720085110730F40002300A168A1593250A16CA
:102A82008A11AE30F5008030F6000A168A150D253F
:102A92000A168A111030F40002300A168A1593259C
:102AA2000A168A11C530F5008030F6000A168A151A
:102AB2000D250A168A11831603134D03031D622D79
:102AC200632D7A2D831203130510851405118511C8
:102AD2001030F40002300A168A1593250A168A115C
:102AE200C330F5008030F6000A168A150D250A1645
:102AF2008A110230831603134D06031D812D822D88
:102B0200992D8312031305108510051585111030B8
:102B1200F40002300A168A1593250A168A11C33068
:102B2200F5008030F6000A168A150D250A168A115C
:102B32001A3083160313C400F730C300C30B9F2D52
:102B4200C40B9F2DA42D912B0A128A1100288312E7
:102B5200031355088039E2005508DA005A07E400E9
:102B6200D41FB42DB52DB62D641464080319BA2DE3
:102B7200BB2DCB2D640A031DBF2DC02DC82D0030E7
:102B8200D5000030D4000030D3000030D200D4177A
:102B9200D501D32D0030D5000030D4000030D30051
:102BA2000030D20059088039E30063086206031935
:102BB200DB2DDC2DDD2D62175908DA005A07E30000
:102BC200D81FE42DE52DE62D631463080319EA2DC1
:102BD200EB2DFB2D630A031DEF2DF02DF82D003098
:102BE200D9000030D8000030D7000030D600D81706
:102BF200D901032E0030D9000030D8000030D700B0
:102C02000030D600640863020318082E092E2F2E06
:102C1200621F0C2E0D2E112E8030DA005A08E206A9
:102C22006408E5006308E4006508E3005208E50073
:102C32005608D2006508D6005308E5005708D300AD
:102C42006508D7005408E5005808D4006508D80084
:102C52005508E5005908D5006508D900E501630863
:102C6200DA00DB015B08DD0064085A02DC00031CA9
:102C7200DD035D08803AFF0080307F02031D432E92
:102C82001A305C02031C462E472E7E2E831203133B
:102C92005508540453045204031D502E522E013081
:102CA200532E0030E5000030D5000030D400003053
:102CB200D3000030D2006308E400862E651C622E29
:102CC200632E6A2E6508DA0003105A0C0138E500FB
:102CD2006C2E0310E50C521C6F2E702E712EE51710
:102CE2000130DA00550DD50CD40CD30CD20CDA0B12
:102CF200732E0130DA005A08E407831203136308C3
:102D02006402031C852E862E5F2E621B892E8A2E5C
:102D1200D32E6408031D8E2E8F2E982E0030D500E0
:102D22000030D4000030D3000030D200FF2F56080C
:102D3200D207570803110318013E0319A12ED30726
:102D4200580803110318013E0319A82ED407590885
:102D520003110318013E0319AF2ED507551CB22EDD
:102D6200B32E872F651CB62EB72EBE2E6508DA004D
:102D720003105A0C0138E500C02E0310E50C521C5A
:102D8200C32EC42EC52EE5170130DA00550DD50C21
:102D9200D40CD30CD20CDA0BC72E0130DA005A084D
:102DA200E407872F5508803AFF005908803A7F02CE
:102DB200031DE52E58085402031DE52E5708530241
:102DC200031DE52E560852020318E82EE92E412F64
:102DD200FF30DA00FF30DB00FF30DC00FF30DD00C7
:102DE2005608DE005708DF005808E0005908E100E5
:102DF2005208DE025308031C530F002F012FDF027B
:102E02005408031C540F062F072FE0025508031C19
:102E1200550F0C2F0D2FE1025E08DA075F08031829
:102E22005F0F142F152FDB0760080318600F1A2F8E
:102E32001B2FDC0761080318610ADD075D08D50056
:102E42005C08D4005B08D3005A08D2008030DA0054
:102E52005A08E206E509E50A6508031D312F322FFB
:102E62004F2F0130D207003003180130D307003052
:102E720003180130D407003003180130D5074F2F53
:102E82005608D2025708031C570FD3025808031CD6
:102E9200580FD4025908031C590FD502550854047F
:102EA20053045204031D562F572F832F6508031D09
:102EB2005B2F5C2F832F0030D5000030D400003010
:102EC200D3000030D200FF2F0130DA000310D20D00
:102ED200D30DD40DD50DDA0B672FE51F712F722F8D
:102EE200732F5214651C762F772F7A2F0314E50D5A
:102EF2007C2F0310E50D64080319802F812F832F87
:102F02000130E402D41F862F872F652FE301E51FCE
:102F12008B2F8C2F9A2F65087F390319912F922FAF
:102F2200952FE301E30A9A2F521C982F992F9A2F7B
:102F3200922F630803199E2F9F2FD32F0130D207A0
:102F4200003003180130D307003003180130D407D2
:102F5200003003180130D507551CB02FB12FD32FE5
:102F62005208DA005308DB005408DC005508DD0083
:102F72000130DE005D0DDD0CDC0CDB0CDA0CDE0B4F
:102F8200BB2F5D08D5005C08D4005B08D3005A084B
:102F9200D200640A0319CE2FCF2FD32F0130DA00CB
:102FA2005A08E407640A0319D72FD82FDD2F6408C3
:102FB200031DDC2FDD2FEB2F0030D5000030D400B5
:102FC2000030D3000030D2006408031DE92FEA2F3D
:102FD200EB2FE201641CEE2FEF2FF12FD417F52F08
:102FE2007F30DA005A08D4056408DA0003105A0C5C
:0E2FF200D500E21FFD2FFE2FFF2FD517080080
:10360C0064008001840A0406031900340406072BA5
:10361C000A168A1535230A168A15831603131114F4
:10362C0008000A168A1535230A168A158316031301
:10363C00111508000A168A1535230A168A15700802
:10364C00831203139300080073087204710470044E
:10365C000319312B322B342B8030F30608008316E0
:10366C00031314193A2B3B2B352B11081F39031D4F
:10367C00402B412B352B080000300A168A156E237F
:10368C000A168A1501300A168A156E230A168A152F
:10369C000800F1007108F000F00E831603130F08F8
:1036AC0070068F3970068F000F140800F100F001BE
:1036BC003A3071020318632B642B6C2B303071027F
:1036CC00031C692B6A2B6C2BF001F00A700C0800A0
:1036DC00F30083120313081173080A168A15882342
:1036EC000A168A158312031388150B30F200623008
:1036FC00F100F10B7F2BF20B7F2B000083120313D5
:10370C0088110800F000701C8C2B8D2B912B8312D0
:10371C0003130816942B831203130812F01C972B17
:10372C00982B9A2B88169B2B8812701D9E2B9F2BE7
:10373C00A12B0817A22B0813F01DA52BA62BA82B29
:10374C008817A92B88130800803083120313E9060D
:10375C006D08D5006C08D4006B08D3006A08D20041
:10376C006908D9006808D8006708D7006608D60031
:10377C000A168A11A8250A168A15831203135508EE
:10378C00E9005408E8005308E7005208E600080076
:10379C008316031307158714FF3092003F308312F2
:1037AC00031397051708F0390C3897001D08F039EA
:1037BC000C389D00303097049D161D1695019B0109
:1037CC008C100330920412158C1CED2BEE2BEA2B73
:1037DC0083160313071187100800F401F501701C00
:1037EC00F82BF92BFF2B7208F4070318F50A730852
:1037FC00F50701300310F20DF30DFF3E031D002CF5
:10380C0001300310F10CF00CFF3E031D072C700867
:10381C007104031D122C132CF52B7508F100740880
:10382C00F00008008316031788018901831603131F
:10383C0085018601880183120313850186018801A5
:10384C000030A3000130A2008630A100A030A000FF
:10385C000A168A159B240A168A1507300A168A1529
:10386C004F230A168A150A168A15D4260A168A15A3
:10387C000800F800F401F5017008F200F301720879
:10388C00F6007308F700781C4C2C4D2C532C760842
:10389C00F4070318F50A7708F50701300310F60D45
:1038AC00F70DFF3E031D542C0310F80C7808031D74
:1038BC00602C612C492C7508F1007408F00008008C
:1038CC00F40074080F39F2007408F039F300831215
:1038DC00031308157308F10004300310F10CFF3EBC
:1038EC00031D732C71080A168A1588230A168A156B
:1038FC008312031388151A30F100F10B832C00008E
:10390C0083120313881172080A168A1588230A1663
:10391C008A158312031388151A30F100F10B942CBD
:10392C00000083120313881108002830831203133C
:10393C009400831603139101831203132008A4002F
:10394C002108A5002208A6002308A70002300310B6
:10395C00A40DA50DA60DA70DFF3E031DAD2C27082C
:10396C00F3002608F2002508F1002408F0000030CE
:10397C00F7007A30F6001230F5000030F4000A1629
:10398C008A1531270A168A157008FF3E8316031311
:10399C009300940187150716080070087104031929
:1039AC00D82CD92C082DF501F50AE72C0130031081
:1039BC00F00DF10DFF3E031DDD2C0130F4007408F9
:1039CC00F507F11FEA2CEB2CDC2C71087302031D9C
:1039DC00F12C70087202031CF42CF52CFB2C7008D3
:1039EC00F2027108031CF303F30201300310F10C13
:1039FC00F00CFF3E031DFC2C0130F502031D072DBE
:103A0C00082DEB2C7308F1007208F0000800FA0185
:103A1C00FB01322D7A087507F8007608F7000318B9
:103A2C00F70AFA1F1A2DF7037708F90079088312A1
:103A3C000313FF00780884000A128A1103200A1667
:103A4C008A150A168A1566240A168A150130FA0791
:103A5C000318FB0A0030FB077A087507F800760894
:103A6C00F7000318F70AFA1F3C2DF7037708F90043
:103A7C00790883120313FF00780884000A128A1154
:103A8C0003200A168A15003A031D4D2D4E2D102DBC
:103A9C000800FB01FC01760877040319562D572DFD
:103AAC008E2DFD01FD0A652D01300310F60DF70D6D
:103ABC00FF3E031D5B2D0130FA007A08FD07F71F4E
:103ACC00682D692D5A2D01300310FB0DFC0DFF3EA6
:103ADC00031D6A2D77087902031D762D760878026E
:103AEC00031C792D7A2D812D7608F8027708031C9A
:103AFC00F903F9027B1401300310F70CF60CFF3EAE
:103B0C00031D822D0130FD02031D8D2D8E2D692D7F
:103B1C007C08F7007B08F6000800F6007603031D0E
:103B2C00982D992DB62D74087F3EF9007908F50073
:103B3C0004300310F50CFF3E031D9F2D7508F70094
:103B4C0079080F39F80077080A168A156E230A16B9
:103B5C008A1578080A168A156E230A168A15D82D26
:103B6C0002307606031DBB2DBC2DD82D7408BF3E2C
:103B7C00F9007908F50004300310F50CFF3E031D25
:103B8C00C22D7508F70079080F39F80077080A1666
:103B9C008A156E230A168A1578080A168A156E235A
:103BAC000A168A15080000307005F80000307105FF
:103BBC00F90080307205FA007F307305FB007B083A
:103BCC007A0479047804031DEC2DED2DF52D0030CD
:103BDC00F3000030F2000030F1000030F000003053
:103BEC007405F80000307505F90080307605FA0090
:103BFC007F307705FB007B087A0479047804031D79
:103C0C00082E092E112E0030F7000030F60000307F
:103C1C00F5000030F40077087306031D1F2E76089C
:103C2C007206031D1F2E75087106031D1F2E7408C6
:103C3C0070060319222E232E252E0310262E031474
:103C4C000800730872047104700403192E2E2F2EB1
:103C5C00722EF901F90A3F2E0130F8000310F00D15
:103C6C00F10DF20DF30DF80B342E0130F80078083D
:103C7C00F907F31F422E432E322E73087702031DD1
:103C8C00512E72087602031D512E71087502031D08
:103C9C00512E70087402031C542E552E632E70087E
:103CAC00F4027108031C710FF5027208031C720FE9
:103CBC00F6027308031C730FF70201300310F30CA8
:103CCC00F20CF10CF00CFF3E031D642E0130F902D6
:103CDC00031D712E722E432E7708F3007608F20026
:103CEC007508F1007408F0000800F601F31F7F2E30
:103CFC00802E872EF209F309F20A0319F30AF60152
:103D0C00F60AF11F8A2E8B2E902EF009F109F00A7B
:103D1C000319F10A700871040319952E962EC52EFD
:103D2C00F501F50AA42E01300310F00DF10DFF3E44
:103D3C00031D9A2E0130F4007408F507F11FA72E0D
:103D4C00A82E992E71087302031DAE2E70087202F4
:103D5C00031CB12EB22EB82E7008F2027108031C8F
:103D6C00F303F30201300310F10CF00CFF3E031DC2
:103D7C00B92E0130F502031DC42EC52EA82E7608CF
:103D8C000319C92ECA2ECF2EF209F309F20A031910
:103D9C00F30A7308F1007208F000080000300A16EC
:103DAC008A1588230A168A153430F500F130F40090
:103DBC00F40BDE2EF50BDE2EE32E03300A168A15DD
:103DCC006E230A168A150D30F500FB30F400F40B47
:103DDC00ED2EF50BED2EF22E03300A168A156E23FE
:103DEC000A168A151D30F5009130F400F40BFC2EE8
:103DFC00F50BFC2E03300A168A156E230A168A154B
:103E0C0002300A168A156E230A168A1502300A1613
:103E1C008A156E230A168A1508300A168A156E231F
:103E2C000A168A1500300A168A156E230A168A1588
:103E3C000C300A168A156E230A168A1500300A16DB
:103E4C008A156E230A168A1506300A168A156E23F1
:103E5C000A168A1508000030FC000030FB00003008
:103E6C00FA000030F900730872047104700403192D
:103E7C00402F412F8E2FFD01FD0A512F0130F800EC
:103E8C000310F00DF10DF20DF30DF80B462F013070
:103E9C00F8007808FD07F31F542F552F442F0130DD
:103EAC00F8000310F90DFA0DFB0DFC0DF80B572F54
:103EBC0073087702031D6C2F72087602031D6C2F9A
:103ECC0071087502031D6C2F70087402031C6F2F90
:103EDC00702F7F2F7008F4027108031C710FF5020C
:103EEC007208031C720FF6027308031C730FF7029F
:103EFC00791401300310F30CF20CF10CF00CFF3EB2
:103F0C00031D802F0130FD02031D8D2F8E2F552F89
:103F1C007C08F3007B08F2007A08F1007908F000C5
:103F2C00080083120313A101F81F9D2F9E2FA52FAC
:103F3C00F709F809F70A0319F80AA101A10AFA1FEF
:103F4C00A82FA92FB22FF909FA09F90A0319FA0AAD
:103F5C000130FB007B08A106A201A30177087804BD
:103F6C000319B92FBA2FF12FA001A00AC82F0130C5
:103F7C000310F70DF80DFF3E031DBE2F0130FB00A3
:103F8C007B08A007F81FCB2FCC2FBD2F01300310BF
:103F9C00A20DA30DFF3E031DCD2F78087A02031D41
:103FAC00D92F77087902031CDC2FDD2FE42F77083B
:103FBC00F9027808031CFA03FA02221401300310E8
:103FCC00F80CF70CFF3E031DE52F0130A002031D7A
:103FDC00F02FF12FCC2F21080319F52FF62FFB2FE3
:103FEC00A209A309A20A0319A30A2308F8002208AC
:0C3FFC00F7000800FF3FFF3FFF3FFF3FC2
:04400E00D420FF3F7C
:00000001FF
